{
  "_format": "hh-sol-artifact-1",
  "contractName": "Estateta",
  "sourceName": "contracts/Estateta.sol",
  "abi": [
    {
      "inputs": [
        {
          "internalType": "address",
          "name": "initialOwner",
          "type": "address"
        },
        {
          "internalType": "uint256",
          "name": "_pct",
          "type": "uint256"
        }
      ],
      "stateMutability": "nonpayable",
      "type": "constructor"
    },
    {
      "inputs": [],
      "name": "ReentrancyGuardReentrantCall",
      "type": "error"
    },
    {
      "anonymous": false,
      "inputs": [
        {
          "indexed": true,
          "internalType": "address",
          "name": "owner",
          "type": "address"
        },
        {
          "indexed": true,
          "internalType": "address",
          "name": "approved",
          "type": "address"
        },
        {
          "indexed": true,
          "internalType": "uint256",
          "name": "tokenId",
          "type": "uint256"
        }
      ],
      "name": "Approval",
      "type": "event"
    },
    {
      "anonymous": false,
      "inputs": [
        {
          "indexed": true,
          "internalType": "address",
          "name": "owner",
          "type": "address"
        },
        {
          "indexed": true,
          "internalType": "address",
          "name": "operator",
          "type": "address"
        },
        {
          "indexed": false,
          "internalType": "bool",
          "name": "approved",
          "type": "bool"
        }
      ],
      "name": "ApprovalForAll",
      "type": "event"
    },
    {
      "anonymous": false,
      "inputs": [
        {
          "indexed": false,
          "internalType": "uint8",
          "name": "version",
          "type": "uint8"
        }
      ],
      "name": "Initialized",
      "type": "event"
    },
    {
      "anonymous": false,
      "inputs": [
        {
          "indexed": true,
          "internalType": "address",
          "name": "previousOwner",
          "type": "address"
        },
        {
          "indexed": true,
          "internalType": "address",
          "name": "newOwner",
          "type": "address"
        }
      ],
      "name": "OwnershipTransferred",
      "type": "event"
    },
    {
      "anonymous": false,
      "inputs": [
        {
          "indexed": true,
          "internalType": "uint256",
          "name": "id",
          "type": "uint256"
        },
        {
          "indexed": true,
          "internalType": "address",
          "name": "owner",
          "type": "address"
        },
        {
          "indexed": false,
          "internalType": "uint256",
          "name": "price",
          "type": "uint256"
        }
      ],
      "name": "PropertyCreated",
      "type": "event"
    },
    {
      "anonymous": false,
      "inputs": [
        {
          "indexed": true,
          "internalType": "uint256",
          "name": "id",
          "type": "uint256"
        }
      ],
      "name": "PropertyDeleted",
      "type": "event"
    },
    {
      "anonymous": false,
      "inputs": [
        {
          "indexed": true,
          "internalType": "uint256",
          "name": "id",
          "type": "uint256"
        },
        {
          "indexed": true,
          "internalType": "address",
          "name": "oldOwner",
          "type": "address"
        },
        {
          "indexed": true,
          "internalType": "address",
          "name": "newOwner",
          "type": "address"
        },
        {
          "indexed": false,
          "internalType": "uint256",
          "name": "price",
          "type": "uint256"
        }
      ],
      "name": "PropertySold",
      "type": "event"
    },
    {
      "anonymous": false,
      "inputs": [
        {
          "indexed": true,
          "internalType": "uint256",
          "name": "id",
          "type": "uint256"
        }
      ],
      "name": "PropertyUpdated",
      "type": "event"
    },
    {
      "anonymous": false,
      "inputs": [
        {
          "indexed": true,
          "internalType": "uint256",
          "name": "propertyId",
          "type": "uint256"
        },
        {
          "indexed": true,
          "internalType": "uint256",
          "name": "reviewId",
          "type": "uint256"
        }
      ],
      "name": "ReviewCreated",
      "type": "event"
    },
    {
      "anonymous": false,
      "inputs": [
        {
          "indexed": true,
          "internalType": "uint256",
          "name": "propertyId",
          "type": "uint256"
        },
        {
          "indexed": true,
          "internalType": "uint256",
          "name": "reviewId",
          "type": "uint256"
        }
      ],
      "name": "ReviewDeleted",
      "type": "event"
    },
    {
      "anonymous": false,
      "inputs": [
        {
          "indexed": true,
          "internalType": "uint256",
          "name": "propertyId",
          "type": "uint256"
        },
        {
          "indexed": true,
          "internalType": "uint256",
          "name": "reviewId",
          "type": "uint256"
        }
      ],
      "name": "ReviewUpdated",
      "type": "event"
    },
    {
      "anonymous": false,
      "inputs": [
        {
          "indexed": true,
          "internalType": "address",
          "name": "from",
          "type": "address"
        },
        {
          "indexed": true,
          "internalType": "address",
          "name": "to",
          "type": "address"
        },
        {
          "indexed": true,
          "internalType": "uint256",
          "name": "tokenId",
          "type": "uint256"
        }
      ],
      "name": "Transfer",
      "type": "event"
    },
    {
      "inputs": [
        {
          "internalType": "address",
          "name": "to",
          "type": "address"
        },
        {
          "internalType": "uint256",
          "name": "tokenId",
          "type": "uint256"
        }
      ],
      "name": "approve",
      "outputs": [],
      "stateMutability": "nonpayable",
      "type": "function"
    },
    {
      "inputs": [
        {
          "internalType": "address",
          "name": "owner",
          "type": "address"
        }
      ],
      "name": "balanceOf",
      "outputs": [
        {
          "internalType": "uint256",
          "name": "",
          "type": "uint256"
        }
      ],
      "stateMutability": "view",
      "type": "function"
    },
    {
      "inputs": [
        {
          "internalType": "uint256",
          "name": "id",
          "type": "uint256"
        }
      ],
      "name": "buyProperty",
      "outputs": [],
      "stateMutability": "payable",
      "type": "function"
    },
    {
      "inputs": [
        {
          "components": [
            {
              "internalType": "uint256",
              "name": "id",
              "type": "uint256"
            },
            {
              "internalType": "address",
              "name": "owner",
              "type": "address"
            },
            {
              "internalType": "string",
              "name": "name",
              "type": "string"
            },
            {
              "internalType": "string[]",
              "name": "images",
              "type": "string[]"
            },
            {
              "internalType": "string",
              "name": "category",
              "type": "string"
            },
            {
              "internalType": "string",
              "name": "description",
              "type": "string"
            },
            {
              "internalType": "string",
              "name": "location",
              "type": "string"
            },
            {
              "internalType": "string",
              "name": "city",
              "type": "string"
            },
            {
              "internalType": "string",
              "name": "state",
              "type": "string"
            },
            {
              "internalType": "string",
              "name": "country",
              "type": "string"
            },
            {
              "internalType": "uint256",
              "name": "zipCode",
              "type": "uint256"
            },
            {
              "internalType": "uint256",
              "name": "bedroom",
              "type": "uint256"
            },
            {
              "internalType": "uint256",
              "name": "bathroom",
              "type": "uint256"
            },
            {
              "internalType": "uint256",
              "name": "built",
              "type": "uint256"
            },
            {
              "internalType": "uint256",
              "name": "squarefit",
              "type": "uint256"
            },
            {
              "internalType": "uint256",
              "name": "price",
              "type": "uint256"
            },
            {
              "internalType": "bool",
              "name": "sold",
              "type": "bool"
            },
            {
              "internalType": "bool",
              "name": "deleted",
              "type": "bool"
            }
          ],
          "internalType": "struct Estateta.PropertyStruct",
          "name": "property",
          "type": "tuple"
        }
      ],
      "name": "createProperty",
      "outputs": [],
      "stateMutability": "nonpayable",
      "type": "function"
    },
    {
      "inputs": [],
      "name": "getAllProperties",
      "outputs": [
        {
          "components": [
            {
              "internalType": "uint256",
              "name": "id",
              "type": "uint256"
            },
            {
              "internalType": "address",
              "name": "owner",
              "type": "address"
            },
            {
              "internalType": "string",
              "name": "name",
              "type": "string"
            },
            {
              "internalType": "string[]",
              "name": "images",
              "type": "string[]"
            },
            {
              "internalType": "string",
              "name": "category",
              "type": "string"
            },
            {
              "internalType": "string",
              "name": "description",
              "type": "string"
            },
            {
              "internalType": "string",
              "name": "location",
              "type": "string"
            },
            {
              "internalType": "string",
              "name": "city",
              "type": "string"
            },
            {
              "internalType": "string",
              "name": "state",
              "type": "string"
            },
            {
              "internalType": "string",
              "name": "country",
              "type": "string"
            },
            {
              "internalType": "uint256",
              "name": "zipCode",
              "type": "uint256"
            },
            {
              "internalType": "uint256",
              "name": "bedroom",
              "type": "uint256"
            },
            {
              "internalType": "uint256",
              "name": "bathroom",
              "type": "uint256"
            },
            {
              "internalType": "uint256",
              "name": "built",
              "type": "uint256"
            },
            {
              "internalType": "uint256",
              "name": "squarefit",
              "type": "uint256"
            },
            {
              "internalType": "uint256",
              "name": "price",
              "type": "uint256"
            },
            {
              "internalType": "bool",
              "name": "sold",
              "type": "bool"
            },
            {
              "internalType": "bool",
              "name": "deleted",
              "type": "bool"
            }
          ],
          "internalType": "struct Estateta.PropertyStruct[]",
          "name": "myProperties",
          "type": "tuple[]"
        }
      ],
      "stateMutability": "view",
      "type": "function"
    },
    {
      "inputs": [
        {
          "internalType": "uint256",
          "name": "tokenId",
          "type": "uint256"
        }
      ],
      "name": "getApproved",
      "outputs": [
        {
          "internalType": "address",
          "name": "",
          "type": "address"
        }
      ],
      "stateMutability": "view",
      "type": "function"
    },
    {
      "inputs": [],
      "name": "getMyProperties",
      "outputs": [
        {
          "components": [
            {
              "internalType": "uint256",
              "name": "id",
              "type": "uint256"
            },
            {
              "internalType": "address",
              "name": "owner",
              "type": "address"
            },
            {
              "internalType": "string",
              "name": "name",
              "type": "string"
            },
            {
              "internalType": "string[]",
              "name": "images",
              "type": "string[]"
            },
            {
              "internalType": "string",
              "name": "category",
              "type": "string"
            },
            {
              "internalType": "string",
              "name": "description",
              "type": "string"
            },
            {
              "internalType": "string",
              "name": "location",
              "type": "string"
            },
            {
              "internalType": "string",
              "name": "city",
              "type": "string"
            },
            {
              "internalType": "string",
              "name": "state",
              "type": "string"
            },
            {
              "internalType": "string",
              "name": "country",
              "type": "string"
            },
            {
              "internalType": "uint256",
              "name": "zipCode",
              "type": "uint256"
            },
            {
              "internalType": "uint256",
              "name": "bedroom",
              "type": "uint256"
            },
            {
              "internalType": "uint256",
              "name": "bathroom",
              "type": "uint256"
            },
            {
              "internalType": "uint256",
              "name": "built",
              "type": "uint256"
            },
            {
              "internalType": "uint256",
              "name": "squarefit",
              "type": "uint256"
            },
            {
              "internalType": "uint256",
              "name": "price",
              "type": "uint256"
            },
            {
              "internalType": "bool",
              "name": "sold",
              "type": "bool"
            },
            {
              "internalType": "bool",
              "name": "deleted",
              "type": "bool"
            }
          ],
          "internalType": "struct Estateta.PropertyStruct[]",
          "name": "myProperties",
          "type": "tuple[]"
        }
      ],
      "stateMutability": "view",
      "type": "function"
    },
    {
      "inputs": [
        {
          "internalType": "uint256",
          "name": "id",
          "type": "uint256"
        }
      ],
      "name": "getProperty",
      "outputs": [
        {
          "components": [
            {
              "internalType": "uint256",
              "name": "id",
              "type": "uint256"
            },
            {
              "internalType": "address",
              "name": "owner",
              "type": "address"
            },
            {
              "internalType": "string",
              "name": "name",
              "type": "string"
            },
            {
              "internalType": "string[]",
              "name": "images",
              "type": "string[]"
            },
            {
              "internalType": "string",
              "name": "category",
              "type": "string"
            },
            {
              "internalType": "string",
              "name": "description",
              "type": "string"
            },
            {
              "internalType": "string",
              "name": "location",
              "type": "string"
            },
            {
              "internalType": "string",
              "name": "city",
              "type": "string"
            },
            {
              "internalType": "string",
              "name": "state",
              "type": "string"
            },
            {
              "internalType": "string",
              "name": "country",
              "type": "string"
            },
            {
              "internalType": "uint256",
              "name": "zipCode",
              "type": "uint256"
            },
            {
              "internalType": "uint256",
              "name": "bedroom",
              "type": "uint256"
            },
            {
              "internalType": "uint256",
              "name": "bathroom",
              "type": "uint256"
            },
            {
              "internalType": "uint256",
              "name": "built",
              "type": "uint256"
            },
            {
              "internalType": "uint256",
              "name": "squarefit",
              "type": "uint256"
            },
            {
              "internalType": "uint256",
              "name": "price",
              "type": "uint256"
            },
            {
              "internalType": "bool",
              "name": "sold",
              "type": "bool"
            },
            {
              "internalType": "bool",
              "name": "deleted",
              "type": "bool"
            }
          ],
          "internalType": "struct Estateta.PropertyStruct",
          "name": "",
          "type": "tuple"
        }
      ],
      "stateMutability": "view",
      "type": "function"
    },
    {
      "inputs": [
        {
          "internalType": "address",
          "name": "owner",
          "type": "address"
        },
        {
          "internalType": "address",
          "name": "operator",
          "type": "address"
        }
      ],
      "name": "isApprovedForAll",
      "outputs": [
        {
          "internalType": "bool",
          "name": "",
          "type": "bool"
        }
      ],
      "stateMutability": "view",
      "type": "function"
    },
    {
      "inputs": [],
      "name": "name",
      "outputs": [
        {
          "internalType": "string",
          "name": "",
          "type": "string"
        }
      ],
      "stateMutability": "view",
      "type": "function"
    },
    {
      "inputs": [],
      "name": "owner",
      "outputs": [
        {
          "internalType": "address",
          "name": "",
          "type": "address"
        }
      ],
      "stateMutability": "view",
      "type": "function"
    },
    {
      "inputs": [
        {
          "internalType": "uint256",
          "name": "tokenId",
          "type": "uint256"
        }
      ],
      "name": "ownerOf",
      "outputs": [
        {
          "internalType": "address",
          "name": "",
          "type": "address"
        }
      ],
      "stateMutability": "view",
      "type": "function"
    },
    {
      "inputs": [],
      "name": "renounceOwnership",
      "outputs": [],
      "stateMutability": "nonpayable",
      "type": "function"
    },
    {
      "inputs": [
        {
          "internalType": "address",
          "name": "from",
          "type": "address"
        },
        {
          "internalType": "address",
          "name": "to",
          "type": "address"
        },
        {
          "internalType": "uint256",
          "name": "tokenId",
          "type": "uint256"
        }
      ],
      "name": "safeTransferFrom",
      "outputs": [],
      "stateMutability": "nonpayable",
      "type": "function"
    },
    {
      "inputs": [
        {
          "internalType": "address",
          "name": "from",
          "type": "address"
        },
        {
          "internalType": "address",
          "name": "to",
          "type": "address"
        },
        {
          "internalType": "uint256",
          "name": "tokenId",
          "type": "uint256"
        },
        {
          "internalType": "bytes",
          "name": "data",
          "type": "bytes"
        }
      ],
      "name": "safeTransferFrom",
      "outputs": [],
      "stateMutability": "nonpayable",
      "type": "function"
    },
    {
      "inputs": [
        {
          "internalType": "address",
          "name": "operator",
          "type": "address"
        },
        {
          "internalType": "bool",
          "name": "approved",
          "type": "bool"
        }
      ],
      "name": "setApprovalForAll",
      "outputs": [],
      "stateMutability": "nonpayable",
      "type": "function"
    },
    {
      "inputs": [
        {
          "internalType": "bytes4",
          "name": "interfaceId",
          "type": "bytes4"
        }
      ],
      "name": "supportsInterface",
      "outputs": [
        {
          "internalType": "bool",
          "name": "",
          "type": "bool"
        }
      ],
      "stateMutability": "view",
      "type": "function"
    },
    {
      "inputs": [],
      "name": "symbol",
      "outputs": [
        {
          "internalType": "string",
          "name": "",
          "type": "string"
        }
      ],
      "stateMutability": "view",
      "type": "function"
    },
    {
      "inputs": [
        {
          "internalType": "uint256",
          "name": "tokenId",
          "type": "uint256"
        }
      ],
      "name": "tokenURI",
      "outputs": [
        {
          "internalType": "string",
          "name": "",
          "type": "string"
        }
      ],
      "stateMutability": "view",
      "type": "function"
    },
    {
      "inputs": [
        {
          "internalType": "address",
          "name": "from",
          "type": "address"
        },
        {
          "internalType": "address",
          "name": "to",
          "type": "address"
        },
        {
          "internalType": "uint256",
          "name": "tokenId",
          "type": "uint256"
        }
      ],
      "name": "transferFrom",
      "outputs": [],
      "stateMutability": "nonpayable",
      "type": "function"
    },
    {
      "inputs": [
        {
          "internalType": "address",
          "name": "newOwner",
          "type": "address"
        }
      ],
      "name": "transferOwnership",
      "outputs": [],
      "stateMutability": "nonpayable",
      "type": "function"
    }
  ],
  "bytecode": "0x608060405234801561001057600080fd5b50604051616cf1380380616cf1833981810160405281019061003291906103a0565b6040518060400160405280600881526020017f45737461746574610000000000000000000000000000000000000000000000008152506040518060400160405280600381526020017f45544100000000000000000000000000000000000000000000000000000000008152506100ba6100af6100f960201b60201c565b61010160201b60201c565b81600190816100c99190610626565b5080600290816100d99190610626565b50505080600b819055506100f2826101c560201b60201c565b5050610807565b600033905090565b60008060009054906101000a900473ffffffffffffffffffffffffffffffffffffffff169050816000806101000a81548173ffffffffffffffffffffffffffffffffffffffff021916908373ffffffffffffffffffffffffffffffffffffffff1602179055508173ffffffffffffffffffffffffffffffffffffffff168173ffffffffffffffffffffffffffffffffffffffff167f8be0079c531659141344cd1fd0a4f28419497f9722a3daafe3b4186f6b6457e060405160405180910390a35050565b6101d361025460201b60201c565b600073ffffffffffffffffffffffffffffffffffffffff168173ffffffffffffffffffffffffffffffffffffffff1603610242576040517f08c379a00000000000000000000000000000000000000000000000000000000081526004016102399061077b565b60405180910390fd5b6102518161010160201b60201c565b50565b6102626100f960201b60201c565b73ffffffffffffffffffffffffffffffffffffffff166102866102de60201b60201c565b73ffffffffffffffffffffffffffffffffffffffff16146102dc576040517f08c379a00000000000000000000000000000000000000000000000000000000081526004016102d3906107e7565b60405180910390fd5b565b60008060009054906101000a900473ffffffffffffffffffffffffffffffffffffffff16905090565b600080fd5b600073ffffffffffffffffffffffffffffffffffffffff82169050919050565b60006103378261030c565b9050919050565b6103478161032c565b811461035257600080fd5b50565b6000815190506103648161033e565b92915050565b6000819050919050565b61037d8161036a565b811461038857600080fd5b50565b60008151905061039a81610374565b92915050565b600080604083850312156103b7576103b6610307565b5b60006103c585828601610355565b92505060206103d68582860161038b565b9150509250929050565b600081519050919050565b7f4e487b7100000000000000000000000000000000000000000000000000000000600052604160045260246000fd5b7f4e487b7100000000000000000000000000000000000000000000000000000000600052602260045260246000fd5b6000600282049050600182168061046157607f821691505b6020821081036104745761047361041a565b5b50919050565b60008190508160005260206000209050919050565b60006020601f8301049050919050565b600082821b905092915050565b6000600883026104dc7fffffffffffffffffffffffffffffffffffffffffffffffffffffffffffffffff8261049f565b6104e6868361049f565b95508019841693508086168417925050509392505050565b6000819050919050565b600061052361051e6105198461036a565b6104fe565b61036a565b9050919050565b6000819050919050565b61053d83610508565b6105516105498261052a565b8484546104ac565b825550505050565b600090565b610566610559565b610571818484610534565b505050565b5b818110156105955761058a60008261055e565b600181019050610577565b5050565b601f8211156105da576105ab8161047a565b6105b48461048f565b810160208510156105c3578190505b6105d76105cf8561048f565b830182610576565b50505b505050565b600082821c905092915050565b60006105fd600019846008026105df565b1980831691505092915050565b600061061683836105ec565b9150826002028217905092915050565b61062f826103e0565b67ffffffffffffffff811115610648576106476103eb565b5b6106528254610449565b61065d828285610599565b600060209050601f831160018114610690576000841561067e578287015190505b610688858261060a565b8655506106f0565b601f19841661069e8661047a565b60005b828110156106c6578489015182556001820191506020850194506020810190506106a1565b868310156106e357848901516106df601f8916826105ec565b8355505b6001600288020188555050505b505050505050565b600082825260208201905092915050565b7f4f776e61626c653a206e6577206f776e657220697320746865207a65726f206160008201527f6464726573730000000000000000000000000000000000000000000000000000602082015250565b60006107656026836106f8565b915061077082610709565b604082019050919050565b6000602082019050818103600083015261079481610758565b9050919050565b7f4f776e61626c653a2063616c6c6572206973206e6f7420746865206f776e6572600082015250565b60006107d16020836106f8565b91506107dc8261079b565b602082019050919050565b60006020820190508181036000830152610800816107c4565b9050919050565b6164db806108166000396000f3fe60806040526004361061012a5760003560e01c80636fa830a6116100ab578063a22cb4651161006f578063a22cb465146103e5578063b88d4fde1461040e578063c87b56dd14610437578063e985e9c514610474578063f2fde38b146104b1578063f72e3406146104da5761012a565b80636fa830a61461031f57806370a082311461033b578063715018a6146103785780638da5cb5b1461038f57806395d89b41146103ba5761012a565b806332665ffb116100f257806332665ffb14610226578063397f7952146102635780633d51402c1461028e57806342842e0e146102b95780636352211e146102e25761012a565b806301ffc9a71461012f57806306fdde031461016c578063081812fc14610197578063095ea7b3146101d457806323b872dd146101fd575b600080fd5b34801561013b57600080fd5b5061015660048036038101906101519190614007565b610503565b604051610163919061404f565b60405180910390f35b34801561017857600080fd5b506101816105e5565b60405161018e91906140fa565b60405180910390f35b3480156101a357600080fd5b506101be60048036038101906101b99190614152565b610677565b6040516101cb91906141c0565b60405180910390f35b3480156101e057600080fd5b506101fb60048036038101906101f69190614207565b6106bd565b005b34801561020957600080fd5b50610224600480360381019061021f9190614247565b6107d4565b005b34801561023257600080fd5b5061024d60048036038101906102489190614152565b610834565b60405161025a9190614586565b60405180910390f35b34801561026f57600080fd5b50610278610ecf565b604051610285919061481d565b60405180910390f35b34801561029a57600080fd5b506102a36116b4565b6040516102b0919061481d565b60405180910390f35b3480156102c557600080fd5b506102e060048036038101906102db9190614247565b611dbb565b005b3480156102ee57600080fd5b5061030960048036038101906103049190614152565b611ddb565b60405161031691906141c0565b60405180910390f35b61033960048036038101906103349190614152565b611e61565b005b34801561034757600080fd5b50610362600480360381019061035d919061483f565b611e86565b60405161036f919061487b565b60405180910390f35b34801561038457600080fd5b5061038d611f3d565b005b34801561039b57600080fd5b506103a4611f51565b6040516103b191906141c0565b60405180910390f35b3480156103c657600080fd5b506103cf611f7a565b6040516103dc91906140fa565b60405180910390f35b3480156103f157600080fd5b5061040c600480360381019061040791906148c2565b61200c565b005b34801561041a57600080fd5b5061043560048036038101906104309190614a37565b612022565b005b34801561044357600080fd5b5061045e60048036038101906104599190614152565b612084565b60405161046b91906140fa565b60405180910390f35b34801561048057600080fd5b5061049b60048036038101906104969190614aba565b6120ec565b6040516104a8919061404f565b60405180910390f35b3480156104bd57600080fd5b506104d860048036038101906104d3919061483f565b612180565b005b3480156104e657600080fd5b5061050160048036038101906104fc9190614f11565b612203565b005b60007f80ac58cd000000000000000000000000000000000000000000000000000000007bffffffffffffffffffffffffffffffffffffffffffffffffffffffff1916827bffffffffffffffffffffffffffffffffffffffffffffffffffffffff191614806105ce57507f5b5e139f000000000000000000000000000000000000000000000000000000007bffffffffffffffffffffffffffffffffffffffffffffffffffffffff1916827bffffffffffffffffffffffffffffffffffffffffffffffffffffffff1916145b806105de57506105dd8261294d565b5b9050919050565b6060600180546105f490614f89565b80601f016020809104026020016040519081016040528092919081815260200182805461062090614f89565b801561066d5780601f106106425761010080835404028352916020019161066d565b820191906000526020600020905b81548152906001019060200180831161065057829003601f168201915b5050505050905090565b6000610682826129b7565b6005600083815260200190815260200160002060009054906101000a900473ffffffffffffffffffffffffffffffffffffffff169050919050565b60006106c882611ddb565b90508073ffffffffffffffffffffffffffffffffffffffff168373ffffffffffffffffffffffffffffffffffffffff1603610738576040517f08c379a000000000000000000000000000000000000000000000000000000000815260040161072f9061502c565b60405180910390fd5b8073ffffffffffffffffffffffffffffffffffffffff16610757612a02565b73ffffffffffffffffffffffffffffffffffffffff161480610786575061078581610780612a02565b6120ec565b5b6107c5576040517f08c379a00000000000000000000000000000000000000000000000000000000081526004016107bc906150be565b60405180910390fd5b6107cf8383612a0a565b505050565b6107e56107df612a02565b82612ac3565b610824576040517f08c379a000000000000000000000000000000000000000000000000000000000815260040161081b90615150565b60405180910390fd5b61082f838383612b58565b505050565b61083c613de5565b600f600083815260200190815260200160002060009054906101000a900460ff1661089c576040517f08c379a0000000000000000000000000000000000000000000000000000000008152600401610893906151bc565b60405180910390fd5b600c600083815260200190815260200160002060100160019054906101000a900460ff1615610900576040517f08c379a00000000000000000000000000000000000000000000000000000000081526004016108f790615228565b60405180910390fd5b600c600083815260200190815260200160002060405180610240016040529081600082015481526020016001820160009054906101000a900473ffffffffffffffffffffffffffffffffffffffff1673ffffffffffffffffffffffffffffffffffffffff1673ffffffffffffffffffffffffffffffffffffffff16815260200160028201805461098f90614f89565b80601f01602080910402602001604051908101604052809291908181526020018280546109bb90614f89565b8015610a085780601f106109dd57610100808354040283529160200191610a08565b820191906000526020600020905b8154815290600101906020018083116109eb57829003601f168201915b5050505050815260200160038201805480602002602001604051908101604052809291908181526020016000905b82821015610ae2578382906000526020600020018054610a5590614f89565b80601f0160208091040260200160405190810160405280929190818152602001828054610a8190614f89565b8015610ace5780601f10610aa357610100808354040283529160200191610ace565b820191906000526020600020905b815481529060010190602001808311610ab157829003601f168201915b505050505081526020019060010190610a36565b505050508152602001600482018054610afa90614f89565b80601f0160208091040260200160405190810160405280929190818152602001828054610b2690614f89565b8015610b735780601f10610b4857610100808354040283529160200191610b73565b820191906000526020600020905b815481529060010190602001808311610b5657829003601f168201915b50505050508152602001600582018054610b8c90614f89565b80601f0160208091040260200160405190810160405280929190818152602001828054610bb890614f89565b8015610c055780601f10610bda57610100808354040283529160200191610c05565b820191906000526020600020905b815481529060010190602001808311610be857829003601f168201915b50505050508152602001600682018054610c1e90614f89565b80601f0160208091040260200160405190810160405280929190818152602001828054610c4a90614f89565b8015610c975780601f10610c6c57610100808354040283529160200191610c97565b820191906000526020600020905b815481529060010190602001808311610c7a57829003601f168201915b50505050508152602001600782018054610cb090614f89565b80601f0160208091040260200160405190810160405280929190818152602001828054610cdc90614f89565b8015610d295780601f10610cfe57610100808354040283529160200191610d29565b820191906000526020600020905b815481529060010190602001808311610d0c57829003601f168201915b50505050508152602001600882018054610d4290614f89565b80601f0160208091040260200160405190810160405280929190818152602001828054610d6e90614f89565b8015610dbb5780601f10610d9057610100808354040283529160200191610dbb565b820191906000526020600020905b815481529060010190602001808311610d9e57829003601f168201915b50505050508152602001600982018054610dd490614f89565b80601f0160208091040260200160405190810160405280929190818152602001828054610e0090614f89565b8015610e4d5780601f10610e2257610100808354040283529160200191610e4d565b820191906000526020600020905b815481529060010190602001808311610e3057829003601f168201915b50505050508152602001600a8201548152602001600b8201548152602001600c8201548152602001600d8201548152602001600e8201548152602001600f82015481526020016010820160009054906101000a900460ff161515151581526020016010820160019054906101000a900460ff1615151515815250509050919050565b6060600080600190505b610ee36008612e51565b8111610fa257600c600082815260200190815260200160002060100160019054906101000a900460ff16158015610f7b57503373ffffffffffffffffffffffffffffffffffffffff16600c600083815260200190815260200160002060010160009054906101000a900473ffffffffffffffffffffffffffffffffffffffff1673ffffffffffffffffffffffffffffffffffffffff16145b15610f8f578180610f8b90615277565b9250505b8080610f9a90615277565b915050610ed9565b508067ffffffffffffffff811115610fbd57610fbc61490c565b5b604051908082528060200260200182016040528015610ff657816020015b610fe3613de5565b815260200190600190039081610fdb5790505b509150600080600190505b61100b6008612e51565b81116116ae57600c600082815260200190815260200160002060100160019054906101000a900460ff161580156110a357503373ffffffffffffffffffffffffffffffffffffffff16600c600083815260200190815260200160002060010160009054906101000a900473ffffffffffffffffffffffffffffffffffffffff1673ffffffffffffffffffffffffffffffffffffffff16145b1561169b57600c600082815260200190815260200160002060405180610240016040529081600082015481526020016001820160009054906101000a900473ffffffffffffffffffffffffffffffffffffffff1673ffffffffffffffffffffffffffffffffffffffff1673ffffffffffffffffffffffffffffffffffffffff16815260200160028201805461113790614f89565b80601f016020809104026020016040519081016040528092919081815260200182805461116390614f89565b80156111b05780601f10611185576101008083540402835291602001916111b0565b820191906000526020600020905b81548152906001019060200180831161119357829003601f168201915b5050505050815260200160038201805480602002602001604051908101604052809291908181526020016000905b8282101561128a5783829060005260206000200180546111fd90614f89565b80601f016020809104026020016040519081016040528092919081815260200182805461122990614f89565b80156112765780601f1061124b57610100808354040283529160200191611276565b820191906000526020600020905b81548152906001019060200180831161125957829003601f168201915b5050505050815260200190600101906111de565b5050505081526020016004820180546112a290614f89565b80601f01602080910402602001604051908101604052809291908181526020018280546112ce90614f89565b801561131b5780601f106112f05761010080835404028352916020019161131b565b820191906000526020600020905b8154815290600101906020018083116112fe57829003601f168201915b5050505050815260200160058201805461133490614f89565b80601f016020809104026020016040519081016040528092919081815260200182805461136090614f89565b80156113ad5780601f10611382576101008083540402835291602001916113ad565b820191906000526020600020905b81548152906001019060200180831161139057829003601f168201915b505050505081526020016006820180546113c690614f89565b80601f01602080910402602001604051908101604052809291908181526020018280546113f290614f89565b801561143f5780601f106114145761010080835404028352916020019161143f565b820191906000526020600020905b81548152906001019060200180831161142257829003601f168201915b5050505050815260200160078201805461145890614f89565b80601f016020809104026020016040519081016040528092919081815260200182805461148490614f89565b80156114d15780601f106114a6576101008083540402835291602001916114d1565b820191906000526020600020905b8154815290600101906020018083116114b457829003601f168201915b505050505081526020016008820180546114ea90614f89565b80601f016020809104026020016040519081016040528092919081815260200182805461151690614f89565b80156115635780601f1061153857610100808354040283529160200191611563565b820191906000526020600020905b81548152906001019060200180831161154657829003601f168201915b5050505050815260200160098201805461157c90614f89565b80601f01602080910402602001604051908101604052809291908181526020018280546115a890614f89565b80156115f55780601f106115ca576101008083540402835291602001916115f5565b820191906000526020600020905b8154815290600101906020018083116115d857829003601f168201915b50505050508152602001600a8201548152602001600b8201548152602001600c8201548152602001600d8201548152602001600e8201548152602001600f82015481526020016010820160009054906101000a900460ff161515151581526020016010820160019054906101000a900460ff16151515158152505084838061167c90615277565b94508151811061168f5761168e6152bf565b5b60200260200101819052505b80806116a690615277565b915050611001565b50505090565b6060600080600190505b6116c86008612e51565b811161171857600c600082815260200190815260200160002060100160019054906101000a900460ff1661170557818061170190615277565b9250505b808061171090615277565b9150506116be565b508067ffffffffffffffff8111156117335761173261490c565b5b60405190808252806020026020018201604052801561176c57816020015b611759613de5565b8152602001906001900390816117515790505b509150600080600190505b6117816008612e51565b8111611db557600c600082815260200190815260200160002060100160019054906101000a900460ff16611da257600c600082815260200190815260200160002060405180610240016040529081600082015481526020016001820160009054906101000a900473ffffffffffffffffffffffffffffffffffffffff1673ffffffffffffffffffffffffffffffffffffffff1673ffffffffffffffffffffffffffffffffffffffff16815260200160028201805461183e90614f89565b80601f016020809104026020016040519081016040528092919081815260200182805461186a90614f89565b80156118b75780601f1061188c576101008083540402835291602001916118b7565b820191906000526020600020905b81548152906001019060200180831161189a57829003601f168201915b5050505050815260200160038201805480602002602001604051908101604052809291908181526020016000905b8282101561199157838290600052602060002001805461190490614f89565b80601f016020809104026020016040519081016040528092919081815260200182805461193090614f89565b801561197d5780601f106119525761010080835404028352916020019161197d565b820191906000526020600020905b81548152906001019060200180831161196057829003601f168201915b5050505050815260200190600101906118e5565b5050505081526020016004820180546119a990614f89565b80601f01602080910402602001604051908101604052809291908181526020018280546119d590614f89565b8015611a225780601f106119f757610100808354040283529160200191611a22565b820191906000526020600020905b815481529060010190602001808311611a0557829003601f168201915b50505050508152602001600582018054611a3b90614f89565b80601f0160208091040260200160405190810160405280929190818152602001828054611a6790614f89565b8015611ab45780601f10611a8957610100808354040283529160200191611ab4565b820191906000526020600020905b815481529060010190602001808311611a9757829003601f168201915b50505050508152602001600682018054611acd90614f89565b80601f0160208091040260200160405190810160405280929190818152602001828054611af990614f89565b8015611b465780601f10611b1b57610100808354040283529160200191611b46565b820191906000526020600020905b815481529060010190602001808311611b2957829003601f168201915b50505050508152602001600782018054611b5f90614f89565b80601f0160208091040260200160405190810160405280929190818152602001828054611b8b90614f89565b8015611bd85780601f10611bad57610100808354040283529160200191611bd8565b820191906000526020600020905b815481529060010190602001808311611bbb57829003601f168201915b50505050508152602001600882018054611bf190614f89565b80601f0160208091040260200160405190810160405280929190818152602001828054611c1d90614f89565b8015611c6a5780601f10611c3f57610100808354040283529160200191611c6a565b820191906000526020600020905b815481529060010190602001808311611c4d57829003601f168201915b50505050508152602001600982018054611c8390614f89565b80601f0160208091040260200160405190810160405280929190818152602001828054611caf90614f89565b8015611cfc5780601f10611cd157610100808354040283529160200191611cfc565b820191906000526020600020905b815481529060010190602001808311611cdf57829003601f168201915b50505050508152602001600a8201548152602001600b8201548152602001600c8201548152602001600d8201548152602001600e8201548152602001600f82015481526020016010820160009054906101000a900460ff161515151581526020016010820160019054906101000a900460ff161515151581525050848380611d8390615277565b945081518110611d9657611d956152bf565b5b60200260200101819052505b8080611dad90615277565b915050611777565b50505090565b611dd683838360405180602001604052806000815250612022565b505050565b600080611de783612e5f565b9050600073ffffffffffffffffffffffffffffffffffffffff168173ffffffffffffffffffffffffffffffffffffffff1603611e58576040517f08c379a0000000000000000000000000000000000000000000000000000000008152600401611e4f9061533a565b60405180910390fd5b80915050919050565b611e69612e9c565b611e7281612ef3565b611e7b81613077565b611e83613344565b50565b60008073ffffffffffffffffffffffffffffffffffffffff168273ffffffffffffffffffffffffffffffffffffffff1603611ef6576040517f08c379a0000000000000000000000000000000000000000000000000000000008152600401611eed906153cc565b60405180910390fd5b600460008373ffffffffffffffffffffffffffffffffffffffff1673ffffffffffffffffffffffffffffffffffffffff168152602001908152602001600020549050919050565b611f4561335d565b611f4f60006133db565b565b60008060009054906101000a900473ffffffffffffffffffffffffffffffffffffffff16905090565b606060028054611f8990614f89565b80601f0160208091040260200160405190810160405280929190818152602001828054611fb590614f89565b80156120025780601f10611fd757610100808354040283529160200191612002565b820191906000526020600020905b815481529060010190602001808311611fe557829003601f168201915b5050505050905090565b61201e612017612a02565b838361349f565b5050565b61203361202d612a02565b83612ac3565b612072576040517f08c379a000000000000000000000000000000000000000000000000000000000815260040161206990615150565b60405180910390fd5b61207e8484848461360b565b50505050565b606061208f826129b7565b6000612099613667565b905060008151116120b957604051806020016040528060008152506120e4565b806120c38461367e565b6040516020016120d4929190615428565b6040516020818303038152906040525b915050919050565b6000600660008473ffffffffffffffffffffffffffffffffffffffff1673ffffffffffffffffffffffffffffffffffffffff16815260200190815260200160002060008373ffffffffffffffffffffffffffffffffffffffff1673ffffffffffffffffffffffffffffffffffffffff16815260200190815260200160002060009054906101000a900460ff16905092915050565b61218861335d565b600073ffffffffffffffffffffffffffffffffffffffff168173ffffffffffffffffffffffffffffffffffffffff16036121f7576040517f08c379a00000000000000000000000000000000000000000000000000000000081526004016121ee906154be565b60405180910390fd5b612200816133db565b50565b8060008160400151511161224c576040517f08c379a00000000000000000000000000000000000000000000000000000000081526004016122439061552a565b60405180910390fd5b600081606001515111612294576040517f08c379a000000000000000000000000000000000000000000000000000000000815260040161228b90615596565b60405180910390fd5b600a81606001515111156122dd576040517f08c379a00000000000000000000000000000000000000000000000000000000081526004016122d490615602565b60405180910390fd5b600081608001515111612325576040517f08c379a000000000000000000000000000000000000000000000000000000000815260040161231c9061566e565b60405180910390fd5b60008160a00151511161236d576040517f08c379a0000000000000000000000000000000000000000000000000000000008152600401612364906156da565b60405180910390fd5b60008160c0015151116123b5576040517f08c379a00000000000000000000000000000000000000000000000000000000081526004016123ac90615746565b60405180910390fd5b60008160e0015151116123fd576040517f08c379a00000000000000000000000000000000000000000000000000000000081526004016123f4906157b2565b60405180910390fd5b60008161010001515111612446576040517f08c379a000000000000000000000000000000000000000000000000000000000815260040161243d9061581e565b60405180910390fd5b6000816101200151511161248f576040517f08c379a00000000000000000000000000000000000000000000000000000000081526004016124869061588a565b60405180910390fd5b6000816101400151116124d7576040517f08c379a00000000000000000000000000000000000000000000000000000000081526004016124ce906158f6565b60405180910390fd5b60008161016001511161251f576040517f08c379a000000000000000000000000000000000000000000000000000000000815260040161251690615962565b60405180910390fd5b600081610180015111612567576040517f08c379a000000000000000000000000000000000000000000000000000000000815260040161255e906159ce565b60405180910390fd5b6000816101a00151116125af576040517f08c379a00000000000000000000000000000000000000000000000000000000081526004016125a690615a60565b60405180910390fd5b6000816101c00151116125f7576040517f08c379a00000000000000000000000000000000000000000000000000000000081526004016125ee90615af2565b60405180910390fd5b6000816101e001511161263f576040517f08c379a000000000000000000000000000000000000000000000000000000000815260040161263690615b5e565b60405180910390fd5b60005b8260600151518110156126be57600083606001518281518110612668576126676152bf565b5b602002602001015151116126b1576040517f08c379a00000000000000000000000000000000000000000000000000000000081526004016126a890615bca565b60405180910390fd5b8080600101915050612642565b506126c9600861374c565b60006126d56008612e51565b90508083600001818152505033836020019073ffffffffffffffffffffffffffffffffffffffff16908173ffffffffffffffffffffffffffffffffffffffff16815250506127233382613762565b82600c60008381526020019081526020016000206000820151816000015560208201518160010160006101000a81548173ffffffffffffffffffffffffffffffffffffffff021916908373ffffffffffffffffffffffffffffffffffffffff160217905550604082015181600201908161279d9190615d96565b5060608201518160030190805190602001906127ba929190613e8a565b5060808201518160040190816127d09190615d96565b5060a08201518160050190816127e69190615d96565b5060c08201518160060190816127fc9190615d96565b5060e08201518160070190816128129190615d96565b506101008201518160080190816128299190615d96565b506101208201518160090190816128409190615d96565b5061014082015181600a015561016082015181600b015561018082015181600c01556101a082015181600d01556101c082015181600e01556101e082015181600f01556102008201518160100160006101000a81548160ff0219169083151502179055506102208201518160100160016101000a81548160ff0219169083151502179055509050506001600f600083815260200190815260200160002060006101000a81548160ff0219169083151502179055503373ffffffffffffffffffffffffffffffffffffffff16817f9815995bdb741d1e283b7e7fd822a34b01efd21fd2c59dc0d5ab07a587a61726856101e00151604051612940919061487b565b60405180910390a3505050565b60007f01ffc9a7000000000000000000000000000000000000000000000000000000007bffffffffffffffffffffffffffffffffffffffffffffffffffffffff1916827bffffffffffffffffffffffffffffffffffffffffffffffffffffffff1916149050919050565b6129c081613780565b6129ff576040517f08c379a00000000000000000000000000000000000000000000000000000000081526004016129f69061533a565b60405180910390fd5b50565b600033905090565b816005600083815260200190815260200160002060006101000a81548173ffffffffffffffffffffffffffffffffffffffff021916908373ffffffffffffffffffffffffffffffffffffffff160217905550808273ffffffffffffffffffffffffffffffffffffffff16612a7d83611ddb565b73ffffffffffffffffffffffffffffffffffffffff167f8c5be1e5ebec7d5bd14f71427d1e84f3dd0314c0f7b2291e5b200ac8c7c3b92560405160405180910390a45050565b600080612acf83611ddb565b90508073ffffffffffffffffffffffffffffffffffffffff168473ffffffffffffffffffffffffffffffffffffffff161480612b115750612b1081856120ec565b5b80612b4f57508373ffffffffffffffffffffffffffffffffffffffff16612b3784610677565b73ffffffffffffffffffffffffffffffffffffffff16145b91505092915050565b8273ffffffffffffffffffffffffffffffffffffffff16612b7882611ddb565b73ffffffffffffffffffffffffffffffffffffffff1614612bce576040517f08c379a0000000000000000000000000000000000000000000000000000000008152600401612bc590615eda565b60405180910390fd5b600073ffffffffffffffffffffffffffffffffffffffff168273ffffffffffffffffffffffffffffffffffffffff1603612c3d576040517f08c379a0000000000000000000000000000000000000000000000000000000008152600401612c3490615f6c565b60405180910390fd5b612c4a83838360016137c1565b8273ffffffffffffffffffffffffffffffffffffffff16612c6a82611ddb565b73ffffffffffffffffffffffffffffffffffffffff1614612cc0576040517f08c379a0000000000000000000000000000000000000000000000000000000008152600401612cb790615eda565b60405180910390fd5b6005600082815260200190815260200160002060006101000a81549073ffffffffffffffffffffffffffffffffffffffff02191690556001600460008573ffffffffffffffffffffffffffffffffffffffff1673ffffffffffffffffffffffffffffffffffffffff168152602001908152602001600020600082825403925050819055506001600460008473ffffffffffffffffffffffffffffffffffffffff1673ffffffffffffffffffffffffffffffffffffffff16815260200190815260200160002060008282540192505081905550816003600083815260200190815260200160002060006101000a81548173ffffffffffffffffffffffffffffffffffffffff021916908373ffffffffffffffffffffffffffffffffffffffff160217905550808273ffffffffffffffffffffffffffffffffffffffff168473ffffffffffffffffffffffffffffffffffffffff167fddf252ad1be2c89b69c2b068fc378daa952ba7f163c4a11628f55a4df523b3ef60405160405180910390a4612e4c83838360016137c7565b505050565b600081600001549050919050565b60006003600083815260200190815260200160002060009054906101000a900473ffffffffffffffffffffffffffffffffffffffff169050919050565b6000612ea66137cd565b90506002816000015403612ee6576040517f3ee5aeb500000000000000000000000000000000000000000000000000000000815260040160405180910390fd5b6002816000018190555050565b600f600082815260200190815260200160002060009054906101000a900460ff16612f53576040517f08c379a0000000000000000000000000000000000000000000000000000000008152600401612f4a906151bc565b60405180910390fd5b600c6000828152602001908152602001600020600f0154341015612fac576040517f08c379a0000000000000000000000000000000000000000000000000000000008152600401612fa390615fd8565b60405180910390fd5b600c600082815260200190815260200160002060100160019054906101000a900460ff1615613010576040517f08c379a000000000000000000000000000000000000000000000000000000000815260040161300790615228565b60405180910390fd5b600c600082815260200190815260200160002060100160009054906101000a900460ff1615613074576040517f08c379a000000000000000000000000000000000000000000000000000000000815260040161306b90616044565b60405180910390fd5b50565b613081600961374c565b613089613ee3565b6130936009612e51565b8160000181815250508181602001818152505033816040019073ffffffffffffffffffffffffffffffffffffffff16908173ffffffffffffffffffffffffffffffffffffffff1681525050600e6000838152602001908152602001600020819080600181540180825580915050600190039060005260206000209060030201600090919091909150600082015181600001556020820151816001015560408201518160020160006101000a81548173ffffffffffffffffffffffffffffffffffffffff021916908373ffffffffffffffffffffffffffffffffffffffff160217905550505060006064600b543461318a9190616064565b61319491906160d5565b9050600081346131a49190616106565b90506131e6600c600086815260200190815260200160002060010160009054906101000a900473ffffffffffffffffffffffffffffffffffffffff16826137f5565b6131f76131f1611f51565b836137f5565b6000600c600086815260200190815260200160002060010160009054906101000a900473ffffffffffffffffffffffffffffffffffffffff1690506001600c600087815260200190815260200160002060100160006101000a81548160ff02191690831515021790555033600c600087815260200190815260200160002060010160006101000a81548173ffffffffffffffffffffffffffffffffffffffff021916908373ffffffffffffffffffffffffffffffffffffffff1602179055506132c1813387612b58565b3373ffffffffffffffffffffffffffffffffffffffff168173ffffffffffffffffffffffffffffffffffffffff16867fddd64180d9701c7ede08673ac8106484ff983a472929330d4fbde4e35d65cb06600c60008a8152602001908152602001600020600f0154604051613335919061487b565b60405180910390a45050505050565b600061334e6137cd565b90506001816000018190555050565b613365612a02565b73ffffffffffffffffffffffffffffffffffffffff16613383611f51565b73ffffffffffffffffffffffffffffffffffffffff16146133d9576040517f08c379a00000000000000000000000000000000000000000000000000000000081526004016133d090616186565b60405180910390fd5b565b60008060009054906101000a900473ffffffffffffffffffffffffffffffffffffffff169050816000806101000a81548173ffffffffffffffffffffffffffffffffffffffff021916908373ffffffffffffffffffffffffffffffffffffffff1602179055508173ffffffffffffffffffffffffffffffffffffffff168173ffffffffffffffffffffffffffffffffffffffff167f8be0079c531659141344cd1fd0a4f28419497f9722a3daafe3b4186f6b6457e060405160405180910390a35050565b8173ffffffffffffffffffffffffffffffffffffffff168373ffffffffffffffffffffffffffffffffffffffff160361350d576040517f08c379a0000000000000000000000000000000000000000000000000000000008152600401613504906161f2565b60405180910390fd5b80600660008573ffffffffffffffffffffffffffffffffffffffff1673ffffffffffffffffffffffffffffffffffffffff16815260200190815260200160002060008473ffffffffffffffffffffffffffffffffffffffff1673ffffffffffffffffffffffffffffffffffffffff16815260200190815260200160002060006101000a81548160ff0219169083151502179055508173ffffffffffffffffffffffffffffffffffffffff168373ffffffffffffffffffffffffffffffffffffffff167f17307eab39ab6107e8899845ad3d59bd9653f200f220920489ca2b5937696c31836040516135fe919061404f565b60405180910390a3505050565b613616848484612b58565b61362284848484613870565b613661576040517f08c379a000000000000000000000000000000000000000000000000000000000815260040161365890616284565b60405180910390fd5b50505050565b606060405180602001604052806000815250905090565b60606000600161368d846139f7565b01905060008167ffffffffffffffff8111156136ac576136ab61490c565b5b6040519080825280601f01601f1916602001820160405280156136de5781602001600182028036833780820191505090505b509050600082602001820190505b600115613741578080600190039150507f3031323334353637383961626364656600000000000000000000000000000000600a86061a8153600a8581613735576137346160a6565b5b049450600085036136ec575b819350505050919050565b6001816000016000828254019250508190555050565b61377c828260405180602001604052806000815250613b4a565b5050565b60008073ffffffffffffffffffffffffffffffffffffffff166137a283612e5f565b73ffffffffffffffffffffffffffffffffffffffff1614159050919050565b50505050565b50505050565b60007f9b779b17422d0df92223018b32b4d1fa46e071723d6817e2486d003becc55f00905090565b60008273ffffffffffffffffffffffffffffffffffffffff168260405161381b906162d5565b60006040518083038185875af1925050503d8060008114613858576040519150601f19603f3d011682016040523d82523d6000602084013e61385d565b606091505b505090508061386b57600080fd5b505050565b60006138918473ffffffffffffffffffffffffffffffffffffffff16613ba5565b156139ea578373ffffffffffffffffffffffffffffffffffffffff1663150b7a026138ba612a02565b8786866040518563ffffffff1660e01b81526004016138dc949392919061633f565b6020604051808303816000875af192505050801561391857506040513d601f19601f8201168201806040525081019061391591906163a0565b60015b61399a573d8060008114613948576040519150601f19603f3d011682016040523d82523d6000602084013e61394d565b606091505b506000815103613992576040517f08c379a000000000000000000000000000000000000000000000000000000000815260040161398990616284565b60405180910390fd5b805181602001fd5b63150b7a0260e01b7bffffffffffffffffffffffffffffffffffffffffffffffffffffffff1916817bffffffffffffffffffffffffffffffffffffffffffffffffffffffff1916149150506139ef565b600190505b949350505050565b600080600090507a184f03e93ff9f4daa797ed6e38ed64bf6a1f0100000000000000008310613a55577a184f03e93ff9f4daa797ed6e38ed64bf6a1f0100000000000000008381613a4b57613a4a6160a6565b5b0492506040810190505b6d04ee2d6d415b85acef81000000008310613a92576d04ee2d6d415b85acef81000000008381613a8857613a876160a6565b5b0492506020810190505b662386f26fc100008310613ac157662386f26fc100008381613ab757613ab66160a6565b5b0492506010810190505b6305f5e1008310613aea576305f5e1008381613ae057613adf6160a6565b5b0492506008810190505b6127108310613b0f576127108381613b0557613b046160a6565b5b0492506004810190505b60648310613b325760648381613b2857613b276160a6565b5b0492506002810190505b600a8310613b41576001810190505b80915050919050565b613b548383613bc8565b613b616000848484613870565b613ba0576040517f08c379a0000000000000000000000000000000000000000000000000000000008152600401613b9790616284565b60405180910390fd5b505050565b6000808273ffffffffffffffffffffffffffffffffffffffff163b119050919050565b600073ffffffffffffffffffffffffffffffffffffffff168273ffffffffffffffffffffffffffffffffffffffff1603613c37576040517f08c379a0000000000000000000000000000000000000000000000000000000008152600401613c2e90616419565b60405180910390fd5b613c4081613780565b15613c80576040517f08c379a0000000000000000000000000000000000000000000000000000000008152600401613c7790616485565b60405180910390fd5b613c8e6000838360016137c1565b613c9781613780565b15613cd7576040517f08c379a0000000000000000000000000000000000000000000000000000000008152600401613cce90616485565b60405180910390fd5b6001600460008473ffffffffffffffffffffffffffffffffffffffff1673ffffffffffffffffffffffffffffffffffffffff16815260200190815260200160002060008282540192505081905550816003600083815260200190815260200160002060006101000a81548173ffffffffffffffffffffffffffffffffffffffff021916908373ffffffffffffffffffffffffffffffffffffffff160217905550808273ffffffffffffffffffffffffffffffffffffffff16600073ffffffffffffffffffffffffffffffffffffffff167fddf252ad1be2c89b69c2b068fc378daa952ba7f163c4a11628f55a4df523b3ef60405160405180910390a4613de16000838360016137c7565b5050565b60405180610240016040528060008152602001600073ffffffffffffffffffffffffffffffffffffffff16815260200160608152602001606081526020016060815260200160608152602001606081526020016060815260200160608152602001606081526020016000815260200160008152602001600081526020016000815260200160008152602001600081526020016000151581526020016000151581525090565b828054828255906000526020600020908101928215613ed2579160200282015b82811115613ed1578251829081613ec19190615d96565b5091602001919060010190613eaa565b5b509050613edf9190613f1a565b5090565b60405180606001604052806000815260200160008152602001600073ffffffffffffffffffffffffffffffffffffffff1681525090565b5b80821115613f3a5760008181613f319190613f3e565b50600101613f1b565b5090565b508054613f4a90614f89565b6000825580601f10613f5c5750613f7b565b601f016020900490600052602060002090810190613f7a9190613f7e565b5b50565b5b80821115613f97576000816000905550600101613f7f565b5090565b6000604051905090565b600080fd5b600080fd5b60007fffffffff0000000000000000000000000000000000000000000000000000000082169050919050565b613fe481613faf565b8114613fef57600080fd5b50565b60008135905061400181613fdb565b92915050565b60006020828403121561401d5761401c613fa5565b5b600061402b84828501613ff2565b91505092915050565b60008115159050919050565b61404981614034565b82525050565b60006020820190506140646000830184614040565b92915050565b600081519050919050565b600082825260208201905092915050565b60005b838110156140a4578082015181840152602081019050614089565b60008484015250505050565b6000601f19601f8301169050919050565b60006140cc8261406a565b6140d68185614075565b93506140e6818560208601614086565b6140ef816140b0565b840191505092915050565b6000602082019050818103600083015261411481846140c1565b905092915050565b6000819050919050565b61412f8161411c565b811461413a57600080fd5b50565b60008135905061414c81614126565b92915050565b60006020828403121561416857614167613fa5565b5b60006141768482850161413d565b91505092915050565b600073ffffffffffffffffffffffffffffffffffffffff82169050919050565b60006141aa8261417f565b9050919050565b6141ba8161419f565b82525050565b60006020820190506141d560008301846141b1565b92915050565b6141e48161419f565b81146141ef57600080fd5b50565b600081359050614201816141db565b92915050565b6000806040838503121561421e5761421d613fa5565b5b600061422c858286016141f2565b925050602061423d8582860161413d565b9150509250929050565b6000806000606084860312156142605761425f613fa5565b5b600061426e868287016141f2565b935050602061427f868287016141f2565b92505060406142908682870161413d565b9150509250925092565b6142a38161411c565b82525050565b6142b28161419f565b82525050565b600082825260208201905092915050565b60006142d48261406a565b6142de81856142b8565b93506142ee818560208601614086565b6142f7816140b0565b840191505092915050565b600081519050919050565b600082825260208201905092915050565b6000819050602082019050919050565b600061433a83836142c9565b905092915050565b6000602082019050919050565b600061435a82614302565b614364818561430d565b9350836020820285016143768561431e565b8060005b858110156143b25784840389528151614393858261432e565b945061439e83614342565b925060208a0199505060018101905061437a565b50829750879550505050505092915050565b6143cd81614034565b82525050565b6000610240830160008301516143ec600086018261429a565b5060208301516143ff60208601826142a9565b506040830151848203604086015261441782826142c9565b91505060608301518482036060860152614431828261434f565b9150506080830151848203608086015261444b82826142c9565b91505060a083015184820360a086015261446582826142c9565b91505060c083015184820360c086015261447f82826142c9565b91505060e083015184820360e086015261449982826142c9565b9150506101008301518482036101008601526144b582826142c9565b9150506101208301518482036101208601526144d182826142c9565b9150506101408301516144e861014086018261429a565b506101608301516144fd61016086018261429a565b5061018083015161451261018086018261429a565b506101a08301516145276101a086018261429a565b506101c083015161453c6101c086018261429a565b506101e08301516145516101e086018261429a565b506102008301516145666102008601826143c4565b5061022083015161457b6102208601826143c4565b508091505092915050565b600060208201905081810360008301526145a081846143d3565b905092915050565b600081519050919050565b600082825260208201905092915050565b6000819050602082019050919050565b6000610240830160008301516145ed600086018261429a565b50602083015161460060208601826142a9565b506040830151848203604086015261461882826142c9565b91505060608301518482036060860152614632828261434f565b9150506080830151848203608086015261464c82826142c9565b91505060a083015184820360a086015261466682826142c9565b91505060c083015184820360c086015261468082826142c9565b91505060e083015184820360e086015261469a82826142c9565b9150506101008301518482036101008601526146b682826142c9565b9150506101208301518482036101208601526146d282826142c9565b9150506101408301516146e961014086018261429a565b506101608301516146fe61016086018261429a565b5061018083015161471361018086018261429a565b506101a08301516147286101a086018261429a565b506101c083015161473d6101c086018261429a565b506101e08301516147526101e086018261429a565b506102008301516147676102008601826143c4565b5061022083015161477c6102208601826143c4565b508091505092915050565b600061479383836145d4565b905092915050565b6000602082019050919050565b60006147b3826145a8565b6147bd81856145b3565b9350836020820285016147cf856145c4565b8060005b8581101561480b57848403895281516147ec8582614787565b94506147f78361479b565b925060208a019950506001810190506147d3565b50829750879550505050505092915050565b6000602082019050818103600083015261483781846147a8565b905092915050565b60006020828403121561485557614854613fa5565b5b6000614863848285016141f2565b91505092915050565b6148758161411c565b82525050565b6000602082019050614890600083018461486c565b92915050565b61489f81614034565b81146148aa57600080fd5b50565b6000813590506148bc81614896565b92915050565b600080604083850312156148d9576148d8613fa5565b5b60006148e7858286016141f2565b92505060206148f8858286016148ad565b9150509250929050565b600080fd5b600080fd5b7f4e487b7100000000000000000000000000000000000000000000000000000000600052604160045260246000fd5b614944826140b0565b810181811067ffffffffffffffff821117156149635761496261490c565b5b80604052505050565b6000614976613f9b565b9050614982828261493b565b919050565b600067ffffffffffffffff8211156149a2576149a161490c565b5b6149ab826140b0565b9050602081019050919050565b82818337600083830152505050565b60006149da6149d584614987565b61496c565b9050828152602081018484840111156149f6576149f5614907565b5b614a018482856149b8565b509392505050565b600082601f830112614a1e57614a1d614902565b5b8135614a2e8482602086016149c7565b91505092915050565b60008060008060808587031215614a5157614a50613fa5565b5b6000614a5f878288016141f2565b9450506020614a70878288016141f2565b9350506040614a818782880161413d565b925050606085013567ffffffffffffffff811115614aa257614aa1613faa565b5b614aae87828801614a09565b91505092959194509250565b60008060408385031215614ad157614ad0613fa5565b5b6000614adf858286016141f2565b9250506020614af0858286016141f2565b9150509250929050565b600080fd5b600080fd5b600067ffffffffffffffff821115614b1f57614b1e61490c565b5b614b28826140b0565b9050602081019050919050565b6000614b48614b4384614b04565b61496c565b905082815260208101848484011115614b6457614b63614907565b5b614b6f8482856149b8565b509392505050565b600082601f830112614b8c57614b8b614902565b5b8135614b9c848260208601614b35565b91505092915050565b600067ffffffffffffffff821115614bc057614bbf61490c565b5b602082029050602081019050919050565b600080fd5b6000614be9614be484614ba5565b61496c565b90508083825260208201905060208402830185811115614c0c57614c0b614bd1565b5b835b81811015614c5357803567ffffffffffffffff811115614c3157614c30614902565b5b808601614c3e8982614b77565b85526020850194505050602081019050614c0e565b5050509392505050565b600082601f830112614c7257614c71614902565b5b8135614c82848260208601614bd6565b91505092915050565b60006102408284031215614ca257614ca1614afa565b5b614cad61024061496c565b90506000614cbd8482850161413d565b6000830152506020614cd1848285016141f2565b602083015250604082013567ffffffffffffffff811115614cf557614cf4614aff565b5b614d0184828501614b77565b604083015250606082013567ffffffffffffffff811115614d2557614d24614aff565b5b614d3184828501614c5d565b606083015250608082013567ffffffffffffffff811115614d5557614d54614aff565b5b614d6184828501614b77565b60808301525060a082013567ffffffffffffffff811115614d8557614d84614aff565b5b614d9184828501614b77565b60a08301525060c082013567ffffffffffffffff811115614db557614db4614aff565b5b614dc184828501614b77565b60c08301525060e082013567ffffffffffffffff811115614de557614de4614aff565b5b614df184828501614b77565b60e08301525061010082013567ffffffffffffffff811115614e1657614e15614aff565b5b614e2284828501614b77565b6101008301525061012082013567ffffffffffffffff811115614e4857614e47614aff565b5b614e5484828501614b77565b61012083015250610140614e6a8482850161413d565b61014083015250610160614e808482850161413d565b61016083015250610180614e968482850161413d565b610180830152506101a0614eac8482850161413d565b6101a0830152506101c0614ec28482850161413d565b6101c0830152506101e0614ed88482850161413d565b6101e083015250610200614eee848285016148ad565b61020083015250610220614f04848285016148ad565b6102208301525092915050565b600060208284031215614f2757614f26613fa5565b5b600082013567ffffffffffffffff811115614f4557614f44613faa565b5b614f5184828501614c8b565b91505092915050565b7f4e487b7100000000000000000000000000000000000000000000000000000000600052602260045260246000fd5b60006002820490506001821680614fa157607f821691505b602082108103614fb457614fb3614f5a565b5b50919050565b7f4552433732313a20617070726f76616c20746f2063757272656e74206f776e6560008201527f7200000000000000000000000000000000000000000000000000000000000000602082015250565b6000615016602183614075565b915061502182614fba565b604082019050919050565b6000602082019050818103600083015261504581615009565b9050919050565b7f4552433732313a20617070726f76652063616c6c6572206973206e6f7420746f60008201527f6b656e206f776e6572206f7220617070726f76656420666f7220616c6c000000602082015250565b60006150a8603d83614075565b91506150b38261504c565b604082019050919050565b600060208201905081810360008301526150d78161509b565b9050919050565b7f4552433732313a2063616c6c6572206973206e6f7420746f6b656e206f776e6560008201527f72206f7220617070726f76656400000000000000000000000000000000000000602082015250565b600061513a602d83614075565b9150615145826150de565b604082019050919050565b600060208201905081810360008301526151698161512d565b9050919050565b7f50726f706572747920646f6573206e6f74206578697374000000000000000000600082015250565b60006151a6601783614075565b91506151b182615170565b602082019050919050565b600060208201905081810360008301526151d581615199565b9050919050565b7f50726f706572747920686173206265656e2064656c6574656400000000000000600082015250565b6000615212601983614075565b915061521d826151dc565b602082019050919050565b6000602082019050818103600083015261524181615205565b9050919050565b7f4e487b7100000000000000000000000000000000000000000000000000000000600052601160045260246000fd5b60006152828261411c565b91507fffffffffffffffffffffffffffffffffffffffffffffffffffffffffffffffff82036152b4576152b3615248565b5b600182019050919050565b7f4e487b7100000000000000000000000000000000000000000000000000000000600052603260045260246000fd5b7f4552433732313a20696e76616c696420746f6b656e2049440000000000000000600082015250565b6000615324601883614075565b915061532f826152ee565b602082019050919050565b6000602082019050818103600083015261535381615317565b9050919050565b7f4552433732313a2061646472657373207a65726f206973206e6f74206120766160008201527f6c6964206f776e65720000000000000000000000000000000000000000000000602082015250565b60006153b6602983614075565b91506153c18261535a565b604082019050919050565b600060208201905081810360008301526153e5816153a9565b9050919050565b600081905092915050565b60006154028261406a565b61540c81856153ec565b935061541c818560208601614086565b80840191505092915050565b600061543482856153f7565b915061544082846153f7565b91508190509392505050565b7f4f776e61626c653a206e6577206f776e657220697320746865207a65726f206160008201527f6464726573730000000000000000000000000000000000000000000000000000602082015250565b60006154a8602683614075565b91506154b38261544c565b604082019050919050565b600060208201905081810360008301526154d78161549b565b9050919050565b7f4e616d652063616e6e6f7420626520656d707479000000000000000000000000600082015250565b6000615514601483614075565b915061551f826154de565b602082019050919050565b6000602082019050818103600083015261554381615507565b9050919050565b7f4174206c65617374206f6e6520696d6167652069732072657175697265640000600082015250565b6000615580601e83614075565b915061558b8261554a565b602082019050919050565b600060208201905081810360008301526155af81615573565b9050919050565b7f4d6178696d756d20313020696d6167657320616c6c6f77656400000000000000600082015250565b60006155ec601983614075565b91506155f7826155b6565b602082019050919050565b6000602082019050818103600083015261561b816155df565b9050919050565b7f43617465676f72792063616e6e6f7420626520656d7074790000000000000000600082015250565b6000615658601883614075565b915061566382615622565b602082019050919050565b600060208201905081810360008301526156878161564b565b9050919050565b7f4465736372697074696f6e2063616e6e6f7420626520656d7074790000000000600082015250565b60006156c4601b83614075565b91506156cf8261568e565b602082019050919050565b600060208201905081810360008301526156f3816156b7565b9050919050565b7f4c6f636174696f6e2063616e6e6f7420626520656d7074790000000000000000600082015250565b6000615730601883614075565b915061573b826156fa565b602082019050919050565b6000602082019050818103600083015261575f81615723565b9050919050565b7f436974792063616e6e6f7420626520656d707479000000000000000000000000600082015250565b600061579c601483614075565b91506157a782615766565b602082019050919050565b600060208201905081810360008301526157cb8161578f565b9050919050565b7f53746174652063616e6e6f7420626520656d7074790000000000000000000000600082015250565b6000615808601583614075565b9150615813826157d2565b602082019050919050565b60006020820190508181036000830152615837816157fb565b9050919050565b7f436f756e7472792063616e6e6f7420626520656d707479000000000000000000600082015250565b6000615874601783614075565b915061587f8261583e565b602082019050919050565b600060208201905081810360008301526158a381615867565b9050919050565b7f5a697020436f64652063616e6e6f7420626520656d7074790000000000000000600082015250565b60006158e0601883614075565b91506158eb826158aa565b602082019050919050565b6000602082019050818103600083015261590f816158d3565b9050919050565b7f426564726f6f6d2063616e6e6f74206265207a65726f206f7220656d70747900600082015250565b600061594c601f83614075565b915061595782615916565b602082019050919050565b6000602082019050818103600083015261597b8161593f565b9050919050565b7f42617468726f6f6d2063616e6e6f74206265207a65726f206f7220656d707479600082015250565b60006159b8602083614075565b91506159c382615982565b602082019050919050565b600060208201905081810360008301526159e7816159ab565b9050919050565b7f59656172206275696c742063616e6e6f74206265207a65726f206f7220656d7060008201527f7479000000000000000000000000000000000000000000000000000000000000602082015250565b6000615a4a602283614075565b9150615a55826159ee565b604082019050919050565b60006020820190508181036000830152615a7981615a3d565b9050919050565b7f486f7573652073697a652063616e6e6f74206265207a65726f206f7220656d7060008201527f7479000000000000000000000000000000000000000000000000000000000000602082015250565b6000615adc602283614075565b9150615ae782615a80565b604082019050919050565b60006020820190508181036000830152615b0b81615acf565b9050919050565b7f5072696365206d7573742062652067726561746572207468616e207a65726f00600082015250565b6000615b48601f83614075565b9150615b5382615b12565b602082019050919050565b60006020820190508181036000830152615b7781615b3b565b9050919050565b7f496d6167652055524c2063616e6e6f7420626520656d70747900000000000000600082015250565b6000615bb4601983614075565b9150615bbf82615b7e565b602082019050919050565b60006020820190508181036000830152615be381615ba7565b9050919050565b60008190508160005260206000209050919050565b60006020601f8301049050919050565b600082821b905092915050565b600060088302615c4c7fffffffffffffffffffffffffffffffffffffffffffffffffffffffffffffffff82615c0f565b615c568683615c0f565b95508019841693508086168417925050509392505050565b6000819050919050565b6000615c93615c8e615c898461411c565b615c6e565b61411c565b9050919050565b6000819050919050565b615cad83615c78565b615cc1615cb982615c9a565b848454615c1c565b825550505050565b600090565b615cd6615cc9565b615ce1818484615ca4565b505050565b5b81811015615d0557615cfa600082615cce565b600181019050615ce7565b5050565b601f821115615d4a57615d1b81615bea565b615d2484615bff565b81016020851015615d33578190505b615d47615d3f85615bff565b830182615ce6565b50505b505050565b600082821c905092915050565b6000615d6d60001984600802615d4f565b1980831691505092915050565b6000615d868383615d5c565b9150826002028217905092915050565b615d9f8261406a565b67ffffffffffffffff811115615db857615db761490c565b5b615dc28254614f89565b615dcd828285615d09565b600060209050601f831160018114615e005760008415615dee578287015190505b615df88582615d7a565b865550615e60565b601f198416615e0e86615bea565b60005b82811015615e3657848901518255600182019150602085019450602081019050615e11565b86831015615e535784890151615e4f601f891682615d5c565b8355505b6001600288020188555050505b505050505050565b7f4552433732313a207472616e736665722066726f6d20696e636f72726563742060008201527f6f776e6572000000000000000000000000000000000000000000000000000000602082015250565b6000615ec4602583614075565b9150615ecf82615e68565b604082019050919050565b60006020820190508181036000830152615ef381615eb7565b9050919050565b7f4552433732313a207472616e7366657220746f20746865207a65726f2061646460008201527f7265737300000000000000000000000000000000000000000000000000000000602082015250565b6000615f56602483614075565b9150615f6182615efa565b604082019050919050565b60006020820190508181036000830152615f8581615f49565b9050919050565b7f496e73756666696369656e74207061796d656e74000000000000000000000000600082015250565b6000615fc2601483614075565b9150615fcd82615f8c565b602082019050919050565b60006020820190508181036000830152615ff181615fb5565b9050919050565b7f50726f706572747920686173206265656e20736f6c6400000000000000000000600082015250565b600061602e601683614075565b915061603982615ff8565b602082019050919050565b6000602082019050818103600083015261605d81616021565b9050919050565b600061606f8261411c565b915061607a8361411c565b92508282026160888161411c565b9150828204841483151761609f5761609e615248565b5b5092915050565b7f4e487b7100000000000000000000000000000000000000000000000000000000600052601260045260246000fd5b60006160e08261411c565b91506160eb8361411c565b9250826160fb576160fa6160a6565b5b828204905092915050565b60006161118261411c565b915061611c8361411c565b925082820390508181111561613457616133615248565b5b92915050565b7f4f776e61626c653a2063616c6c6572206973206e6f7420746865206f776e6572600082015250565b6000616170602083614075565b915061617b8261613a565b602082019050919050565b6000602082019050818103600083015261619f81616163565b9050919050565b7f4552433732313a20617070726f766520746f2063616c6c657200000000000000600082015250565b60006161dc601983614075565b91506161e7826161a6565b602082019050919050565b6000602082019050818103600083015261620b816161cf565b9050919050565b7f4552433732313a207472616e7366657220746f206e6f6e20455243373231526560008201527f63656976657220696d706c656d656e7465720000000000000000000000000000602082015250565b600061626e603283614075565b915061627982616212565b604082019050919050565b6000602082019050818103600083015261629d81616261565b9050919050565b600081905092915050565b50565b60006162bf6000836162a4565b91506162ca826162af565b600082019050919050565b60006162e0826162b2565b9150819050919050565b600081519050919050565b600082825260208201905092915050565b6000616311826162ea565b61631b81856162f5565b935061632b818560208601614086565b616334816140b0565b840191505092915050565b600060808201905061635460008301876141b1565b61636160208301866141b1565b61636e604083018561486c565b81810360608301526163808184616306565b905095945050505050565b60008151905061639a81613fdb565b92915050565b6000602082840312156163b6576163b5613fa5565b5b60006163c48482850161638b565b91505092915050565b7f4552433732313a206d696e7420746f20746865207a65726f2061646472657373600082015250565b6000616403602083614075565b915061640e826163cd565b602082019050919050565b60006020820190508181036000830152616432816163f6565b9050919050565b7f4552433732313a20746f6b656e20616c7265616479206d696e74656400000000600082015250565b600061646f601c83614075565b915061647a82616439565b602082019050919050565b6000602082019050818103600083015261649e81616462565b905091905056fea26469706673582212206cb76b4363455d8e0ed062523d2ce01d7c9e0cc61024907f413ecd83a214c5b864736f6c634300081c0033",
  "linkReferences": {},
  "deployedLinkReferences": {}
}