{
  "_format": "hh-sol-artifact-1",
  "contractName": "Estateta",
  "sourceName": "contracts/Estateta.sol",
  "abi": [
    {
      "inputs": [
        {
          "internalType": "address",
          "name": "initialOwner",
          "type": "address"
        },
        {
          "internalType": "uint256",
          "name": "_pct",
          "type": "uint256"
        }
      ],
      "stateMutability": "nonpayable",
      "type": "constructor"
    },
    {
      "inputs": [
        {
          "internalType": "address",
          "name": "sender",
          "type": "address"
        },
        {
          "internalType": "uint256",
          "name": "tokenId",
          "type": "uint256"
        },
        {
          "internalType": "address",
          "name": "owner",
          "type": "address"
        }
      ],
      "name": "ERC721IncorrectOwner",
      "type": "error"
    },
    {
      "inputs": [
        {
          "internalType": "address",
          "name": "operator",
          "type": "address"
        },
        {
          "internalType": "uint256",
          "name": "tokenId",
          "type": "uint256"
        }
      ],
      "name": "ERC721InsufficientApproval",
      "type": "error"
    },
    {
      "inputs": [
        {
          "internalType": "address",
          "name": "approver",
          "type": "address"
        }
      ],
      "name": "ERC721InvalidApprover",
      "type": "error"
    },
    {
      "inputs": [
        {
          "internalType": "address",
          "name": "operator",
          "type": "address"
        }
      ],
      "name": "ERC721InvalidOperator",
      "type": "error"
    },
    {
      "inputs": [
        {
          "internalType": "address",
          "name": "owner",
          "type": "address"
        }
      ],
      "name": "ERC721InvalidOwner",
      "type": "error"
    },
    {
      "inputs": [
        {
          "internalType": "address",
          "name": "receiver",
          "type": "address"
        }
      ],
      "name": "ERC721InvalidReceiver",
      "type": "error"
    },
    {
      "inputs": [
        {
          "internalType": "address",
          "name": "sender",
          "type": "address"
        }
      ],
      "name": "ERC721InvalidSender",
      "type": "error"
    },
    {
      "inputs": [
        {
          "internalType": "uint256",
          "name": "tokenId",
          "type": "uint256"
        }
      ],
      "name": "ERC721NonexistentToken",
      "type": "error"
    },
    {
      "inputs": [
        {
          "internalType": "address",
          "name": "owner",
          "type": "address"
        }
      ],
      "name": "OwnableInvalidOwner",
      "type": "error"
    },
    {
      "inputs": [
        {
          "internalType": "address",
          "name": "account",
          "type": "address"
        }
      ],
      "name": "OwnableUnauthorizedAccount",
      "type": "error"
    },
    {
      "inputs": [],
      "name": "ReentrancyGuardReentrantCall",
      "type": "error"
    },
    {
      "anonymous": false,
      "inputs": [
        {
          "indexed": true,
          "internalType": "address",
          "name": "owner",
          "type": "address"
        },
        {
          "indexed": true,
          "internalType": "address",
          "name": "approved",
          "type": "address"
        },
        {
          "indexed": true,
          "internalType": "uint256",
          "name": "tokenId",
          "type": "uint256"
        }
      ],
      "name": "Approval",
      "type": "event"
    },
    {
      "anonymous": false,
      "inputs": [
        {
          "indexed": true,
          "internalType": "address",
          "name": "owner",
          "type": "address"
        },
        {
          "indexed": true,
          "internalType": "address",
          "name": "operator",
          "type": "address"
        },
        {
          "indexed": false,
          "internalType": "bool",
          "name": "approved",
          "type": "bool"
        }
      ],
      "name": "ApprovalForAll",
      "type": "event"
    },
    {
      "anonymous": false,
      "inputs": [
        {
          "indexed": true,
          "internalType": "uint256",
          "name": "propertyId",
          "type": "uint256"
        },
        {
          "indexed": true,
          "internalType": "address",
          "name": "buyer",
          "type": "address"
        },
        {
          "indexed": false,
          "internalType": "uint256",
          "name": "shares",
          "type": "uint256"
        }
      ],
      "name": "FractionPurchased",
      "type": "event"
    },
    {
      "anonymous": false,
      "inputs": [
        {
          "indexed": true,
          "internalType": "uint256",
          "name": "propertyId",
          "type": "uint256"
        },
        {
          "indexed": true,
          "internalType": "address",
          "name": "seller",
          "type": "address"
        },
        {
          "indexed": true,
          "internalType": "address",
          "name": "buyer",
          "type": "address"
        },
        {
          "indexed": false,
          "internalType": "uint256",
          "name": "shares",
          "type": "uint256"
        },
        {
          "indexed": false,
          "internalType": "uint256",
          "name": "price",
          "type": "uint256"
        }
      ],
      "name": "FractionResold",
      "type": "event"
    },
    {
      "anonymous": false,
      "inputs": [
        {
          "indexed": true,
          "internalType": "address",
          "name": "previousOwner",
          "type": "address"
        },
        {
          "indexed": true,
          "internalType": "address",
          "name": "newOwner",
          "type": "address"
        }
      ],
      "name": "OwnershipTransferred",
      "type": "event"
    },
    {
      "anonymous": false,
      "inputs": [
        {
          "indexed": true,
          "internalType": "uint256",
          "name": "id",
          "type": "uint256"
        },
        {
          "indexed": true,
          "internalType": "address",
          "name": "owner",
          "type": "address"
        },
        {
          "indexed": false,
          "internalType": "uint256",
          "name": "price",
          "type": "uint256"
        }
      ],
      "name": "PropertyCreated",
      "type": "event"
    },
    {
      "anonymous": false,
      "inputs": [
        {
          "indexed": true,
          "internalType": "uint256",
          "name": "id",
          "type": "uint256"
        }
      ],
      "name": "PropertyDeleted",
      "type": "event"
    },
    {
      "anonymous": false,
      "inputs": [
        {
          "indexed": true,
          "internalType": "uint256",
          "name": "id",
          "type": "uint256"
        },
        {
          "indexed": true,
          "internalType": "address",
          "name": "oldOwner",
          "type": "address"
        },
        {
          "indexed": true,
          "internalType": "address",
          "name": "newOwner",
          "type": "address"
        },
        {
          "indexed": false,
          "internalType": "uint256",
          "name": "price",
          "type": "uint256"
        }
      ],
      "name": "PropertySold",
      "type": "event"
    },
    {
      "anonymous": false,
      "inputs": [
        {
          "indexed": true,
          "internalType": "uint256",
          "name": "id",
          "type": "uint256"
        }
      ],
      "name": "PropertyUpdated",
      "type": "event"
    },
    {
      "anonymous": false,
      "inputs": [
        {
          "indexed": true,
          "internalType": "uint256",
          "name": "propertyId",
          "type": "uint256"
        },
        {
          "indexed": true,
          "internalType": "uint256",
          "name": "reviewId",
          "type": "uint256"
        }
      ],
      "name": "ReviewCreated",
      "type": "event"
    },
    {
      "anonymous": false,
      "inputs": [
        {
          "indexed": true,
          "internalType": "uint256",
          "name": "propertyId",
          "type": "uint256"
        },
        {
          "indexed": true,
          "internalType": "uint256",
          "name": "reviewId",
          "type": "uint256"
        }
      ],
      "name": "ReviewDeleted",
      "type": "event"
    },
    {
      "anonymous": false,
      "inputs": [
        {
          "indexed": true,
          "internalType": "uint256",
          "name": "propertyId",
          "type": "uint256"
        },
        {
          "indexed": true,
          "internalType": "uint256",
          "name": "reviewId",
          "type": "uint256"
        }
      ],
      "name": "ReviewUpdated",
      "type": "event"
    },
    {
      "anonymous": false,
      "inputs": [
        {
          "indexed": true,
          "internalType": "address",
          "name": "from",
          "type": "address"
        },
        {
          "indexed": true,
          "internalType": "address",
          "name": "to",
          "type": "address"
        },
        {
          "indexed": true,
          "internalType": "uint256",
          "name": "tokenId",
          "type": "uint256"
        }
      ],
      "name": "Transfer",
      "type": "event"
    },
    {
      "inputs": [
        {
          "internalType": "address",
          "name": "to",
          "type": "address"
        },
        {
          "internalType": "uint256",
          "name": "tokenId",
          "type": "uint256"
        }
      ],
      "name": "approve",
      "outputs": [],
      "stateMutability": "nonpayable",
      "type": "function"
    },
    {
      "inputs": [
        {
          "internalType": "address",
          "name": "owner",
          "type": "address"
        }
      ],
      "name": "balanceOf",
      "outputs": [
        {
          "internalType": "uint256",
          "name": "",
          "type": "uint256"
        }
      ],
      "stateMutability": "view",
      "type": "function"
    },
    {
      "inputs": [
        {
          "internalType": "uint256",
          "name": "id",
          "type": "uint256"
        }
      ],
      "name": "buyProperty",
      "outputs": [],
      "stateMutability": "payable",
      "type": "function"
    },
    {
      "inputs": [
        {
          "internalType": "uint256",
          "name": "propertyId",
          "type": "uint256"
        },
        {
          "internalType": "address",
          "name": "from",
          "type": "address"
        },
        {
          "internalType": "uint256",
          "name": "shareCount",
          "type": "uint256"
        }
      ],
      "name": "buyResaleShares",
      "outputs": [],
      "stateMutability": "payable",
      "type": "function"
    },
    {
      "inputs": [
        {
          "internalType": "uint256",
          "name": "propertyId",
          "type": "uint256"
        },
        {
          "internalType": "uint256",
          "name": "sharesToBuy",
          "type": "uint256"
        }
      ],
      "name": "buyShares",
      "outputs": [],
      "stateMutability": "payable",
      "type": "function"
    },
    {
      "inputs": [
        {
          "components": [
            {
              "internalType": "uint256",
              "name": "id",
              "type": "uint256"
            },
            {
              "internalType": "address",
              "name": "owner",
              "type": "address"
            },
            {
              "internalType": "string",
              "name": "name",
              "type": "string"
            },
            {
              "internalType": "string",
              "name": "fullLegalName",
              "type": "string"
            },
            {
              "internalType": "string",
              "name": "propertyDocument",
              "type": "string"
            },
            {
              "internalType": "string[]",
              "name": "images",
              "type": "string[]"
            },
            {
              "internalType": "string",
              "name": "category",
              "type": "string"
            },
            {
              "internalType": "string",
              "name": "description",
              "type": "string"
            },
            {
              "internalType": "string",
              "name": "location",
              "type": "string"
            },
            {
              "internalType": "string",
              "name": "city",
              "type": "string"
            },
            {
              "internalType": "string",
              "name": "state",
              "type": "string"
            },
            {
              "internalType": "string",
              "name": "country",
              "type": "string"
            },
            {
              "internalType": "uint256",
              "name": "zipCode",
              "type": "uint256"
            },
            {
              "internalType": "uint256",
              "name": "bedroom",
              "type": "uint256"
            },
            {
              "internalType": "uint256",
              "name": "bathroom",
              "type": "uint256"
            },
            {
              "internalType": "uint256",
              "name": "built",
              "type": "uint256"
            },
            {
              "internalType": "uint256",
              "name": "squarefit",
              "type": "uint256"
            },
            {
              "internalType": "uint256",
              "name": "price",
              "type": "uint256"
            },
            {
              "internalType": "bool",
              "name": "sold",
              "type": "bool"
            },
            {
              "internalType": "bool",
              "name": "deleted",
              "type": "bool"
            },
            {
              "internalType": "bool",
              "name": "verified",
              "type": "bool"
            },
            {
              "internalType": "bool",
              "name": "pending",
              "type": "bool"
            },
            {
              "internalType": "bool",
              "name": "isFractionalized",
              "type": "bool"
            },
            {
              "internalType": "uint256",
              "name": "totalShares",
              "type": "uint256"
            }
          ],
          "internalType": "struct Estateta.PropertyStruct",
          "name": "property",
          "type": "tuple"
        },
        {
          "internalType": "bool",
          "name": "isFractionalized",
          "type": "bool"
        },
        {
          "internalType": "uint256",
          "name": "totalShares",
          "type": "uint256"
        }
      ],
      "name": "createProperty",
      "outputs": [],
      "stateMutability": "nonpayable",
      "type": "function"
    },
    {
      "inputs": [],
      "name": "getAllProperties",
      "outputs": [
        {
          "components": [
            {
              "internalType": "uint256",
              "name": "id",
              "type": "uint256"
            },
            {
              "internalType": "address",
              "name": "owner",
              "type": "address"
            },
            {
              "internalType": "string",
              "name": "name",
              "type": "string"
            },
            {
              "internalType": "string",
              "name": "fullLegalName",
              "type": "string"
            },
            {
              "internalType": "string",
              "name": "propertyDocument",
              "type": "string"
            },
            {
              "internalType": "string[]",
              "name": "images",
              "type": "string[]"
            },
            {
              "internalType": "string",
              "name": "category",
              "type": "string"
            },
            {
              "internalType": "string",
              "name": "description",
              "type": "string"
            },
            {
              "internalType": "string",
              "name": "location",
              "type": "string"
            },
            {
              "internalType": "string",
              "name": "city",
              "type": "string"
            },
            {
              "internalType": "string",
              "name": "state",
              "type": "string"
            },
            {
              "internalType": "string",
              "name": "country",
              "type": "string"
            },
            {
              "internalType": "uint256",
              "name": "zipCode",
              "type": "uint256"
            },
            {
              "internalType": "uint256",
              "name": "bedroom",
              "type": "uint256"
            },
            {
              "internalType": "uint256",
              "name": "bathroom",
              "type": "uint256"
            },
            {
              "internalType": "uint256",
              "name": "built",
              "type": "uint256"
            },
            {
              "internalType": "uint256",
              "name": "squarefit",
              "type": "uint256"
            },
            {
              "internalType": "uint256",
              "name": "price",
              "type": "uint256"
            },
            {
              "internalType": "bool",
              "name": "sold",
              "type": "bool"
            },
            {
              "internalType": "bool",
              "name": "deleted",
              "type": "bool"
            },
            {
              "internalType": "bool",
              "name": "verified",
              "type": "bool"
            },
            {
              "internalType": "bool",
              "name": "pending",
              "type": "bool"
            },
            {
              "internalType": "bool",
              "name": "isFractionalized",
              "type": "bool"
            },
            {
              "internalType": "uint256",
              "name": "totalShares",
              "type": "uint256"
            }
          ],
          "internalType": "struct Estateta.PropertyStruct[]",
          "name": "myProperties",
          "type": "tuple[]"
        }
      ],
      "stateMutability": "view",
      "type": "function"
    },
    {
      "inputs": [
        {
          "internalType": "uint256",
          "name": "tokenId",
          "type": "uint256"
        }
      ],
      "name": "getApproved",
      "outputs": [
        {
          "internalType": "address",
          "name": "",
          "type": "address"
        }
      ],
      "stateMutability": "view",
      "type": "function"
    },
    {
      "inputs": [],
      "name": "getMyProperties",
      "outputs": [
        {
          "components": [
            {
              "internalType": "uint256",
              "name": "id",
              "type": "uint256"
            },
            {
              "internalType": "address",
              "name": "owner",
              "type": "address"
            },
            {
              "internalType": "string",
              "name": "name",
              "type": "string"
            },
            {
              "internalType": "string",
              "name": "fullLegalName",
              "type": "string"
            },
            {
              "internalType": "string",
              "name": "propertyDocument",
              "type": "string"
            },
            {
              "internalType": "string[]",
              "name": "images",
              "type": "string[]"
            },
            {
              "internalType": "string",
              "name": "category",
              "type": "string"
            },
            {
              "internalType": "string",
              "name": "description",
              "type": "string"
            },
            {
              "internalType": "string",
              "name": "location",
              "type": "string"
            },
            {
              "internalType": "string",
              "name": "city",
              "type": "string"
            },
            {
              "internalType": "string",
              "name": "state",
              "type": "string"
            },
            {
              "internalType": "string",
              "name": "country",
              "type": "string"
            },
            {
              "internalType": "uint256",
              "name": "zipCode",
              "type": "uint256"
            },
            {
              "internalType": "uint256",
              "name": "bedroom",
              "type": "uint256"
            },
            {
              "internalType": "uint256",
              "name": "bathroom",
              "type": "uint256"
            },
            {
              "internalType": "uint256",
              "name": "built",
              "type": "uint256"
            },
            {
              "internalType": "uint256",
              "name": "squarefit",
              "type": "uint256"
            },
            {
              "internalType": "uint256",
              "name": "price",
              "type": "uint256"
            },
            {
              "internalType": "bool",
              "name": "sold",
              "type": "bool"
            },
            {
              "internalType": "bool",
              "name": "deleted",
              "type": "bool"
            },
            {
              "internalType": "bool",
              "name": "verified",
              "type": "bool"
            },
            {
              "internalType": "bool",
              "name": "pending",
              "type": "bool"
            },
            {
              "internalType": "bool",
              "name": "isFractionalized",
              "type": "bool"
            },
            {
              "internalType": "uint256",
              "name": "totalShares",
              "type": "uint256"
            }
          ],
          "internalType": "struct Estateta.PropertyStruct[]",
          "name": "myProperties",
          "type": "tuple[]"
        }
      ],
      "stateMutability": "view",
      "type": "function"
    },
    {
      "inputs": [
        {
          "internalType": "uint256",
          "name": "id",
          "type": "uint256"
        }
      ],
      "name": "getProperty",
      "outputs": [
        {
          "components": [
            {
              "internalType": "uint256",
              "name": "id",
              "type": "uint256"
            },
            {
              "internalType": "address",
              "name": "owner",
              "type": "address"
            },
            {
              "internalType": "string",
              "name": "name",
              "type": "string"
            },
            {
              "internalType": "string",
              "name": "fullLegalName",
              "type": "string"
            },
            {
              "internalType": "string",
              "name": "propertyDocument",
              "type": "string"
            },
            {
              "internalType": "string[]",
              "name": "images",
              "type": "string[]"
            },
            {
              "internalType": "string",
              "name": "category",
              "type": "string"
            },
            {
              "internalType": "string",
              "name": "description",
              "type": "string"
            },
            {
              "internalType": "string",
              "name": "location",
              "type": "string"
            },
            {
              "internalType": "string",
              "name": "city",
              "type": "string"
            },
            {
              "internalType": "string",
              "name": "state",
              "type": "string"
            },
            {
              "internalType": "string",
              "name": "country",
              "type": "string"
            },
            {
              "internalType": "uint256",
              "name": "zipCode",
              "type": "uint256"
            },
            {
              "internalType": "uint256",
              "name": "bedroom",
              "type": "uint256"
            },
            {
              "internalType": "uint256",
              "name": "bathroom",
              "type": "uint256"
            },
            {
              "internalType": "uint256",
              "name": "built",
              "type": "uint256"
            },
            {
              "internalType": "uint256",
              "name": "squarefit",
              "type": "uint256"
            },
            {
              "internalType": "uint256",
              "name": "price",
              "type": "uint256"
            },
            {
              "internalType": "bool",
              "name": "sold",
              "type": "bool"
            },
            {
              "internalType": "bool",
              "name": "deleted",
              "type": "bool"
            },
            {
              "internalType": "bool",
              "name": "verified",
              "type": "bool"
            },
            {
              "internalType": "bool",
              "name": "pending",
              "type": "bool"
            },
            {
              "internalType": "bool",
              "name": "isFractionalized",
              "type": "bool"
            },
            {
              "internalType": "uint256",
              "name": "totalShares",
              "type": "uint256"
            }
          ],
          "internalType": "struct Estateta.PropertyStruct",
          "name": "",
          "type": "tuple"
        }
      ],
      "stateMutability": "view",
      "type": "function"
    },
    {
      "inputs": [
        {
          "internalType": "address",
          "name": "owner",
          "type": "address"
        },
        {
          "internalType": "address",
          "name": "operator",
          "type": "address"
        }
      ],
      "name": "isApprovedForAll",
      "outputs": [
        {
          "internalType": "bool",
          "name": "",
          "type": "bool"
        }
      ],
      "stateMutability": "view",
      "type": "function"
    },
    {
      "inputs": [
        {
          "internalType": "uint256",
          "name": "propertyId",
          "type": "uint256"
        },
        {
          "internalType": "uint256",
          "name": "shareCount",
          "type": "uint256"
        },
        {
          "internalType": "uint256",
          "name": "pricePerShare",
          "type": "uint256"
        }
      ],
      "name": "listSharesForSale",
      "outputs": [],
      "stateMutability": "nonpayable",
      "type": "function"
    },
    {
      "inputs": [],
      "name": "name",
      "outputs": [
        {
          "internalType": "string",
          "name": "",
          "type": "string"
        }
      ],
      "stateMutability": "view",
      "type": "function"
    },
    {
      "inputs": [],
      "name": "owner",
      "outputs": [
        {
          "internalType": "address",
          "name": "",
          "type": "address"
        }
      ],
      "stateMutability": "view",
      "type": "function"
    },
    {
      "inputs": [
        {
          "internalType": "uint256",
          "name": "tokenId",
          "type": "uint256"
        }
      ],
      "name": "ownerOf",
      "outputs": [
        {
          "internalType": "address",
          "name": "",
          "type": "address"
        }
      ],
      "stateMutability": "view",
      "type": "function"
    },
    {
      "inputs": [
        {
          "internalType": "uint256",
          "name": "",
          "type": "uint256"
        },
        {
          "internalType": "address",
          "name": "",
          "type": "address"
        }
      ],
      "name": "propertyShares",
      "outputs": [
        {
          "internalType": "uint256",
          "name": "",
          "type": "uint256"
        }
      ],
      "stateMutability": "view",
      "type": "function"
    },
    {
      "inputs": [],
      "name": "renounceOwnership",
      "outputs": [],
      "stateMutability": "nonpayable",
      "type": "function"
    },
    {
      "inputs": [
        {
          "internalType": "address",
          "name": "from",
          "type": "address"
        },
        {
          "internalType": "address",
          "name": "to",
          "type": "address"
        },
        {
          "internalType": "uint256",
          "name": "tokenId",
          "type": "uint256"
        }
      ],
      "name": "safeTransferFrom",
      "outputs": [],
      "stateMutability": "nonpayable",
      "type": "function"
    },
    {
      "inputs": [
        {
          "internalType": "address",
          "name": "from",
          "type": "address"
        },
        {
          "internalType": "address",
          "name": "to",
          "type": "address"
        },
        {
          "internalType": "uint256",
          "name": "tokenId",
          "type": "uint256"
        },
        {
          "internalType": "bytes",
          "name": "data",
          "type": "bytes"
        }
      ],
      "name": "safeTransferFrom",
      "outputs": [],
      "stateMutability": "nonpayable",
      "type": "function"
    },
    {
      "inputs": [
        {
          "internalType": "address",
          "name": "operator",
          "type": "address"
        },
        {
          "internalType": "bool",
          "name": "approved",
          "type": "bool"
        }
      ],
      "name": "setApprovalForAll",
      "outputs": [],
      "stateMutability": "nonpayable",
      "type": "function"
    },
    {
      "inputs": [
        {
          "internalType": "uint256",
          "name": "propertyId",
          "type": "uint256"
        },
        {
          "internalType": "bool",
          "name": "_verified",
          "type": "bool"
        }
      ],
      "name": "setPropertyVerification",
      "outputs": [],
      "stateMutability": "nonpayable",
      "type": "function"
    },
    {
      "inputs": [
        {
          "internalType": "uint256",
          "name": "",
          "type": "uint256"
        },
        {
          "internalType": "address",
          "name": "",
          "type": "address"
        }
      ],
      "name": "shareSalePrice",
      "outputs": [
        {
          "internalType": "uint256",
          "name": "",
          "type": "uint256"
        }
      ],
      "stateMutability": "view",
      "type": "function"
    },
    {
      "inputs": [
        {
          "internalType": "uint256",
          "name": "",
          "type": "uint256"
        }
      ],
      "name": "sharesSold",
      "outputs": [
        {
          "internalType": "uint256",
          "name": "",
          "type": "uint256"
        }
      ],
      "stateMutability": "view",
      "type": "function"
    },
    {
      "inputs": [
        {
          "internalType": "bytes4",
          "name": "interfaceId",
          "type": "bytes4"
        }
      ],
      "name": "supportsInterface",
      "outputs": [
        {
          "internalType": "bool",
          "name": "",
          "type": "bool"
        }
      ],
      "stateMutability": "view",
      "type": "function"
    },
    {
      "inputs": [],
      "name": "symbol",
      "outputs": [
        {
          "internalType": "string",
          "name": "",
          "type": "string"
        }
      ],
      "stateMutability": "view",
      "type": "function"
    },
    {
      "inputs": [
        {
          "internalType": "uint256",
          "name": "tokenId",
          "type": "uint256"
        }
      ],
      "name": "tokenURI",
      "outputs": [
        {
          "internalType": "string",
          "name": "",
          "type": "string"
        }
      ],
      "stateMutability": "view",
      "type": "function"
    },
    {
      "inputs": [
        {
          "internalType": "address",
          "name": "from",
          "type": "address"
        },
        {
          "internalType": "address",
          "name": "to",
          "type": "address"
        },
        {
          "internalType": "uint256",
          "name": "tokenId",
          "type": "uint256"
        }
      ],
      "name": "transferFrom",
      "outputs": [],
      "stateMutability": "nonpayable",
      "type": "function"
    },
    {
      "inputs": [
        {
          "internalType": "address",
          "name": "newOwner",
          "type": "address"
        }
      ],
      "name": "transferOwnership",
      "outputs": [],
      "stateMutability": "nonpayable",
      "type": "function"
    }
  ],
  "bytecode": "0x608060405234801561001057600080fd5b50604051617ca4380380617ca4833981810160405281019061003291906102b6565b6040518060400160405280600881526020017f45737461746574610000000000000000000000000000000000000000000000008152506040518060400160405280600381526020017f455441000000000000000000000000000000000000000000000000000000000081525083600073ffffffffffffffffffffffffffffffffffffffff168173ffffffffffffffffffffffffffffffffffffffff16036101115760006040517f1e4fbdf70000000000000000000000000000000000000000000000000000000081526004016101089190610305565b60405180910390fd5b6101208161015960201b60201c565b5081600190816101309190610566565b5080600290816101409190610566565b505050600160078190555080600b819055505050610638565b60008060009054906101000a900473ffffffffffffffffffffffffffffffffffffffff169050816000806101000a81548173ffffffffffffffffffffffffffffffffffffffff021916908373ffffffffffffffffffffffffffffffffffffffff1602179055508173ffffffffffffffffffffffffffffffffffffffff168173ffffffffffffffffffffffffffffffffffffffff167f8be0079c531659141344cd1fd0a4f28419497f9722a3daafe3b4186f6b6457e060405160405180910390a35050565b600080fd5b600073ffffffffffffffffffffffffffffffffffffffff82169050919050565b600061024d82610222565b9050919050565b61025d81610242565b811461026857600080fd5b50565b60008151905061027a81610254565b92915050565b6000819050919050565b61029381610280565b811461029e57600080fd5b50565b6000815190506102b08161028a565b92915050565b600080604083850312156102cd576102cc61021d565b5b60006102db8582860161026b565b92505060206102ec858286016102a1565b9150509250929050565b6102ff81610242565b82525050565b600060208201905061031a60008301846102f6565b92915050565b600081519050919050565b7f4e487b7100000000000000000000000000000000000000000000000000000000600052604160045260246000fd5b7f4e487b7100000000000000000000000000000000000000000000000000000000600052602260045260246000fd5b600060028204905060018216806103a157607f821691505b6020821081036103b4576103b361035a565b5b50919050565b60008190508160005260206000209050919050565b60006020601f8301049050919050565b600082821b905092915050565b60006008830261041c7fffffffffffffffffffffffffffffffffffffffffffffffffffffffffffffffff826103df565b61042686836103df565b95508019841693508086168417925050509392505050565b6000819050919050565b600061046361045e61045984610280565b61043e565b610280565b9050919050565b6000819050919050565b61047d83610448565b6104916104898261046a565b8484546103ec565b825550505050565b600090565b6104a6610499565b6104b1818484610474565b505050565b5b818110156104d5576104ca60008261049e565b6001810190506104b7565b5050565b601f82111561051a576104eb816103ba565b6104f4846103cf565b81016020851015610503578190505b61051761050f856103cf565b8301826104b6565b50505b505050565b600082821c905092915050565b600061053d6000198460080261051f565b1980831691505092915050565b6000610556838361052c565b9150826002028217905092915050565b61056f82610320565b67ffffffffffffffff8111156105885761058761032b565b5b6105928254610389565b61059d8282856104d9565b600060209050601f8311600181146105d057600084156105be578287015190505b6105c8858261054a565b865550610630565b601f1984166105de866103ba565b60005b82811015610606578489015182556001820191506020850194506020810190506105e1565b86831015610623578489015161061f601f89168261052c565b8355505b6001600288020188555050505b505050505050565b61765d806106476000396000f3fe6080604052600436106101b75760003560e01c806370a08231116100ec578063a2a3ede11161008a578063beebc5da11610064578063beebc5da14610612578063c87b56dd1461062e578063e985e9c51461066b578063f2fde38b146106a8576101b7565b8063a2a3ede1146105a4578063b6821ec1146105cd578063b88d4fde146105e9576101b7565b80638da5cb5b116100c65780638da5cb5b146104fc57806395d89b411461052757806396c0995c14610552578063a22cb4651461057b576101b7565b806370a082311461046b578063715018a6146104a857806373e7800d146104bf576101b7565b806338667c5f1161015957806342842e0e1161013357806342842e0e146103c05780634a954df3146103e95780636352211e146104125780636fa830a61461044f576101b7565b806338667c5f1461032d578063397f79521461036a5780633d51402c14610395576101b7565b8063095ea7b311610195578063095ea7b3146102615780630b03f3be1461028a57806323b872dd146102c757806332665ffb146102f0576101b7565b806301ffc9a7146101bc57806306fdde03146101f9578063081812fc14610224575b600080fd5b3480156101c857600080fd5b506101e360048036038101906101de9190615092565b6106d1565b6040516101f091906150da565b60405180910390f35b34801561020557600080fd5b5061020e6107b3565b60405161021b9190615185565b60405180910390f35b34801561023057600080fd5b5061024b600480360381019061024691906151dd565b610845565b604051610258919061524b565b60405180910390f35b34801561026d57600080fd5b5061028860048036038101906102839190615292565b610861565b005b34801561029657600080fd5b506102b160048036038101906102ac91906152d2565b610877565b6040516102be9190615321565b60405180910390f35b3480156102d357600080fd5b506102ee60048036038101906102e9919061533c565b61089c565b005b3480156102fc57600080fd5b50610317600480360381019061031291906151dd565b61099e565b6040516103249190615707565b60405180910390f35b34801561033957600080fd5b50610354600480360381019061034f91906152d2565b6111b8565b6040516103619190615321565b60405180910390f35b34801561037657600080fd5b5061037f6111dd565b60405161038c9190615a2a565b60405180910390f35b3480156103a157600080fd5b506103aa611b41565b6040516103b79190615a2a565b60405180910390f35b3480156103cc57600080fd5b506103e760048036038101906103e2919061533c565b6123c7565b005b3480156103f557600080fd5b50610410600480360381019061040b9190615fdf565b6123e7565b005b34801561041e57600080fd5b50610439600480360381019061043491906151dd565b612d0a565b604051610446919061524b565b60405180910390f35b610469600480360381019061046491906151dd565b612d1c565b005b34801561047757600080fd5b50610492600480360381019061048d919061604e565b612d41565b60405161049f9190615321565b60405180910390f35b3480156104b457600080fd5b506104bd612dfb565b005b3480156104cb57600080fd5b506104e660048036038101906104e191906151dd565b612e0f565b6040516104f39190615321565b60405180910390f35b34801561050857600080fd5b50610511612e27565b60405161051e919061524b565b60405180910390f35b34801561053357600080fd5b5061053c612e50565b6040516105499190615185565b60405180910390f35b34801561055e57600080fd5b506105796004803603810190610574919061607b565b612ee2565b005b34801561058757600080fd5b506105a2600480360381019061059d91906160bb565b612fab565b005b3480156105b057600080fd5b506105cb60048036038101906105c691906160fb565b612fc1565b005b6105e760048036038101906105e2919061614e565b6130ae565b005b3480156105f557600080fd5b50610610600480360381019061060b9190616242565b6133d9565b005b61062c600480360381019061062791906162c5565b6133fe565b005b34801561063a57600080fd5b50610655600480360381019061065091906151dd565b613748565b6040516106629190615185565b60405180910390f35b34801561067757600080fd5b50610692600480360381019061068d9190616305565b6137b1565b60405161069f91906150da565b60405180910390f35b3480156106b457600080fd5b506106cf60048036038101906106ca919061604e565b613845565b005b60007f80ac58cd000000000000000000000000000000000000000000000000000000007bffffffffffffffffffffffffffffffffffffffffffffffffffffffff1916827bffffffffffffffffffffffffffffffffffffffffffffffffffffffff1916148061079c57507f5b5e139f000000000000000000000000000000000000000000000000000000007bffffffffffffffffffffffffffffffffffffffffffffffffffffffff1916827bffffffffffffffffffffffffffffffffffffffffffffffffffffffff1916145b806107ac57506107ab826138cb565b5b9050919050565b6060600180546107c290616374565b80601f01602080910402602001604051908101604052809291908181526020018280546107ee90616374565b801561083b5780601f106108105761010080835404028352916020019161083b565b820191906000526020600020905b81548152906001019060200180831161081e57829003601f168201915b5050505050905090565b600061085082613935565b5061085a826139bd565b9050919050565b610873828261086e6139fa565b613a02565b5050565b6013602052816000526040600020602052806000526040600020600091509150505481565b600073ffffffffffffffffffffffffffffffffffffffff168273ffffffffffffffffffffffffffffffffffffffff160361090e5760006040517f64a0ae92000000000000000000000000000000000000000000000000000000008152600401610905919061524b565b60405180910390fd5b6000610922838361091d6139fa565b613a14565b90508373ffffffffffffffffffffffffffffffffffffffff168173ffffffffffffffffffffffffffffffffffffffff1614610998578382826040517f64283d7b00000000000000000000000000000000000000000000000000000000815260040161098f939291906163a5565b60405180910390fd5b50505050565b6109a6614e40565b600e600083815260200190815260200160002060009054906101000a900460ff16610a06576040517f08c379a00000000000000000000000000000000000000000000000000000000081526004016109fd90616428565b60405180910390fd5b600c600083815260200190815260200160002060120160019054906101000a900460ff1615610a6a576040517f08c379a0000000000000000000000000000000000000000000000000000000008152600401610a6190616494565b60405180910390fd5b600c600083815260200190815260200160002060405180610300016040529081600082015481526020016001820160009054906101000a900473ffffffffffffffffffffffffffffffffffffffff1673ffffffffffffffffffffffffffffffffffffffff1673ffffffffffffffffffffffffffffffffffffffff168152602001600282018054610af990616374565b80601f0160208091040260200160405190810160405280929190818152602001828054610b2590616374565b8015610b725780601f10610b4757610100808354040283529160200191610b72565b820191906000526020600020905b815481529060010190602001808311610b5557829003601f168201915b50505050508152602001600382018054610b8b90616374565b80601f0160208091040260200160405190810160405280929190818152602001828054610bb790616374565b8015610c045780601f10610bd957610100808354040283529160200191610c04565b820191906000526020600020905b815481529060010190602001808311610be757829003601f168201915b50505050508152602001600482018054610c1d90616374565b80601f0160208091040260200160405190810160405280929190818152602001828054610c4990616374565b8015610c965780601f10610c6b57610100808354040283529160200191610c96565b820191906000526020600020905b815481529060010190602001808311610c7957829003601f168201915b5050505050815260200160058201805480602002602001604051908101604052809291908181526020016000905b82821015610d70578382906000526020600020018054610ce390616374565b80601f0160208091040260200160405190810160405280929190818152602001828054610d0f90616374565b8015610d5c5780601f10610d3157610100808354040283529160200191610d5c565b820191906000526020600020905b815481529060010190602001808311610d3f57829003601f168201915b505050505081526020019060010190610cc4565b505050508152602001600682018054610d8890616374565b80601f0160208091040260200160405190810160405280929190818152602001828054610db490616374565b8015610e015780601f10610dd657610100808354040283529160200191610e01565b820191906000526020600020905b815481529060010190602001808311610de457829003601f168201915b50505050508152602001600782018054610e1a90616374565b80601f0160208091040260200160405190810160405280929190818152602001828054610e4690616374565b8015610e935780601f10610e6857610100808354040283529160200191610e93565b820191906000526020600020905b815481529060010190602001808311610e7657829003601f168201915b50505050508152602001600882018054610eac90616374565b80601f0160208091040260200160405190810160405280929190818152602001828054610ed890616374565b8015610f255780601f10610efa57610100808354040283529160200191610f25565b820191906000526020600020905b815481529060010190602001808311610f0857829003601f168201915b50505050508152602001600982018054610f3e90616374565b80601f0160208091040260200160405190810160405280929190818152602001828054610f6a90616374565b8015610fb75780601f10610f8c57610100808354040283529160200191610fb7565b820191906000526020600020905b815481529060010190602001808311610f9a57829003601f168201915b50505050508152602001600a82018054610fd090616374565b80601f0160208091040260200160405190810160405280929190818152602001828054610ffc90616374565b80156110495780601f1061101e57610100808354040283529160200191611049565b820191906000526020600020905b81548152906001019060200180831161102c57829003601f168201915b50505050508152602001600b8201805461106290616374565b80601f016020809104026020016040519081016040528092919081815260200182805461108e90616374565b80156110db5780601f106110b0576101008083540402835291602001916110db565b820191906000526020600020905b8154815290600101906020018083116110be57829003601f168201915b50505050508152602001600c8201548152602001600d8201548152602001600e8201548152602001600f820154815260200160108201548152602001601182015481526020016012820160009054906101000a900460ff161515151581526020016012820160019054906101000a900460ff161515151581526020016012820160029054906101000a900460ff161515151581526020016012820160039054906101000a900460ff161515151581526020016012820160049054906101000a900460ff161515151581526020016013820154815250509050919050565b6011602052816000526040600020602052806000526040600020600091509150505481565b6060600080600190505b6111f16008613c2e565b81116112b057600c600082815260200190815260200160002060120160019054906101000a900460ff1615801561128957503373ffffffffffffffffffffffffffffffffffffffff16600c600083815260200190815260200160002060010160009054906101000a900473ffffffffffffffffffffffffffffffffffffffff1673ffffffffffffffffffffffffffffffffffffffff16145b1561129d578180611299906164e3565b9250505b80806112a8906164e3565b9150506111e7565b508067ffffffffffffffff8111156112cb576112ca615a51565b5b60405190808252806020026020018201604052801561130457816020015b6112f1614e40565b8152602001906001900390816112e95790505b509150600080600190505b6113196008613c2e565b8111611b3b57600c600082815260200190815260200160002060120160019054906101000a900460ff161580156113b157503373ffffffffffffffffffffffffffffffffffffffff16600c600083815260200190815260200160002060010160009054906101000a900473ffffffffffffffffffffffffffffffffffffffff1673ffffffffffffffffffffffffffffffffffffffff16145b15611b2857600c600082815260200190815260200160002060405180610300016040529081600082015481526020016001820160009054906101000a900473ffffffffffffffffffffffffffffffffffffffff1673ffffffffffffffffffffffffffffffffffffffff1673ffffffffffffffffffffffffffffffffffffffff16815260200160028201805461144590616374565b80601f016020809104026020016040519081016040528092919081815260200182805461147190616374565b80156114be5780601f10611493576101008083540402835291602001916114be565b820191906000526020600020905b8154815290600101906020018083116114a157829003601f168201915b505050505081526020016003820180546114d790616374565b80601f016020809104026020016040519081016040528092919081815260200182805461150390616374565b80156115505780601f1061152557610100808354040283529160200191611550565b820191906000526020600020905b81548152906001019060200180831161153357829003601f168201915b5050505050815260200160048201805461156990616374565b80601f016020809104026020016040519081016040528092919081815260200182805461159590616374565b80156115e25780601f106115b7576101008083540402835291602001916115e2565b820191906000526020600020905b8154815290600101906020018083116115c557829003601f168201915b5050505050815260200160058201805480602002602001604051908101604052809291908181526020016000905b828210156116bc57838290600052602060002001805461162f90616374565b80601f016020809104026020016040519081016040528092919081815260200182805461165b90616374565b80156116a85780601f1061167d576101008083540402835291602001916116a8565b820191906000526020600020905b81548152906001019060200180831161168b57829003601f168201915b505050505081526020019060010190611610565b5050505081526020016006820180546116d490616374565b80601f016020809104026020016040519081016040528092919081815260200182805461170090616374565b801561174d5780601f106117225761010080835404028352916020019161174d565b820191906000526020600020905b81548152906001019060200180831161173057829003601f168201915b5050505050815260200160078201805461176690616374565b80601f016020809104026020016040519081016040528092919081815260200182805461179290616374565b80156117df5780601f106117b4576101008083540402835291602001916117df565b820191906000526020600020905b8154815290600101906020018083116117c257829003601f168201915b505050505081526020016008820180546117f890616374565b80601f016020809104026020016040519081016040528092919081815260200182805461182490616374565b80156118715780601f1061184657610100808354040283529160200191611871565b820191906000526020600020905b81548152906001019060200180831161185457829003601f168201915b5050505050815260200160098201805461188a90616374565b80601f01602080910402602001604051908101604052809291908181526020018280546118b690616374565b80156119035780601f106118d857610100808354040283529160200191611903565b820191906000526020600020905b8154815290600101906020018083116118e657829003601f168201915b50505050508152602001600a8201805461191c90616374565b80601f016020809104026020016040519081016040528092919081815260200182805461194890616374565b80156119955780601f1061196a57610100808354040283529160200191611995565b820191906000526020600020905b81548152906001019060200180831161197857829003601f168201915b50505050508152602001600b820180546119ae90616374565b80601f01602080910402602001604051908101604052809291908181526020018280546119da90616374565b8015611a275780601f106119fc57610100808354040283529160200191611a27565b820191906000526020600020905b815481529060010190602001808311611a0a57829003601f168201915b50505050508152602001600c8201548152602001600d8201548152602001600e8201548152602001600f820154815260200160108201548152602001601182015481526020016012820160009054906101000a900460ff161515151581526020016012820160019054906101000a900460ff161515151581526020016012820160029054906101000a900460ff161515151581526020016012820160039054906101000a900460ff161515151581526020016012820160049054906101000a900460ff16151515158152602001601382015481525050848380611b09906164e3565b945081518110611b1c57611b1b61652b565b5b60200260200101819052505b8080611b33906164e3565b91505061130f565b50505090565b6060600080600190505b611b556008613c2e565b8111611ba557600c600082815260200190815260200160002060120160019054906101000a900460ff16611b92578180611b8e906164e3565b9250505b8080611b9d906164e3565b915050611b4b565b508067ffffffffffffffff811115611bc057611bbf615a51565b5b604051908082528060200260200182016040528015611bf957816020015b611be6614e40565b815260200190600190039081611bde5790505b509150600080600190505b611c0e6008613c2e565b81116123c157600c600082815260200190815260200160002060120160019054906101000a900460ff166123ae57600c600082815260200190815260200160002060405180610300016040529081600082015481526020016001820160009054906101000a900473ffffffffffffffffffffffffffffffffffffffff1673ffffffffffffffffffffffffffffffffffffffff1673ffffffffffffffffffffffffffffffffffffffff168152602001600282018054611ccb90616374565b80601f0160208091040260200160405190810160405280929190818152602001828054611cf790616374565b8015611d445780601f10611d1957610100808354040283529160200191611d44565b820191906000526020600020905b815481529060010190602001808311611d2757829003601f168201915b50505050508152602001600382018054611d5d90616374565b80601f0160208091040260200160405190810160405280929190818152602001828054611d8990616374565b8015611dd65780601f10611dab57610100808354040283529160200191611dd6565b820191906000526020600020905b815481529060010190602001808311611db957829003601f168201915b50505050508152602001600482018054611def90616374565b80601f0160208091040260200160405190810160405280929190818152602001828054611e1b90616374565b8015611e685780601f10611e3d57610100808354040283529160200191611e68565b820191906000526020600020905b815481529060010190602001808311611e4b57829003601f168201915b5050505050815260200160058201805480602002602001604051908101604052809291908181526020016000905b82821015611f42578382906000526020600020018054611eb590616374565b80601f0160208091040260200160405190810160405280929190818152602001828054611ee190616374565b8015611f2e5780601f10611f0357610100808354040283529160200191611f2e565b820191906000526020600020905b815481529060010190602001808311611f1157829003601f168201915b505050505081526020019060010190611e96565b505050508152602001600682018054611f5a90616374565b80601f0160208091040260200160405190810160405280929190818152602001828054611f8690616374565b8015611fd35780601f10611fa857610100808354040283529160200191611fd3565b820191906000526020600020905b815481529060010190602001808311611fb657829003601f168201915b50505050508152602001600782018054611fec90616374565b80601f016020809104026020016040519081016040528092919081815260200182805461201890616374565b80156120655780601f1061203a57610100808354040283529160200191612065565b820191906000526020600020905b81548152906001019060200180831161204857829003601f168201915b5050505050815260200160088201805461207e90616374565b80601f01602080910402602001604051908101604052809291908181526020018280546120aa90616374565b80156120f75780601f106120cc576101008083540402835291602001916120f7565b820191906000526020600020905b8154815290600101906020018083116120da57829003601f168201915b5050505050815260200160098201805461211090616374565b80601f016020809104026020016040519081016040528092919081815260200182805461213c90616374565b80156121895780601f1061215e57610100808354040283529160200191612189565b820191906000526020600020905b81548152906001019060200180831161216c57829003601f168201915b50505050508152602001600a820180546121a290616374565b80601f01602080910402602001604051908101604052809291908181526020018280546121ce90616374565b801561221b5780601f106121f05761010080835404028352916020019161221b565b820191906000526020600020905b8154815290600101906020018083116121fe57829003601f168201915b50505050508152602001600b8201805461223490616374565b80601f016020809104026020016040519081016040528092919081815260200182805461226090616374565b80156122ad5780601f10612282576101008083540402835291602001916122ad565b820191906000526020600020905b81548152906001019060200180831161229057829003601f168201915b50505050508152602001600c8201548152602001600d8201548152602001600e8201548152602001600f820154815260200160108201548152602001601182015481526020016012820160009054906101000a900460ff161515151581526020016012820160019054906101000a900460ff161515151581526020016012820160029054906101000a900460ff161515151581526020016012820160039054906101000a900460ff161515151581526020016012820160049054906101000a900460ff1615151515815260200160138201548152505084838061238f906164e3565b9450815181106123a2576123a161652b565b5b60200260200101819052505b80806123b9906164e3565b915050611c04565b50505090565b6123e2838383604051806020016040528060008152506133d9565b505050565b82600081604001515111612430576040517f08c379a0000000000000000000000000000000000000000000000000000000008152600401612427906165a6565b60405180910390fd5b600081606001515111612478576040517f08c379a000000000000000000000000000000000000000000000000000000000815260040161246f90616612565b60405180910390fd5b6000816080015151116124c0576040517f08c379a00000000000000000000000000000000000000000000000000000000081526004016124b79061667e565b60405180910390fd5b60008160a001515111612508576040517f08c379a00000000000000000000000000000000000000000000000000000000081526004016124ff906166ea565b60405180910390fd5b600a8160a00151511115612551576040517f08c379a000000000000000000000000000000000000000000000000000000000815260040161254890616756565b60405180910390fd5b60008160c001515111612599576040517f08c379a0000000000000000000000000000000000000000000000000000000008152600401612590906167c2565b60405180910390fd5b60008160e0015151116125e1576040517f08c379a00000000000000000000000000000000000000000000000000000000081526004016125d89061682e565b60405180910390fd5b6000816101000151511161262a576040517f08c379a00000000000000000000000000000000000000000000000000000000081526004016126219061689a565b60405180910390fd5b60008161012001515111612673576040517f08c379a000000000000000000000000000000000000000000000000000000000815260040161266a90616906565b60405180910390fd5b600081610140015151116126bc576040517f08c379a00000000000000000000000000000000000000000000000000000000081526004016126b390616972565b60405180910390fd5b60008161016001515111612705576040517f08c379a00000000000000000000000000000000000000000000000000000000081526004016126fc906169de565b60405180910390fd5b60008161018001511161274d576040517f08c379a000000000000000000000000000000000000000000000000000000000815260040161274490616a4a565b60405180910390fd5b6000816101a0015111612795576040517f08c379a000000000000000000000000000000000000000000000000000000000815260040161278c90616ab6565b60405180910390fd5b6000816101c00151116127dd576040517f08c379a00000000000000000000000000000000000000000000000000000000081526004016127d490616b22565b60405180910390fd5b6000816101e0015111612825576040517f08c379a000000000000000000000000000000000000000000000000000000000815260040161281c90616bb4565b60405180910390fd5b60008161020001511161286d576040517f08c379a000000000000000000000000000000000000000000000000000000000815260040161286490616c46565b60405180910390fd5b6000816102200151116128b5576040517f08c379a00000000000000000000000000000000000000000000000000000000081526004016128ac90616cb2565b60405180910390fd5b60005b8460a00151518110156129345760008560a0015182815181106128de576128dd61652b565b5b60200260200101515111612927576040517f08c379a000000000000000000000000000000000000000000000000000000000815260040161291e90616d1e565b60405180910390fd5b80806001019150506128b8565b5061293f6008613c3c565b600061294b6008613c2e565b90508085600001818152505033856020019073ffffffffffffffffffffffffffffffffffffffff16908173ffffffffffffffffffffffffffffffffffffffff168152505083856102c0019015159081151581525050836129ac5760006129ae565b825b856102e00181815250506000856102800190151590811515815250506001856102a00190151590811515815250506129e63382613c52565b84600c60008381526020019081526020016000206000820151816000015560208201518160010160006101000a81548173ffffffffffffffffffffffffffffffffffffffff021916908373ffffffffffffffffffffffffffffffffffffffff1602179055506040820151816002019081612a609190616eea565b506060820151816003019081612a769190616eea565b506080820151816004019081612a8c9190616eea565b5060a0820151816005019080519060200190612aa9929190614f15565b5060c0820151816006019081612abf9190616eea565b5060e0820151816007019081612ad59190616eea565b50610100820151816008019081612aec9190616eea565b50610120820151816009019081612b039190616eea565b5061014082015181600a019081612b1a9190616eea565b5061016082015181600b019081612b319190616eea565b5061018082015181600c01556101a082015181600d01556101c082015181600e01556101e082015181600f0155610200820151816010015561022082015181601101556102408201518160120160006101000a81548160ff0219169083151502179055506102608201518160120160016101000a81548160ff0219169083151502179055506102808201518160120160026101000a81548160ff0219169083151502179055506102a08201518160120160036101000a81548160ff0219169083151502179055506102c08201518160120160046101000a81548160ff0219169083151502179055506102e082015181601301559050506001600e600083815260200190815260200160002060006101000a81548160ff0219169083151502179055508315612caf57826011600083815260200190815260200160002060003373ffffffffffffffffffffffffffffffffffffffff1673ffffffffffffffffffffffffffffffffffffffff168152602001908152602001600020819055505b3373ffffffffffffffffffffffffffffffffffffffff16817f9815995bdb741d1e283b7e7fd822a34b01efd21fd2c59dc0d5ab07a587a61726876102200151604051612cfb9190615321565b60405180910390a35050505050565b6000612d1582613935565b9050919050565b612d24613c70565b612d2d81613cb6565b612d3681613e3a565b612d3e614107565b50565b60008073ffffffffffffffffffffffffffffffffffffffff168273ffffffffffffffffffffffffffffffffffffffff1603612db45760006040517f89c62b64000000000000000000000000000000000000000000000000000000008152600401612dab919061524b565b60405180910390fd5b600460008373ffffffffffffffffffffffffffffffffffffffff1673ffffffffffffffffffffffffffffffffffffffff168152602001908152602001600020549050919050565b612e03614111565b612e0d6000614198565b565b60126020528060005260406000206000915090505481565b60008060009054906101000a900473ffffffffffffffffffffffffffffffffffffffff16905090565b606060028054612e5f90616374565b80601f0160208091040260200160405190810160405280929190818152602001828054612e8b90616374565b8015612ed85780601f10612ead57610100808354040283529160200191612ed8565b820191906000526020600020905b815481529060010190602001808311612ebb57829003601f168201915b5050505050905090565b612eea614111565b600e600083815260200190815260200160002060009054906101000a900460ff16612f4a576040517f08c379a0000000000000000000000000000000000000000000000000000000008152600401612f4190616428565b60405180910390fd5b80600c600084815260200190815260200160002060120160026101000a81548160ff0219169083151502179055506000600c600084815260200190815260200160002060120160036101000a81548160ff0219169083151502179055505050565b612fbd612fb66139fa565b838361425c565b5050565b816011600085815260200190815260200160002060003373ffffffffffffffffffffffffffffffffffffffff1673ffffffffffffffffffffffffffffffffffffffff168152602001908152602001600020541015613054576040517f08c379a000000000000000000000000000000000000000000000000000000000815260040161304b90617008565b60405180910390fd5b806013600085815260200190815260200160002060003373ffffffffffffffffffffffffffffffffffffffff1673ffffffffffffffffffffffffffffffffffffffff16815260200190815260200160002081905550505050565b6130b6613c70565b60006013600085815260200190815260200160002060008473ffffffffffffffffffffffffffffffffffffffff1673ffffffffffffffffffffffffffffffffffffffff1681526020019081526020016000205490506000811161314e576040517f08c379a000000000000000000000000000000000000000000000000000000000815260040161314590617074565b60405180910390fd5b6000818361315c9190617094565b9050803410156131a1576040517f08c379a000000000000000000000000000000000000000000000000000000000815260040161319890617122565b60405180910390fd5b826011600087815260200190815260200160002060008673ffffffffffffffffffffffffffffffffffffffff1673ffffffffffffffffffffffffffffffffffffffff168152602001908152602001600020541015613234576040517f08c379a000000000000000000000000000000000000000000000000000000000815260040161322b906171b4565b60405180910390fd5b826011600087815260200190815260200160002060008673ffffffffffffffffffffffffffffffffffffffff1673ffffffffffffffffffffffffffffffffffffffff168152602001908152602001600020600082825461329491906171d4565b92505081905550826011600087815260200190815260200160002060003373ffffffffffffffffffffffffffffffffffffffff1673ffffffffffffffffffffffffffffffffffffffff16815260200190815260200160002060008282546132fb9190617208565b9250508190555060006013600087815260200190815260200160002060008673ffffffffffffffffffffffffffffffffffffffff1673ffffffffffffffffffffffffffffffffffffffff1681526020019081526020016000208190555061336284826143cb565b3373ffffffffffffffffffffffffffffffffffffffff168473ffffffffffffffffffffffffffffffffffffffff16867f438c1f5df8dec862582b970d3b5b5959b459d85ac9ca19a800af076dd5bd8e3786856040516133c292919061723c565b60405180910390a450506133d4614107565b505050565b6133e484848461089c565b6133f86133ef6139fa565b85858585614446565b50505050565b613406613c70565b6000600c60008481526020019081526020016000209050600e600084815260200190815260200160002060009054906101000a900460ff1661347d576040517f08c379a000000000000000000000000000000000000000000000000000000000815260040161347490616428565b60405180910390fd5b8060120160049054906101000a900460ff166134ce576040517f08c379a00000000000000000000000000000000000000000000000000000000081526004016134c5906172b1565b60405180910390fd5b8060120160019054906101000a900460ff1615613520576040517f08c379a00000000000000000000000000000000000000000000000000000000081526004016135179061731d565b60405180910390fd5b600081601301548260110154613536919061736c565b905080836135449190617094565b341015613586576040517f08c379a000000000000000000000000000000000000000000000000000000000815260040161357d90617122565b60405180910390fd5b81601301548360126000878152602001908152602001600020546135aa9190617208565b11156135eb576040517f08c379a00000000000000000000000000000000000000000000000000000000081526004016135e2906173e9565b60405180910390fd5b8260126000868152602001908152602001600020600082825461360e9190617208565b92505081905550826011600086815260200190815260200160002060003373ffffffffffffffffffffffffffffffffffffffff1673ffffffffffffffffffffffffffffffffffffffff16815260200190815260200160002060008282546136759190617208565b9250508190555060006064600b543461368e9190617094565b613698919061736c565b9050600081346136a891906171d4565b90506136d88460010160009054906101000a900473ffffffffffffffffffffffffffffffffffffffff16826143cb565b6136e96136e3612e27565b836143cb565b3373ffffffffffffffffffffffffffffffffffffffff16867f391e04cf2ba8f29888f266b30b26a0c723c4d51f4e59a766d49bc1652a8b5f88876040516137309190615321565b60405180910390a350505050613744614107565b5050565b606061375382613935565b50600061375e6145f7565b9050600081511161377e57604051806020016040528060008152506137a9565b806137888461460e565b604051602001613799929190617445565b6040516020818303038152906040525b915050919050565b6000600660008473ffffffffffffffffffffffffffffffffffffffff1673ffffffffffffffffffffffffffffffffffffffff16815260200190815260200160002060008373ffffffffffffffffffffffffffffffffffffffff1673ffffffffffffffffffffffffffffffffffffffff16815260200190815260200160002060009054906101000a900460ff16905092915050565b61384d614111565b600073ffffffffffffffffffffffffffffffffffffffff168173ffffffffffffffffffffffffffffffffffffffff16036138bf5760006040517f1e4fbdf70000000000000000000000000000000000000000000000000000000081526004016138b6919061524b565b60405180910390fd5b6138c881614198565b50565b60007f01ffc9a7000000000000000000000000000000000000000000000000000000007bffffffffffffffffffffffffffffffffffffffffffffffffffffffff1916827bffffffffffffffffffffffffffffffffffffffffffffffffffffffff1916149050919050565b600080613941836146dc565b9050600073ffffffffffffffffffffffffffffffffffffffff168173ffffffffffffffffffffffffffffffffffffffff16036139b457826040517f7e2732890000000000000000000000000000000000000000000000000000000081526004016139ab9190615321565b60405180910390fd5b80915050919050565b60006005600083815260200190815260200160002060009054906101000a900473ffffffffffffffffffffffffffffffffffffffff169050919050565b600033905090565b613a0f8383836001614719565b505050565b600080613a20846146dc565b9050600073ffffffffffffffffffffffffffffffffffffffff168373ffffffffffffffffffffffffffffffffffffffff1614613a6257613a618184866148de565b5b600073ffffffffffffffffffffffffffffffffffffffff168173ffffffffffffffffffffffffffffffffffffffff1614613af357613aa4600085600080614719565b6001600460008373ffffffffffffffffffffffffffffffffffffffff1673ffffffffffffffffffffffffffffffffffffffff168152602001908152602001600020600082825403925050819055505b600073ffffffffffffffffffffffffffffffffffffffff168573ffffffffffffffffffffffffffffffffffffffff1614613b76576001600460008773ffffffffffffffffffffffffffffffffffffffff1673ffffffffffffffffffffffffffffffffffffffff168152602001908152602001600020600082825401925050819055505b846003600086815260200190815260200160002060006101000a81548173ffffffffffffffffffffffffffffffffffffffff021916908373ffffffffffffffffffffffffffffffffffffffff160217905550838573ffffffffffffffffffffffffffffffffffffffff168273ffffffffffffffffffffffffffffffffffffffff167fddf252ad1be2c89b69c2b068fc378daa952ba7f163c4a11628f55a4df523b3ef60405160405180910390a4809150509392505050565b600081600001549050919050565b6001816000016000828254019250508190555050565b613c6c8282604051806020016040528060008152506149a2565b5050565b600260075403613cac576040517f3ee5aeb500000000000000000000000000000000000000000000000000000000815260040160405180910390fd5b6002600781905550565b600e600082815260200190815260200160002060009054906101000a900460ff16613d16576040517f08c379a0000000000000000000000000000000000000000000000000000000008152600401613d0d90616428565b60405180910390fd5b600c600082815260200190815260200160002060110154341015613d6f576040517f08c379a0000000000000000000000000000000000000000000000000000000008152600401613d6690617122565b60405180910390fd5b600c600082815260200190815260200160002060120160019054906101000a900460ff1615613dd3576040517f08c379a0000000000000000000000000000000000000000000000000000000008152600401613dca90616494565b60405180910390fd5b600c600082815260200190815260200160002060120160009054906101000a900460ff1615613e37576040517f08c379a0000000000000000000000000000000000000000000000000000000008152600401613e2e906174b5565b60405180910390fd5b50565b613e446009613c3c565b613e4c614f6e565b613e566009613c2e565b8160000181815250508181602001818152505033816040019073ffffffffffffffffffffffffffffffffffffffff16908173ffffffffffffffffffffffffffffffffffffffff1681525050600d6000838152602001908152602001600020819080600181540180825580915050600190039060005260206000209060030201600090919091909150600082015181600001556020820151816001015560408201518160020160006101000a81548173ffffffffffffffffffffffffffffffffffffffff021916908373ffffffffffffffffffffffffffffffffffffffff160217905550505060006064600b5434613f4d9190617094565b613f57919061736c565b905060008134613f6791906171d4565b9050613fa9600c600086815260200190815260200160002060010160009054906101000a900473ffffffffffffffffffffffffffffffffffffffff16826143cb565b613fba613fb4612e27565b836143cb565b6000600c600086815260200190815260200160002060010160009054906101000a900473ffffffffffffffffffffffffffffffffffffffff1690506001600c600087815260200190815260200160002060120160006101000a81548160ff02191690831515021790555033600c600087815260200190815260200160002060010160006101000a81548173ffffffffffffffffffffffffffffffffffffffff021916908373ffffffffffffffffffffffffffffffffffffffff1602179055506140848133876149c6565b3373ffffffffffffffffffffffffffffffffffffffff168173ffffffffffffffffffffffffffffffffffffffff16867fddd64180d9701c7ede08673ac8106484ff983a472929330d4fbde4e35d65cb06600c60008a8152602001908152602001600020601101546040516140f89190615321565b60405180910390a45050505050565b6001600781905550565b6141196139fa565b73ffffffffffffffffffffffffffffffffffffffff16614137612e27565b73ffffffffffffffffffffffffffffffffffffffff16146141965761415a6139fa565b6040517f118cdaa700000000000000000000000000000000000000000000000000000000815260040161418d919061524b565b60405180910390fd5b565b60008060009054906101000a900473ffffffffffffffffffffffffffffffffffffffff169050816000806101000a81548173ffffffffffffffffffffffffffffffffffffffff021916908373ffffffffffffffffffffffffffffffffffffffff1602179055508173ffffffffffffffffffffffffffffffffffffffff168173ffffffffffffffffffffffffffffffffffffffff167f8be0079c531659141344cd1fd0a4f28419497f9722a3daafe3b4186f6b6457e060405160405180910390a35050565b600073ffffffffffffffffffffffffffffffffffffffff168273ffffffffffffffffffffffffffffffffffffffff16036142cd57816040517f5b08ba180000000000000000000000000000000000000000000000000000000081526004016142c4919061524b565b60405180910390fd5b80600660008573ffffffffffffffffffffffffffffffffffffffff1673ffffffffffffffffffffffffffffffffffffffff16815260200190815260200160002060008473ffffffffffffffffffffffffffffffffffffffff1673ffffffffffffffffffffffffffffffffffffffff16815260200190815260200160002060006101000a81548160ff0219169083151502179055508173ffffffffffffffffffffffffffffffffffffffff168373ffffffffffffffffffffffffffffffffffffffff167f17307eab39ab6107e8899845ad3d59bd9653f200f220920489ca2b5937696c31836040516143be91906150da565b60405180910390a3505050565b60008273ffffffffffffffffffffffffffffffffffffffff16826040516143f190617506565b60006040518083038185875af1925050503d806000811461442e576040519150601f19603f3d011682016040523d82523d6000602084013e614433565b606091505b505090508061444157600080fd5b505050565b60008373ffffffffffffffffffffffffffffffffffffffff163b11156145f0578273ffffffffffffffffffffffffffffffffffffffff1663150b7a02868685856040518563ffffffff1660e01b81526004016144a59493929190617570565b6020604051808303816000875af19250505080156144e157506040513d601f19601f820116820180604052508101906144de91906175d1565b60015b614565573d8060008114614511576040519150601f19603f3d011682016040523d82523d6000602084013e614516565b606091505b50600081510361455d57836040517f64a0ae92000000000000000000000000000000000000000000000000000000008152600401614554919061524b565b60405180910390fd5b805160208201fd5b63150b7a0260e01b7bffffffffffffffffffffffffffffffffffffffffffffffffffffffff1916817bffffffffffffffffffffffffffffffffffffffffffffffffffffffff1916146145ee57836040517f64a0ae920000000000000000000000000000000000000000000000000000000081526004016145e5919061524b565b60405180910390fd5b505b5050505050565b606060405180602001604052806000815250905090565b60606000600161461d84614b33565b01905060008167ffffffffffffffff81111561463c5761463b615a51565b5b6040519080825280601f01601f19166020018201604052801561466e5781602001600182028036833780820191505090505b509050600082602083010190505b6001156146d1578080600190039150507f3031323334353637383961626364656600000000000000000000000000000000600a86061a8153600a85816146c5576146c461733d565b5b0494506000850361467c575b819350505050919050565b60006003600083815260200190815260200160002060009054906101000a900473ffffffffffffffffffffffffffffffffffffffff169050919050565b80806147525750600073ffffffffffffffffffffffffffffffffffffffff168273ffffffffffffffffffffffffffffffffffffffff1614155b1561488657600061476284613935565b9050600073ffffffffffffffffffffffffffffffffffffffff168373ffffffffffffffffffffffffffffffffffffffff16141580156147cd57508273ffffffffffffffffffffffffffffffffffffffff168173ffffffffffffffffffffffffffffffffffffffff1614155b80156147e057506147de81846137b1565b155b1561482257826040517fa9fbf51f000000000000000000000000000000000000000000000000000000008152600401614819919061524b565b60405180910390fd5b811561488457838573ffffffffffffffffffffffffffffffffffffffff168273ffffffffffffffffffffffffffffffffffffffff167f8c5be1e5ebec7d5bd14f71427d1e84f3dd0314c0f7b2291e5b200ac8c7c3b92560405160405180910390a45b505b836005600085815260200190815260200160002060006101000a81548173ffffffffffffffffffffffffffffffffffffffff021916908373ffffffffffffffffffffffffffffffffffffffff16021790555050505050565b6148e9838383614c86565b61499d57600073ffffffffffffffffffffffffffffffffffffffff168373ffffffffffffffffffffffffffffffffffffffff160361495e57806040517f7e2732890000000000000000000000000000000000000000000000000000000081526004016149559190615321565b60405180910390fd5b81816040517f177e802f0000000000000000000000000000000000000000000000000000000081526004016149949291906175fe565b60405180910390fd5b505050565b6149ac8383614d47565b6149c16149b76139fa565b6000858585614446565b505050565b600073ffffffffffffffffffffffffffffffffffffffff168273ffffffffffffffffffffffffffffffffffffffff1603614a385760006040517f64a0ae92000000000000000000000000000000000000000000000000000000008152600401614a2f919061524b565b60405180910390fd5b6000614a4683836000613a14565b9050600073ffffffffffffffffffffffffffffffffffffffff168173ffffffffffffffffffffffffffffffffffffffff1603614ab957816040517f7e273289000000000000000000000000000000000000000000000000000000008152600401614ab09190615321565b60405180910390fd5b8373ffffffffffffffffffffffffffffffffffffffff168173ffffffffffffffffffffffffffffffffffffffff1614614b2d578382826040517f64283d7b000000000000000000000000000000000000000000000000000000008152600401614b24939291906163a5565b60405180910390fd5b50505050565b600080600090507a184f03e93ff9f4daa797ed6e38ed64bf6a1f0100000000000000008310614b91577a184f03e93ff9f4daa797ed6e38ed64bf6a1f0100000000000000008381614b8757614b8661733d565b5b0492506040810190505b6d04ee2d6d415b85acef81000000008310614bce576d04ee2d6d415b85acef81000000008381614bc457614bc361733d565b5b0492506020810190505b662386f26fc100008310614bfd57662386f26fc100008381614bf357614bf261733d565b5b0492506010810190505b6305f5e1008310614c26576305f5e1008381614c1c57614c1b61733d565b5b0492506008810190505b6127108310614c4b576127108381614c4157614c4061733d565b5b0492506004810190505b60648310614c6e5760648381614c6457614c6361733d565b5b0492506002810190505b600a8310614c7d576001810190505b80915050919050565b60008073ffffffffffffffffffffffffffffffffffffffff168373ffffffffffffffffffffffffffffffffffffffff1614158015614d3e57508273ffffffffffffffffffffffffffffffffffffffff168473ffffffffffffffffffffffffffffffffffffffff161480614cff5750614cfe84846137b1565b5b80614d3d57508273ffffffffffffffffffffffffffffffffffffffff16614d25836139bd565b73ffffffffffffffffffffffffffffffffffffffff16145b5b90509392505050565b600073ffffffffffffffffffffffffffffffffffffffff168273ffffffffffffffffffffffffffffffffffffffff1603614db95760006040517f64a0ae92000000000000000000000000000000000000000000000000000000008152600401614db0919061524b565b60405180910390fd5b6000614dc783836000613a14565b9050600073ffffffffffffffffffffffffffffffffffffffff168173ffffffffffffffffffffffffffffffffffffffff1614614e3b5760006040517f73c6ac6e000000000000000000000000000000000000000000000000000000008152600401614e32919061524b565b60405180910390fd5b505050565b60405180610300016040528060008152602001600073ffffffffffffffffffffffffffffffffffffffff16815260200160608152602001606081526020016060815260200160608152602001606081526020016060815260200160608152602001606081526020016060815260200160608152602001600081526020016000815260200160008152602001600081526020016000815260200160008152602001600015158152602001600015158152602001600015158152602001600015158152602001600015158152602001600081525090565b828054828255906000526020600020908101928215614f5d579160200282015b82811115614f5c578251829081614f4c9190616eea565b5091602001919060010190614f35565b5b509050614f6a9190614fa5565b5090565b60405180606001604052806000815260200160008152602001600073ffffffffffffffffffffffffffffffffffffffff1681525090565b5b80821115614fc55760008181614fbc9190614fc9565b50600101614fa6565b5090565b508054614fd590616374565b6000825580601f10614fe75750615006565b601f0160209004906000526020600020908101906150059190615009565b5b50565b5b8082111561502257600081600090555060010161500a565b5090565b6000604051905090565b600080fd5b600080fd5b60007fffffffff0000000000000000000000000000000000000000000000000000000082169050919050565b61506f8161503a565b811461507a57600080fd5b50565b60008135905061508c81615066565b92915050565b6000602082840312156150a8576150a7615030565b5b60006150b68482850161507d565b91505092915050565b60008115159050919050565b6150d4816150bf565b82525050565b60006020820190506150ef60008301846150cb565b92915050565b600081519050919050565b600082825260208201905092915050565b60005b8381101561512f578082015181840152602081019050615114565b60008484015250505050565b6000601f19601f8301169050919050565b6000615157826150f5565b6151618185615100565b9350615171818560208601615111565b61517a8161513b565b840191505092915050565b6000602082019050818103600083015261519f818461514c565b905092915050565b6000819050919050565b6151ba816151a7565b81146151c557600080fd5b50565b6000813590506151d7816151b1565b92915050565b6000602082840312156151f3576151f2615030565b5b6000615201848285016151c8565b91505092915050565b600073ffffffffffffffffffffffffffffffffffffffff82169050919050565b60006152358261520a565b9050919050565b6152458161522a565b82525050565b6000602082019050615260600083018461523c565b92915050565b61526f8161522a565b811461527a57600080fd5b50565b60008135905061528c81615266565b92915050565b600080604083850312156152a9576152a8615030565b5b60006152b78582860161527d565b92505060206152c8858286016151c8565b9150509250929050565b600080604083850312156152e9576152e8615030565b5b60006152f7858286016151c8565b92505060206153088582860161527d565b9150509250929050565b61531b816151a7565b82525050565b60006020820190506153366000830184615312565b92915050565b60008060006060848603121561535557615354615030565b5b60006153638682870161527d565b93505060206153748682870161527d565b9250506040615385868287016151c8565b9150509250925092565b615398816151a7565b82525050565b6153a78161522a565b82525050565b600082825260208201905092915050565b60006153c9826150f5565b6153d381856153ad565b93506153e3818560208601615111565b6153ec8161513b565b840191505092915050565b600081519050919050565b600082825260208201905092915050565b6000819050602082019050919050565b600061542f83836153be565b905092915050565b6000602082019050919050565b600061544f826153f7565b6154598185615402565b93508360208202850161546b85615413565b8060005b858110156154a757848403895281516154888582615423565b945061549383615437565b925060208a0199505060018101905061546f565b50829750879550505050505092915050565b6154c2816150bf565b82525050565b6000610300830160008301516154e1600086018261538f565b5060208301516154f4602086018261539e565b506040830151848203604086015261550c82826153be565b9150506060830151848203606086015261552682826153be565b9150506080830151848203608086015261554082826153be565b91505060a083015184820360a086015261555a8282615444565b91505060c083015184820360c086015261557482826153be565b91505060e083015184820360e086015261558e82826153be565b9150506101008301518482036101008601526155aa82826153be565b9150506101208301518482036101208601526155c682826153be565b9150506101408301518482036101408601526155e282826153be565b9150506101608301518482036101608601526155fe82826153be565b91505061018083015161561561018086018261538f565b506101a083015161562a6101a086018261538f565b506101c083015161563f6101c086018261538f565b506101e08301516156546101e086018261538f565b5061020083015161566961020086018261538f565b5061022083015161567e61022086018261538f565b506102408301516156936102408601826154b9565b506102608301516156a86102608601826154b9565b506102808301516156bd6102808601826154b9565b506102a08301516156d26102a08601826154b9565b506102c08301516156e76102c08601826154b9565b506102e08301516156fc6102e086018261538f565b508091505092915050565b6000602082019050818103600083015261572181846154c8565b905092915050565b600081519050919050565b600082825260208201905092915050565b6000819050602082019050919050565b60006103008301600083015161576e600086018261538f565b506020830151615781602086018261539e565b506040830151848203604086015261579982826153be565b915050606083015184820360608601526157b382826153be565b915050608083015184820360808601526157cd82826153be565b91505060a083015184820360a08601526157e78282615444565b91505060c083015184820360c086015261580182826153be565b91505060e083015184820360e086015261581b82826153be565b91505061010083015184820361010086015261583782826153be565b91505061012083015184820361012086015261585382826153be565b91505061014083015184820361014086015261586f82826153be565b91505061016083015184820361016086015261588b82826153be565b9150506101808301516158a261018086018261538f565b506101a08301516158b76101a086018261538f565b506101c08301516158cc6101c086018261538f565b506101e08301516158e16101e086018261538f565b506102008301516158f661020086018261538f565b5061022083015161590b61022086018261538f565b506102408301516159206102408601826154b9565b506102608301516159356102608601826154b9565b5061028083015161594a6102808601826154b9565b506102a083015161595f6102a08601826154b9565b506102c08301516159746102c08601826154b9565b506102e08301516159896102e086018261538f565b508091505092915050565b60006159a08383615755565b905092915050565b6000602082019050919050565b60006159c082615729565b6159ca8185615734565b9350836020820285016159dc85615745565b8060005b85811015615a1857848403895281516159f98582615994565b9450615a04836159a8565b925060208a019950506001810190506159e0565b50829750879550505050505092915050565b60006020820190508181036000830152615a4481846159b5565b905092915050565b600080fd5b7f4e487b7100000000000000000000000000000000000000000000000000000000600052604160045260246000fd5b615a898261513b565b810181811067ffffffffffffffff82111715615aa857615aa7615a51565b5b80604052505050565b6000615abb615026565b9050615ac78282615a80565b919050565b600080fd5b600080fd5b600080fd5b600067ffffffffffffffff821115615af657615af5615a51565b5b615aff8261513b565b9050602081019050919050565b82818337600083830152505050565b6000615b2e615b2984615adb565b615ab1565b905082815260208101848484011115615b4a57615b49615ad6565b5b615b55848285615b0c565b509392505050565b600082601f830112615b7257615b71615ad1565b5b8135615b82848260208601615b1b565b91505092915050565b600067ffffffffffffffff821115615ba657615ba5615a51565b5b602082029050602081019050919050565b600080fd5b6000615bcf615bca84615b8b565b615ab1565b90508083825260208201905060208402830185811115615bf257615bf1615bb7565b5b835b81811015615c3957803567ffffffffffffffff811115615c1757615c16615ad1565b5b808601615c248982615b5d565b85526020850194505050602081019050615bf4565b5050509392505050565b600082601f830112615c5857615c57615ad1565b5b8135615c68848260208601615bbc565b91505092915050565b615c7a816150bf565b8114615c8557600080fd5b50565b600081359050615c9781615c71565b92915050565b60006103008284031215615cb457615cb3615a4c565b5b615cbf610300615ab1565b90506000615ccf848285016151c8565b6000830152506020615ce38482850161527d565b602083015250604082013567ffffffffffffffff811115615d0757615d06615acc565b5b615d1384828501615b5d565b604083015250606082013567ffffffffffffffff811115615d3757615d36615acc565b5b615d4384828501615b5d565b606083015250608082013567ffffffffffffffff811115615d6757615d66615acc565b5b615d7384828501615b5d565b60808301525060a082013567ffffffffffffffff811115615d9757615d96615acc565b5b615da384828501615c43565b60a08301525060c082013567ffffffffffffffff811115615dc757615dc6615acc565b5b615dd384828501615b5d565b60c08301525060e082013567ffffffffffffffff811115615df757615df6615acc565b5b615e0384828501615b5d565b60e08301525061010082013567ffffffffffffffff811115615e2857615e27615acc565b5b615e3484828501615b5d565b6101008301525061012082013567ffffffffffffffff811115615e5a57615e59615acc565b5b615e6684828501615b5d565b6101208301525061014082013567ffffffffffffffff811115615e8c57615e8b615acc565b5b615e9884828501615b5d565b6101408301525061016082013567ffffffffffffffff811115615ebe57615ebd615acc565b5b615eca84828501615b5d565b61016083015250610180615ee0848285016151c8565b610180830152506101a0615ef6848285016151c8565b6101a0830152506101c0615f0c848285016151c8565b6101c0830152506101e0615f22848285016151c8565b6101e083015250610200615f38848285016151c8565b61020083015250610220615f4e848285016151c8565b61022083015250610240615f6484828501615c88565b61024083015250610260615f7a84828501615c88565b61026083015250610280615f9084828501615c88565b610280830152506102a0615fa684828501615c88565b6102a0830152506102c0615fbc84828501615c88565b6102c0830152506102e0615fd2848285016151c8565b6102e08301525092915050565b600080600060608486031215615ff857615ff7615030565b5b600084013567ffffffffffffffff81111561601657616015615035565b5b61602286828701615c9d565b935050602061603386828701615c88565b9250506040616044868287016151c8565b9150509250925092565b60006020828403121561606457616063615030565b5b60006160728482850161527d565b91505092915050565b6000806040838503121561609257616091615030565b5b60006160a0858286016151c8565b92505060206160b185828601615c88565b9150509250929050565b600080604083850312156160d2576160d1615030565b5b60006160e08582860161527d565b92505060206160f185828601615c88565b9150509250929050565b60008060006060848603121561611457616113615030565b5b6000616122868287016151c8565b9350506020616133868287016151c8565b9250506040616144868287016151c8565b9150509250925092565b60008060006060848603121561616757616166615030565b5b6000616175868287016151c8565b93505060206161868682870161527d565b9250506040616197868287016151c8565b9150509250925092565b600067ffffffffffffffff8211156161bc576161bb615a51565b5b6161c58261513b565b9050602081019050919050565b60006161e56161e0846161a1565b615ab1565b90508281526020810184848401111561620157616200615ad6565b5b61620c848285615b0c565b509392505050565b600082601f83011261622957616228615ad1565b5b81356162398482602086016161d2565b91505092915050565b6000806000806080858703121561625c5761625b615030565b5b600061626a8782880161527d565b945050602061627b8782880161527d565b935050604061628c878288016151c8565b925050606085013567ffffffffffffffff8111156162ad576162ac615035565b5b6162b987828801616214565b91505092959194509250565b600080604083850312156162dc576162db615030565b5b60006162ea858286016151c8565b92505060206162fb858286016151c8565b9150509250929050565b6000806040838503121561631c5761631b615030565b5b600061632a8582860161527d565b925050602061633b8582860161527d565b9150509250929050565b7f4e487b7100000000000000000000000000000000000000000000000000000000600052602260045260246000fd5b6000600282049050600182168061638c57607f821691505b60208210810361639f5761639e616345565b5b50919050565b60006060820190506163ba600083018661523c565b6163c76020830185615312565b6163d4604083018461523c565b949350505050565b7f50726f706572747920646f6573206e6f74206578697374000000000000000000600082015250565b6000616412601783615100565b915061641d826163dc565b602082019050919050565b6000602082019050818103600083015261644181616405565b9050919050565b7f50726f706572747920686173206265656e2064656c6574656400000000000000600082015250565b600061647e601983615100565b915061648982616448565b602082019050919050565b600060208201905081810360008301526164ad81616471565b9050919050565b7f4e487b7100000000000000000000000000000000000000000000000000000000600052601160045260246000fd5b60006164ee826151a7565b91507fffffffffffffffffffffffffffffffffffffffffffffffffffffffffffffffff82036165205761651f6164b4565b5b600182019050919050565b7f4e487b7100000000000000000000000000000000000000000000000000000000600052603260045260246000fd5b7f4e616d652063616e6e6f7420626520656d707479000000000000000000000000600082015250565b6000616590601483615100565b915061659b8261655a565b602082019050919050565b600060208201905081810360008301526165bf81616583565b9050919050565b7f46756c6c206c6567616c206e616d652063616e6e6f7420626520656d70747900600082015250565b60006165fc601f83615100565b9150616607826165c6565b602082019050919050565b6000602082019050818103600083015261662b816165ef565b9050919050565b7f50726f706572747920646f63756d656e74206973207265717569726564000000600082015250565b6000616668601d83615100565b915061667382616632565b602082019050919050565b600060208201905081810360008301526166978161665b565b9050919050565b7f4174206c65617374206f6e6520696d6167652069732072657175697265640000600082015250565b60006166d4601e83615100565b91506166df8261669e565b602082019050919050565b60006020820190508181036000830152616703816166c7565b9050919050565b7f4d6178696d756d20313020696d6167657320616c6c6f77656400000000000000600082015250565b6000616740601983615100565b915061674b8261670a565b602082019050919050565b6000602082019050818103600083015261676f81616733565b9050919050565b7f43617465676f72792063616e6e6f7420626520656d7074790000000000000000600082015250565b60006167ac601883615100565b91506167b782616776565b602082019050919050565b600060208201905081810360008301526167db8161679f565b9050919050565b7f4465736372697074696f6e2063616e6e6f7420626520656d7074790000000000600082015250565b6000616818601b83615100565b9150616823826167e2565b602082019050919050565b600060208201905081810360008301526168478161680b565b9050919050565b7f4c6f636174696f6e2063616e6e6f7420626520656d7074790000000000000000600082015250565b6000616884601883615100565b915061688f8261684e565b602082019050919050565b600060208201905081810360008301526168b381616877565b9050919050565b7f436974792063616e6e6f7420626520656d707479000000000000000000000000600082015250565b60006168f0601483615100565b91506168fb826168ba565b602082019050919050565b6000602082019050818103600083015261691f816168e3565b9050919050565b7f53746174652063616e6e6f7420626520656d7074790000000000000000000000600082015250565b600061695c601583615100565b915061696782616926565b602082019050919050565b6000602082019050818103600083015261698b8161694f565b9050919050565b7f436f756e7472792063616e6e6f7420626520656d707479000000000000000000600082015250565b60006169c8601783615100565b91506169d382616992565b602082019050919050565b600060208201905081810360008301526169f7816169bb565b9050919050565b7f5a697020436f64652063616e6e6f7420626520656d7074790000000000000000600082015250565b6000616a34601883615100565b9150616a3f826169fe565b602082019050919050565b60006020820190508181036000830152616a6381616a27565b9050919050565b7f426564726f6f6d2063616e6e6f74206265207a65726f206f7220656d70747900600082015250565b6000616aa0601f83615100565b9150616aab82616a6a565b602082019050919050565b60006020820190508181036000830152616acf81616a93565b9050919050565b7f42617468726f6f6d2063616e6e6f74206265207a65726f206f7220656d707479600082015250565b6000616b0c602083615100565b9150616b1782616ad6565b602082019050919050565b60006020820190508181036000830152616b3b81616aff565b9050919050565b7f59656172206275696c742063616e6e6f74206265207a65726f206f7220656d7060008201527f7479000000000000000000000000000000000000000000000000000000000000602082015250565b6000616b9e602283615100565b9150616ba982616b42565b604082019050919050565b60006020820190508181036000830152616bcd81616b91565b9050919050565b7f486f7573652073697a652063616e6e6f74206265207a65726f206f7220656d7060008201527f7479000000000000000000000000000000000000000000000000000000000000602082015250565b6000616c30602283615100565b9150616c3b82616bd4565b604082019050919050565b60006020820190508181036000830152616c5f81616c23565b9050919050565b7f5072696365206d7573742062652067726561746572207468616e207a65726f00600082015250565b6000616c9c601f83615100565b9150616ca782616c66565b602082019050919050565b60006020820190508181036000830152616ccb81616c8f565b9050919050565b7f496d6167652055524c2063616e6e6f7420626520656d70747900000000000000600082015250565b6000616d08601983615100565b9150616d1382616cd2565b602082019050919050565b60006020820190508181036000830152616d3781616cfb565b9050919050565b60008190508160005260206000209050919050565b60006020601f8301049050919050565b600082821b905092915050565b600060088302616da07fffffffffffffffffffffffffffffffffffffffffffffffffffffffffffffffff82616d63565b616daa8683616d63565b95508019841693508086168417925050509392505050565b6000819050919050565b6000616de7616de2616ddd846151a7565b616dc2565b6151a7565b9050919050565b6000819050919050565b616e0183616dcc565b616e15616e0d82616dee565b848454616d70565b825550505050565b600090565b616e2a616e1d565b616e35818484616df8565b505050565b5b81811015616e5957616e4e600082616e22565b600181019050616e3b565b5050565b601f821115616e9e57616e6f81616d3e565b616e7884616d53565b81016020851015616e87578190505b616e9b616e9385616d53565b830182616e3a565b50505b505050565b600082821c905092915050565b6000616ec160001984600802616ea3565b1980831691505092915050565b6000616eda8383616eb0565b9150826002028217905092915050565b616ef3826150f5565b67ffffffffffffffff811115616f0c57616f0b615a51565b5b616f168254616374565b616f21828285616e5d565b600060209050601f831160018114616f545760008415616f42578287015190505b616f4c8582616ece565b865550616fb4565b601f198416616f6286616d3e565b60005b82811015616f8a57848901518255600182019150602085019450602081019050616f65565b86831015616fa75784890151616fa3601f891682616eb0565b8355505b6001600288020188555050505b505050505050565b7f4e6f7420656e6f7567682073686172657320746f206c69737400000000000000600082015250565b6000616ff2601983615100565b9150616ffd82616fbc565b602082019050919050565b6000602082019050818103600083015261702181616fe5565b9050919050565b7f53656c6c657220686173206e6f74206c69737465642073686172657300000000600082015250565b600061705e601c83615100565b915061706982617028565b602082019050919050565b6000602082019050818103600083015261708d81617051565b9050919050565b600061709f826151a7565b91506170aa836151a7565b92508282026170b8816151a7565b915082820484148315176170cf576170ce6164b4565b5b5092915050565b7f496e73756666696369656e74207061796d656e74000000000000000000000000600082015250565b600061710c601483615100565b9150617117826170d6565b602082019050919050565b6000602082019050818103600083015261713b816170ff565b9050919050565b7f53656c6c657220646f6573206e6f74206861766520656e6f756768207368617260008201527f6573000000000000000000000000000000000000000000000000000000000000602082015250565b600061719e602283615100565b91506171a982617142565b604082019050919050565b600060208201905081810360008301526171cd81617191565b9050919050565b60006171df826151a7565b91506171ea836151a7565b9250828203905081811115617202576172016164b4565b5b92915050565b6000617213826151a7565b915061721e836151a7565b9250828201905080821115617236576172356164b4565b5b92915050565b60006040820190506172516000830185615312565b61725e6020830184615312565b9392505050565b7f50726f7065727479206973206e6f74206672616374696f6e616c697a65640000600082015250565b600061729b601e83615100565b91506172a682617265565b602082019050919050565b600060208201905081810360008301526172ca8161728e565b9050919050565b7f50726f70657274792069732064656c6574656400000000000000000000000000600082015250565b6000617307601383615100565b9150617312826172d1565b602082019050919050565b60006020820190508181036000830152617336816172fa565b9050919050565b7f4e487b7100000000000000000000000000000000000000000000000000000000600052601260045260246000fd5b6000617377826151a7565b9150617382836151a7565b9250826173925761739161733d565b5b828204905092915050565b7f4e6f7420656e6f7567682073686172657320617661696c61626c650000000000600082015250565b60006173d3601b83615100565b91506173de8261739d565b602082019050919050565b60006020820190508181036000830152617402816173c6565b9050919050565b600081905092915050565b600061741f826150f5565b6174298185617409565b9350617439818560208601615111565b80840191505092915050565b60006174518285617414565b915061745d8284617414565b91508190509392505050565b7f50726f706572747920686173206265656e20736f6c6400000000000000000000600082015250565b600061749f601683615100565b91506174aa82617469565b602082019050919050565b600060208201905081810360008301526174ce81617492565b9050919050565b600081905092915050565b50565b60006174f06000836174d5565b91506174fb826174e0565b600082019050919050565b6000617511826174e3565b9150819050919050565b600081519050919050565b600082825260208201905092915050565b60006175428261751b565b61754c8185617526565b935061755c818560208601615111565b6175658161513b565b840191505092915050565b6000608082019050617585600083018761523c565b617592602083018661523c565b61759f6040830185615312565b81810360608301526175b18184617537565b905095945050505050565b6000815190506175cb81615066565b92915050565b6000602082840312156175e7576175e6615030565b5b60006175f5848285016175bc565b91505092915050565b6000604082019050617613600083018561523c565b6176206020830184615312565b939250505056fea2646970667358221220f86e1e86f36ef2e97a777127ad68fb22f4e15781a460d77da799f3fcd0783cfd64736f6c634300081c0033",
  "linkReferences": {},
  "deployedLinkReferences": {}
}