{
  "_format": "hh-sol-artifact-1",
  "contractName": "Estateta",
  "sourceName": "contracts/Estateta.sol",
  "abi": [
    {
      "inputs": [
        {
          "internalType": "address",
          "name": "initialOwner",
          "type": "address"
        },
        {
          "internalType": "uint256",
          "name": "_pct",
          "type": "uint256"
        }
      ],
      "stateMutability": "nonpayable",
      "type": "constructor"
    },
    {
      "inputs": [],
      "name": "ReentrancyGuardReentrantCall",
      "type": "error"
    },
    {
      "anonymous": false,
      "inputs": [
        {
          "indexed": true,
          "internalType": "address",
          "name": "owner",
          "type": "address"
        },
        {
          "indexed": true,
          "internalType": "address",
          "name": "approved",
          "type": "address"
        },
        {
          "indexed": true,
          "internalType": "uint256",
          "name": "tokenId",
          "type": "uint256"
        }
      ],
      "name": "Approval",
      "type": "event"
    },
    {
      "anonymous": false,
      "inputs": [
        {
          "indexed": true,
          "internalType": "address",
          "name": "owner",
          "type": "address"
        },
        {
          "indexed": true,
          "internalType": "address",
          "name": "operator",
          "type": "address"
        },
        {
          "indexed": false,
          "internalType": "bool",
          "name": "approved",
          "type": "bool"
        }
      ],
      "name": "ApprovalForAll",
      "type": "event"
    },
    {
      "anonymous": false,
      "inputs": [
        {
          "indexed": true,
          "internalType": "uint256",
          "name": "propertyId",
          "type": "uint256"
        },
        {
          "indexed": true,
          "internalType": "address",
          "name": "buyer",
          "type": "address"
        },
        {
          "indexed": false,
          "internalType": "uint256",
          "name": "shares",
          "type": "uint256"
        }
      ],
      "name": "FractionPurchased",
      "type": "event"
    },
    {
      "anonymous": false,
      "inputs": [
        {
          "indexed": true,
          "internalType": "uint256",
          "name": "propertyId",
          "type": "uint256"
        },
        {
          "indexed": true,
          "internalType": "address",
          "name": "seller",
          "type": "address"
        },
        {
          "indexed": true,
          "internalType": "address",
          "name": "buyer",
          "type": "address"
        },
        {
          "indexed": false,
          "internalType": "uint256",
          "name": "shares",
          "type": "uint256"
        },
        {
          "indexed": false,
          "internalType": "uint256",
          "name": "price",
          "type": "uint256"
        }
      ],
      "name": "FractionResold",
      "type": "event"
    },
    {
      "anonymous": false,
      "inputs": [
        {
          "indexed": false,
          "internalType": "uint8",
          "name": "version",
          "type": "uint8"
        }
      ],
      "name": "Initialized",
      "type": "event"
    },
    {
      "anonymous": false,
      "inputs": [
        {
          "indexed": true,
          "internalType": "address",
          "name": "previousOwner",
          "type": "address"
        },
        {
          "indexed": true,
          "internalType": "address",
          "name": "newOwner",
          "type": "address"
        }
      ],
      "name": "OwnershipTransferred",
      "type": "event"
    },
    {
      "anonymous": false,
      "inputs": [
        {
          "indexed": true,
          "internalType": "uint256",
          "name": "id",
          "type": "uint256"
        },
        {
          "indexed": true,
          "internalType": "address",
          "name": "owner",
          "type": "address"
        },
        {
          "indexed": false,
          "internalType": "uint256",
          "name": "price",
          "type": "uint256"
        }
      ],
      "name": "PropertyCreated",
      "type": "event"
    },
    {
      "anonymous": false,
      "inputs": [
        {
          "indexed": true,
          "internalType": "uint256",
          "name": "id",
          "type": "uint256"
        }
      ],
      "name": "PropertyDeleted",
      "type": "event"
    },
    {
      "anonymous": false,
      "inputs": [
        {
          "indexed": true,
          "internalType": "uint256",
          "name": "id",
          "type": "uint256"
        },
        {
          "indexed": true,
          "internalType": "address",
          "name": "oldOwner",
          "type": "address"
        },
        {
          "indexed": true,
          "internalType": "address",
          "name": "newOwner",
          "type": "address"
        },
        {
          "indexed": false,
          "internalType": "uint256",
          "name": "price",
          "type": "uint256"
        }
      ],
      "name": "PropertySold",
      "type": "event"
    },
    {
      "anonymous": false,
      "inputs": [
        {
          "indexed": true,
          "internalType": "uint256",
          "name": "id",
          "type": "uint256"
        }
      ],
      "name": "PropertyUpdated",
      "type": "event"
    },
    {
      "anonymous": false,
      "inputs": [
        {
          "indexed": true,
          "internalType": "uint256",
          "name": "propertyId",
          "type": "uint256"
        },
        {
          "indexed": true,
          "internalType": "uint256",
          "name": "reviewId",
          "type": "uint256"
        }
      ],
      "name": "ReviewCreated",
      "type": "event"
    },
    {
      "anonymous": false,
      "inputs": [
        {
          "indexed": true,
          "internalType": "uint256",
          "name": "propertyId",
          "type": "uint256"
        },
        {
          "indexed": true,
          "internalType": "uint256",
          "name": "reviewId",
          "type": "uint256"
        }
      ],
      "name": "ReviewDeleted",
      "type": "event"
    },
    {
      "anonymous": false,
      "inputs": [
        {
          "indexed": true,
          "internalType": "uint256",
          "name": "propertyId",
          "type": "uint256"
        },
        {
          "indexed": true,
          "internalType": "uint256",
          "name": "reviewId",
          "type": "uint256"
        }
      ],
      "name": "ReviewUpdated",
      "type": "event"
    },
    {
      "anonymous": false,
      "inputs": [
        {
          "indexed": true,
          "internalType": "address",
          "name": "from",
          "type": "address"
        },
        {
          "indexed": true,
          "internalType": "address",
          "name": "to",
          "type": "address"
        },
        {
          "indexed": true,
          "internalType": "uint256",
          "name": "tokenId",
          "type": "uint256"
        }
      ],
      "name": "Transfer",
      "type": "event"
    },
    {
      "inputs": [
        {
          "internalType": "address",
          "name": "to",
          "type": "address"
        },
        {
          "internalType": "uint256",
          "name": "tokenId",
          "type": "uint256"
        }
      ],
      "name": "approve",
      "outputs": [],
      "stateMutability": "nonpayable",
      "type": "function"
    },
    {
      "inputs": [
        {
          "internalType": "address",
          "name": "owner",
          "type": "address"
        }
      ],
      "name": "balanceOf",
      "outputs": [
        {
          "internalType": "uint256",
          "name": "",
          "type": "uint256"
        }
      ],
      "stateMutability": "view",
      "type": "function"
    },
    {
      "inputs": [
        {
          "internalType": "uint256",
          "name": "id",
          "type": "uint256"
        }
      ],
      "name": "buyProperty",
      "outputs": [],
      "stateMutability": "payable",
      "type": "function"
    },
    {
      "inputs": [
        {
          "internalType": "uint256",
          "name": "propertyId",
          "type": "uint256"
        },
        {
          "internalType": "address",
          "name": "from",
          "type": "address"
        },
        {
          "internalType": "uint256",
          "name": "shareCount",
          "type": "uint256"
        }
      ],
      "name": "buyResaleShares",
      "outputs": [],
      "stateMutability": "payable",
      "type": "function"
    },
    {
      "inputs": [
        {
          "internalType": "uint256",
          "name": "propertyId",
          "type": "uint256"
        },
        {
          "internalType": "uint256",
          "name": "sharesToBuy",
          "type": "uint256"
        }
      ],
      "name": "buyShares",
      "outputs": [],
      "stateMutability": "payable",
      "type": "function"
    },
    {
      "inputs": [
        {
          "components": [
            {
              "internalType": "uint256",
              "name": "id",
              "type": "uint256"
            },
            {
              "internalType": "address",
              "name": "owner",
              "type": "address"
            },
            {
              "internalType": "string",
              "name": "name",
              "type": "string"
            },
            {
              "internalType": "string[]",
              "name": "images",
              "type": "string[]"
            },
            {
              "internalType": "string",
              "name": "category",
              "type": "string"
            },
            {
              "internalType": "string",
              "name": "description",
              "type": "string"
            },
            {
              "internalType": "string",
              "name": "location",
              "type": "string"
            },
            {
              "internalType": "string",
              "name": "city",
              "type": "string"
            },
            {
              "internalType": "string",
              "name": "state",
              "type": "string"
            },
            {
              "internalType": "string",
              "name": "country",
              "type": "string"
            },
            {
              "internalType": "uint256",
              "name": "zipCode",
              "type": "uint256"
            },
            {
              "internalType": "uint256",
              "name": "bedroom",
              "type": "uint256"
            },
            {
              "internalType": "uint256",
              "name": "bathroom",
              "type": "uint256"
            },
            {
              "internalType": "uint256",
              "name": "built",
              "type": "uint256"
            },
            {
              "internalType": "uint256",
              "name": "squarefit",
              "type": "uint256"
            },
            {
              "internalType": "uint256",
              "name": "price",
              "type": "uint256"
            },
            {
              "internalType": "bool",
              "name": "sold",
              "type": "bool"
            },
            {
              "internalType": "bool",
              "name": "deleted",
              "type": "bool"
            },
            {
              "internalType": "bool",
              "name": "isFractionalized",
              "type": "bool"
            },
            {
              "internalType": "uint256",
              "name": "totalShares",
              "type": "uint256"
            }
          ],
          "internalType": "struct Estateta.PropertyStruct",
          "name": "property",
          "type": "tuple"
        },
        {
          "internalType": "bool",
          "name": "isFractionalized",
          "type": "bool"
        },
        {
          "internalType": "uint256",
          "name": "totalShares",
          "type": "uint256"
        }
      ],
      "name": "createProperty",
      "outputs": [],
      "stateMutability": "nonpayable",
      "type": "function"
    },
    {
      "inputs": [],
      "name": "getAllProperties",
      "outputs": [
        {
          "components": [
            {
              "internalType": "uint256",
              "name": "id",
              "type": "uint256"
            },
            {
              "internalType": "address",
              "name": "owner",
              "type": "address"
            },
            {
              "internalType": "string",
              "name": "name",
              "type": "string"
            },
            {
              "internalType": "string[]",
              "name": "images",
              "type": "string[]"
            },
            {
              "internalType": "string",
              "name": "category",
              "type": "string"
            },
            {
              "internalType": "string",
              "name": "description",
              "type": "string"
            },
            {
              "internalType": "string",
              "name": "location",
              "type": "string"
            },
            {
              "internalType": "string",
              "name": "city",
              "type": "string"
            },
            {
              "internalType": "string",
              "name": "state",
              "type": "string"
            },
            {
              "internalType": "string",
              "name": "country",
              "type": "string"
            },
            {
              "internalType": "uint256",
              "name": "zipCode",
              "type": "uint256"
            },
            {
              "internalType": "uint256",
              "name": "bedroom",
              "type": "uint256"
            },
            {
              "internalType": "uint256",
              "name": "bathroom",
              "type": "uint256"
            },
            {
              "internalType": "uint256",
              "name": "built",
              "type": "uint256"
            },
            {
              "internalType": "uint256",
              "name": "squarefit",
              "type": "uint256"
            },
            {
              "internalType": "uint256",
              "name": "price",
              "type": "uint256"
            },
            {
              "internalType": "bool",
              "name": "sold",
              "type": "bool"
            },
            {
              "internalType": "bool",
              "name": "deleted",
              "type": "bool"
            },
            {
              "internalType": "bool",
              "name": "isFractionalized",
              "type": "bool"
            },
            {
              "internalType": "uint256",
              "name": "totalShares",
              "type": "uint256"
            }
          ],
          "internalType": "struct Estateta.PropertyStruct[]",
          "name": "myProperties",
          "type": "tuple[]"
        }
      ],
      "stateMutability": "view",
      "type": "function"
    },
    {
      "inputs": [
        {
          "internalType": "uint256",
          "name": "tokenId",
          "type": "uint256"
        }
      ],
      "name": "getApproved",
      "outputs": [
        {
          "internalType": "address",
          "name": "",
          "type": "address"
        }
      ],
      "stateMutability": "view",
      "type": "function"
    },
    {
      "inputs": [],
      "name": "getMyProperties",
      "outputs": [
        {
          "components": [
            {
              "internalType": "uint256",
              "name": "id",
              "type": "uint256"
            },
            {
              "internalType": "address",
              "name": "owner",
              "type": "address"
            },
            {
              "internalType": "string",
              "name": "name",
              "type": "string"
            },
            {
              "internalType": "string[]",
              "name": "images",
              "type": "string[]"
            },
            {
              "internalType": "string",
              "name": "category",
              "type": "string"
            },
            {
              "internalType": "string",
              "name": "description",
              "type": "string"
            },
            {
              "internalType": "string",
              "name": "location",
              "type": "string"
            },
            {
              "internalType": "string",
              "name": "city",
              "type": "string"
            },
            {
              "internalType": "string",
              "name": "state",
              "type": "string"
            },
            {
              "internalType": "string",
              "name": "country",
              "type": "string"
            },
            {
              "internalType": "uint256",
              "name": "zipCode",
              "type": "uint256"
            },
            {
              "internalType": "uint256",
              "name": "bedroom",
              "type": "uint256"
            },
            {
              "internalType": "uint256",
              "name": "bathroom",
              "type": "uint256"
            },
            {
              "internalType": "uint256",
              "name": "built",
              "type": "uint256"
            },
            {
              "internalType": "uint256",
              "name": "squarefit",
              "type": "uint256"
            },
            {
              "internalType": "uint256",
              "name": "price",
              "type": "uint256"
            },
            {
              "internalType": "bool",
              "name": "sold",
              "type": "bool"
            },
            {
              "internalType": "bool",
              "name": "deleted",
              "type": "bool"
            },
            {
              "internalType": "bool",
              "name": "isFractionalized",
              "type": "bool"
            },
            {
              "internalType": "uint256",
              "name": "totalShares",
              "type": "uint256"
            }
          ],
          "internalType": "struct Estateta.PropertyStruct[]",
          "name": "myProperties",
          "type": "tuple[]"
        }
      ],
      "stateMutability": "view",
      "type": "function"
    },
    {
      "inputs": [
        {
          "internalType": "uint256",
          "name": "id",
          "type": "uint256"
        }
      ],
      "name": "getProperty",
      "outputs": [
        {
          "components": [
            {
              "internalType": "uint256",
              "name": "id",
              "type": "uint256"
            },
            {
              "internalType": "address",
              "name": "owner",
              "type": "address"
            },
            {
              "internalType": "string",
              "name": "name",
              "type": "string"
            },
            {
              "internalType": "string[]",
              "name": "images",
              "type": "string[]"
            },
            {
              "internalType": "string",
              "name": "category",
              "type": "string"
            },
            {
              "internalType": "string",
              "name": "description",
              "type": "string"
            },
            {
              "internalType": "string",
              "name": "location",
              "type": "string"
            },
            {
              "internalType": "string",
              "name": "city",
              "type": "string"
            },
            {
              "internalType": "string",
              "name": "state",
              "type": "string"
            },
            {
              "internalType": "string",
              "name": "country",
              "type": "string"
            },
            {
              "internalType": "uint256",
              "name": "zipCode",
              "type": "uint256"
            },
            {
              "internalType": "uint256",
              "name": "bedroom",
              "type": "uint256"
            },
            {
              "internalType": "uint256",
              "name": "bathroom",
              "type": "uint256"
            },
            {
              "internalType": "uint256",
              "name": "built",
              "type": "uint256"
            },
            {
              "internalType": "uint256",
              "name": "squarefit",
              "type": "uint256"
            },
            {
              "internalType": "uint256",
              "name": "price",
              "type": "uint256"
            },
            {
              "internalType": "bool",
              "name": "sold",
              "type": "bool"
            },
            {
              "internalType": "bool",
              "name": "deleted",
              "type": "bool"
            },
            {
              "internalType": "bool",
              "name": "isFractionalized",
              "type": "bool"
            },
            {
              "internalType": "uint256",
              "name": "totalShares",
              "type": "uint256"
            }
          ],
          "internalType": "struct Estateta.PropertyStruct",
          "name": "",
          "type": "tuple"
        }
      ],
      "stateMutability": "view",
      "type": "function"
    },
    {
      "inputs": [
        {
          "internalType": "address",
          "name": "owner",
          "type": "address"
        },
        {
          "internalType": "address",
          "name": "operator",
          "type": "address"
        }
      ],
      "name": "isApprovedForAll",
      "outputs": [
        {
          "internalType": "bool",
          "name": "",
          "type": "bool"
        }
      ],
      "stateMutability": "view",
      "type": "function"
    },
    {
      "inputs": [
        {
          "internalType": "uint256",
          "name": "propertyId",
          "type": "uint256"
        },
        {
          "internalType": "uint256",
          "name": "shareCount",
          "type": "uint256"
        },
        {
          "internalType": "uint256",
          "name": "pricePerShare",
          "type": "uint256"
        }
      ],
      "name": "listSharesForSale",
      "outputs": [],
      "stateMutability": "nonpayable",
      "type": "function"
    },
    {
      "inputs": [],
      "name": "name",
      "outputs": [
        {
          "internalType": "string",
          "name": "",
          "type": "string"
        }
      ],
      "stateMutability": "view",
      "type": "function"
    },
    {
      "inputs": [],
      "name": "owner",
      "outputs": [
        {
          "internalType": "address",
          "name": "",
          "type": "address"
        }
      ],
      "stateMutability": "view",
      "type": "function"
    },
    {
      "inputs": [
        {
          "internalType": "uint256",
          "name": "tokenId",
          "type": "uint256"
        }
      ],
      "name": "ownerOf",
      "outputs": [
        {
          "internalType": "address",
          "name": "",
          "type": "address"
        }
      ],
      "stateMutability": "view",
      "type": "function"
    },
    {
      "inputs": [
        {
          "internalType": "uint256",
          "name": "",
          "type": "uint256"
        },
        {
          "internalType": "address",
          "name": "",
          "type": "address"
        }
      ],
      "name": "propertyShares",
      "outputs": [
        {
          "internalType": "uint256",
          "name": "",
          "type": "uint256"
        }
      ],
      "stateMutability": "view",
      "type": "function"
    },
    {
      "inputs": [],
      "name": "renounceOwnership",
      "outputs": [],
      "stateMutability": "nonpayable",
      "type": "function"
    },
    {
      "inputs": [
        {
          "internalType": "address",
          "name": "from",
          "type": "address"
        },
        {
          "internalType": "address",
          "name": "to",
          "type": "address"
        },
        {
          "internalType": "uint256",
          "name": "tokenId",
          "type": "uint256"
        }
      ],
      "name": "safeTransferFrom",
      "outputs": [],
      "stateMutability": "nonpayable",
      "type": "function"
    },
    {
      "inputs": [
        {
          "internalType": "address",
          "name": "from",
          "type": "address"
        },
        {
          "internalType": "address",
          "name": "to",
          "type": "address"
        },
        {
          "internalType": "uint256",
          "name": "tokenId",
          "type": "uint256"
        },
        {
          "internalType": "bytes",
          "name": "data",
          "type": "bytes"
        }
      ],
      "name": "safeTransferFrom",
      "outputs": [],
      "stateMutability": "nonpayable",
      "type": "function"
    },
    {
      "inputs": [
        {
          "internalType": "address",
          "name": "operator",
          "type": "address"
        },
        {
          "internalType": "bool",
          "name": "approved",
          "type": "bool"
        }
      ],
      "name": "setApprovalForAll",
      "outputs": [],
      "stateMutability": "nonpayable",
      "type": "function"
    },
    {
      "inputs": [
        {
          "internalType": "uint256",
          "name": "",
          "type": "uint256"
        },
        {
          "internalType": "address",
          "name": "",
          "type": "address"
        }
      ],
      "name": "shareSalePrice",
      "outputs": [
        {
          "internalType": "uint256",
          "name": "",
          "type": "uint256"
        }
      ],
      "stateMutability": "view",
      "type": "function"
    },
    {
      "inputs": [
        {
          "internalType": "uint256",
          "name": "",
          "type": "uint256"
        }
      ],
      "name": "sharesSold",
      "outputs": [
        {
          "internalType": "uint256",
          "name": "",
          "type": "uint256"
        }
      ],
      "stateMutability": "view",
      "type": "function"
    },
    {
      "inputs": [
        {
          "internalType": "bytes4",
          "name": "interfaceId",
          "type": "bytes4"
        }
      ],
      "name": "supportsInterface",
      "outputs": [
        {
          "internalType": "bool",
          "name": "",
          "type": "bool"
        }
      ],
      "stateMutability": "view",
      "type": "function"
    },
    {
      "inputs": [],
      "name": "symbol",
      "outputs": [
        {
          "internalType": "string",
          "name": "",
          "type": "string"
        }
      ],
      "stateMutability": "view",
      "type": "function"
    },
    {
      "inputs": [
        {
          "internalType": "uint256",
          "name": "tokenId",
          "type": "uint256"
        }
      ],
      "name": "tokenURI",
      "outputs": [
        {
          "internalType": "string",
          "name": "",
          "type": "string"
        }
      ],
      "stateMutability": "view",
      "type": "function"
    },
    {
      "inputs": [
        {
          "internalType": "address",
          "name": "from",
          "type": "address"
        },
        {
          "internalType": "address",
          "name": "to",
          "type": "address"
        },
        {
          "internalType": "uint256",
          "name": "tokenId",
          "type": "uint256"
        }
      ],
      "name": "transferFrom",
      "outputs": [],
      "stateMutability": "nonpayable",
      "type": "function"
    },
    {
      "inputs": [
        {
          "internalType": "address",
          "name": "newOwner",
          "type": "address"
        }
      ],
      "name": "transferOwnership",
      "outputs": [],
      "stateMutability": "nonpayable",
      "type": "function"
    }
  ],
  "bytecode": "0x608060405234801561001057600080fd5b50604051617c48380380617c48833981810160405281019061003291906103a0565b6040518060400160405280600881526020017f45737461746574610000000000000000000000000000000000000000000000008152506040518060400160405280600381526020017f45544100000000000000000000000000000000000000000000000000000000008152506100ba6100af6100f960201b60201c565b61010160201b60201c565b81600190816100c99190610626565b5080600290816100d99190610626565b50505080600b819055506100f2826101c560201b60201c565b5050610807565b600033905090565b60008060009054906101000a900473ffffffffffffffffffffffffffffffffffffffff169050816000806101000a81548173ffffffffffffffffffffffffffffffffffffffff021916908373ffffffffffffffffffffffffffffffffffffffff1602179055508173ffffffffffffffffffffffffffffffffffffffff168173ffffffffffffffffffffffffffffffffffffffff167f8be0079c531659141344cd1fd0a4f28419497f9722a3daafe3b4186f6b6457e060405160405180910390a35050565b6101d361025460201b60201c565b600073ffffffffffffffffffffffffffffffffffffffff168173ffffffffffffffffffffffffffffffffffffffff1603610242576040517f08c379a00000000000000000000000000000000000000000000000000000000081526004016102399061077b565b60405180910390fd5b6102518161010160201b60201c565b50565b6102626100f960201b60201c565b73ffffffffffffffffffffffffffffffffffffffff166102866102de60201b60201c565b73ffffffffffffffffffffffffffffffffffffffff16146102dc576040517f08c379a00000000000000000000000000000000000000000000000000000000081526004016102d3906107e7565b60405180910390fd5b565b60008060009054906101000a900473ffffffffffffffffffffffffffffffffffffffff16905090565b600080fd5b600073ffffffffffffffffffffffffffffffffffffffff82169050919050565b60006103378261030c565b9050919050565b6103478161032c565b811461035257600080fd5b50565b6000815190506103648161033e565b92915050565b6000819050919050565b61037d8161036a565b811461038857600080fd5b50565b60008151905061039a81610374565b92915050565b600080604083850312156103b7576103b6610307565b5b60006103c585828601610355565b92505060206103d68582860161038b565b9150509250929050565b600081519050919050565b7f4e487b7100000000000000000000000000000000000000000000000000000000600052604160045260246000fd5b7f4e487b7100000000000000000000000000000000000000000000000000000000600052602260045260246000fd5b6000600282049050600182168061046157607f821691505b6020821081036104745761047361041a565b5b50919050565b60008190508160005260206000209050919050565b60006020601f8301049050919050565b600082821b905092915050565b6000600883026104dc7fffffffffffffffffffffffffffffffffffffffffffffffffffffffffffffffff8261049f565b6104e6868361049f565b95508019841693508086168417925050509392505050565b6000819050919050565b600061052361051e6105198461036a565b6104fe565b61036a565b9050919050565b6000819050919050565b61053d83610508565b6105516105498261052a565b8484546104ac565b825550505050565b600090565b610566610559565b610571818484610534565b505050565b5b818110156105955761058a60008261055e565b600181019050610577565b5050565b601f8211156105da576105ab8161047a565b6105b48461048f565b810160208510156105c3578190505b6105d76105cf8561048f565b830182610576565b50505b505050565b600082821c905092915050565b60006105fd600019846008026105df565b1980831691505092915050565b600061061683836105ec565b9150826002028217905092915050565b61062f826103e0565b67ffffffffffffffff811115610648576106476103eb565b5b6106528254610449565b61065d828285610599565b600060209050601f831160018114610690576000841561067e578287015190505b610688858261060a565b8655506106f0565b601f19841661069e8661047a565b60005b828110156106c6578489015182556001820191506020850194506020810190506106a1565b868310156106e357848901516106df601f8916826105ec565b8355505b6001600288020188555050505b505050505050565b600082825260208201905092915050565b7f4f776e61626c653a206e6577206f776e657220697320746865207a65726f206160008201527f6464726573730000000000000000000000000000000000000000000000000000602082015250565b60006107656026836106f8565b915061077082610709565b604082019050919050565b6000602082019050818103600083015261079481610758565b9050919050565b7f4f776e61626c653a2063616c6c6572206973206e6f7420746865206f776e6572600082015250565b60006107d16020836106f8565b91506107dc8261079b565b602082019050919050565b60006020820190508181036000830152610800816107c4565b9050919050565b617432806108166000396000f3fe60806040526004361061019c5760003560e01c806370a08231116100ec578063b6821ec11161008a578063beebc5da11610064578063beebc5da146105ce578063c87b56dd146105ea578063e985e9c514610627578063f2fde38b146106645761019c565b8063b6821ec114610560578063b88d4fde1461057c578063b8b2dcb9146105a55761019c565b80638da5cb5b116100c65780638da5cb5b146104b857806395d89b41146104e3578063a22cb4651461050e578063a2a3ede1146105375761019c565b806370a0823114610427578063715018a61461046457806373e7800d1461047b5761019c565b806332665ffb116101595780633d51402c116101335780633d51402c1461037a57806342842e0e146103a55780636352211e146103ce5780636fa830a61461040b5761019c565b806332665ffb146102d557806338667c5f14610312578063397f79521461034f5761019c565b806301ffc9a7146101a157806306fdde03146101de578063081812fc14610209578063095ea7b3146102465780630b03f3be1461026f57806323b872dd146102ac575b600080fd5b3480156101ad57600080fd5b506101c860048036038101906101c39190614a87565b61068d565b6040516101d59190614acf565b60405180910390f35b3480156101ea57600080fd5b506101f361076f565b6040516102009190614b7a565b60405180910390f35b34801561021557600080fd5b50610230600480360381019061022b9190614bd2565b610801565b60405161023d9190614c40565b60405180910390f35b34801561025257600080fd5b5061026d60048036038101906102689190614c87565b610847565b005b34801561027b57600080fd5b5061029660048036038101906102919190614cc7565b61095e565b6040516102a39190614d16565b60405180910390f35b3480156102b857600080fd5b506102d360048036038101906102ce9190614d31565b610983565b005b3480156102e157600080fd5b506102fc60048036038101906102f79190614bd2565b6109e3565b604051610309919061509a565b60405180910390f35b34801561031e57600080fd5b5061033960048036038101906103349190614cc7565b6110a3565b6040516103469190614d16565b60405180910390f35b34801561035b57600080fd5b506103646110c8565b604051610371919061535b565b60405180910390f35b34801561038657600080fd5b5061038f6118d2565b60405161039c919061535b565b60405180910390f35b3480156103b157600080fd5b506103cc60048036038101906103c79190614d31565b611ffe565b005b3480156103da57600080fd5b506103f560048036038101906103f09190614bd2565b61201e565b6040516104029190614c40565b60405180910390f35b61042560048036038101906104209190614bd2565b6120a4565b005b34801561043357600080fd5b5061044e6004803603810190610449919061537d565b6120c9565b60405161045b9190614d16565b60405180910390f35b34801561047057600080fd5b50610479612180565b005b34801561048757600080fd5b506104a2600480360381019061049d9190614bd2565b612194565b6040516104af9190614d16565b60405180910390f35b3480156104c457600080fd5b506104cd6121ac565b6040516104da9190614c40565b60405180910390f35b3480156104ef57600080fd5b506104f86121d5565b6040516105059190614b7a565b60405180910390f35b34801561051a57600080fd5b50610535600480360381019061053091906153d6565b612267565b005b34801561054357600080fd5b5061055e60048036038101906105599190615416565b61227d565b005b61057a60048036038101906105759190615469565b61236a565b005b34801561058857600080fd5b506105a3600480360381019061059e91906155f1565b612695565b005b3480156105b157600080fd5b506105cc60048036038101906105c79190615ab7565b6126f7565b005b6105e860048036038101906105e39190615b26565b612ef4565b005b3480156105f657600080fd5b50610611600480360381019061060c9190614bd2565b61323e565b60405161061e9190614b7a565b60405180910390f35b34801561063357600080fd5b5061064e60048036038101906106499190615b66565b6132a6565b60405161065b9190614acf565b60405180910390f35b34801561067057600080fd5b5061068b6004803603810190610686919061537d565b61333a565b005b60007f80ac58cd000000000000000000000000000000000000000000000000000000007bffffffffffffffffffffffffffffffffffffffffffffffffffffffff1916827bffffffffffffffffffffffffffffffffffffffffffffffffffffffff1916148061075857507f5b5e139f000000000000000000000000000000000000000000000000000000007bffffffffffffffffffffffffffffffffffffffffffffffffffffffff1916827bffffffffffffffffffffffffffffffffffffffffffffffffffffffff1916145b806107685750610767826133bd565b5b9050919050565b60606001805461077e90615bd5565b80601f01602080910402602001604051908101604052809291908181526020018280546107aa90615bd5565b80156107f75780601f106107cc576101008083540402835291602001916107f7565b820191906000526020600020905b8154815290600101906020018083116107da57829003601f168201915b5050505050905090565b600061080c82613427565b6005600083815260200190815260200160002060009054906101000a900473ffffffffffffffffffffffffffffffffffffffff169050919050565b60006108528261201e565b90508073ffffffffffffffffffffffffffffffffffffffff168373ffffffffffffffffffffffffffffffffffffffff16036108c2576040517f08c379a00000000000000000000000000000000000000000000000000000000081526004016108b990615c78565b60405180910390fd5b8073ffffffffffffffffffffffffffffffffffffffff166108e1613472565b73ffffffffffffffffffffffffffffffffffffffff161480610910575061090f8161090a613472565b6132a6565b5b61094f576040517f08c379a000000000000000000000000000000000000000000000000000000000815260040161094690615d0a565b60405180910390fd5b610959838361347a565b505050565b6014602052816000526040600020602052806000526040600020600091509150505481565b61099461098e613472565b82613533565b6109d3576040517f08c379a00000000000000000000000000000000000000000000000000000000081526004016109ca90615d9c565b60405180910390fd5b6109de8383836135c8565b505050565b6109eb614855565b600f600083815260200190815260200160002060009054906101000a900460ff16610a4b576040517f08c379a0000000000000000000000000000000000000000000000000000000008152600401610a4290615e08565b60405180910390fd5b600c600083815260200190815260200160002060100160019054906101000a900460ff1615610aaf576040517f08c379a0000000000000000000000000000000000000000000000000000000008152600401610aa690615e74565b60405180910390fd5b600c600083815260200190815260200160002060405180610280016040529081600082015481526020016001820160009054906101000a900473ffffffffffffffffffffffffffffffffffffffff1673ffffffffffffffffffffffffffffffffffffffff1673ffffffffffffffffffffffffffffffffffffffff168152602001600282018054610b3e90615bd5565b80601f0160208091040260200160405190810160405280929190818152602001828054610b6a90615bd5565b8015610bb75780601f10610b8c57610100808354040283529160200191610bb7565b820191906000526020600020905b815481529060010190602001808311610b9a57829003601f168201915b5050505050815260200160038201805480602002602001604051908101604052809291908181526020016000905b82821015610c91578382906000526020600020018054610c0490615bd5565b80601f0160208091040260200160405190810160405280929190818152602001828054610c3090615bd5565b8015610c7d5780601f10610c5257610100808354040283529160200191610c7d565b820191906000526020600020905b815481529060010190602001808311610c6057829003601f168201915b505050505081526020019060010190610be5565b505050508152602001600482018054610ca990615bd5565b80601f0160208091040260200160405190810160405280929190818152602001828054610cd590615bd5565b8015610d225780601f10610cf757610100808354040283529160200191610d22565b820191906000526020600020905b815481529060010190602001808311610d0557829003601f168201915b50505050508152602001600582018054610d3b90615bd5565b80601f0160208091040260200160405190810160405280929190818152602001828054610d6790615bd5565b8015610db45780601f10610d8957610100808354040283529160200191610db4565b820191906000526020600020905b815481529060010190602001808311610d9757829003601f168201915b50505050508152602001600682018054610dcd90615bd5565b80601f0160208091040260200160405190810160405280929190818152602001828054610df990615bd5565b8015610e465780601f10610e1b57610100808354040283529160200191610e46565b820191906000526020600020905b815481529060010190602001808311610e2957829003601f168201915b50505050508152602001600782018054610e5f90615bd5565b80601f0160208091040260200160405190810160405280929190818152602001828054610e8b90615bd5565b8015610ed85780601f10610ead57610100808354040283529160200191610ed8565b820191906000526020600020905b815481529060010190602001808311610ebb57829003601f168201915b50505050508152602001600882018054610ef190615bd5565b80601f0160208091040260200160405190810160405280929190818152602001828054610f1d90615bd5565b8015610f6a5780601f10610f3f57610100808354040283529160200191610f6a565b820191906000526020600020905b815481529060010190602001808311610f4d57829003601f168201915b50505050508152602001600982018054610f8390615bd5565b80601f0160208091040260200160405190810160405280929190818152602001828054610faf90615bd5565b8015610ffc5780601f10610fd157610100808354040283529160200191610ffc565b820191906000526020600020905b815481529060010190602001808311610fdf57829003601f168201915b50505050508152602001600a8201548152602001600b8201548152602001600c8201548152602001600d8201548152602001600e8201548152602001600f82015481526020016010820160009054906101000a900460ff161515151581526020016010820160019054906101000a900460ff161515151581526020016010820160029054906101000a900460ff161515151581526020016011820154815250509050919050565b6012602052816000526040600020602052806000526040600020600091509150505481565b6060600080600190505b6110dc60086138c1565b811161119b57600c600082815260200190815260200160002060100160019054906101000a900460ff1615801561117457503373ffffffffffffffffffffffffffffffffffffffff16600c600083815260200190815260200160002060010160009054906101000a900473ffffffffffffffffffffffffffffffffffffffff1673ffffffffffffffffffffffffffffffffffffffff16145b1561118857818061118490615ec3565b9250505b808061119390615ec3565b9150506110d2565b508067ffffffffffffffff8111156111b6576111b56154c6565b5b6040519080825280602002602001820160405280156111ef57816020015b6111dc614855565b8152602001906001900390816111d45790505b509150600080600190505b61120460086138c1565b81116118cc57600c600082815260200190815260200160002060100160019054906101000a900460ff1615801561129c57503373ffffffffffffffffffffffffffffffffffffffff16600c600083815260200190815260200160002060010160009054906101000a900473ffffffffffffffffffffffffffffffffffffffff1673ffffffffffffffffffffffffffffffffffffffff16145b156118b957600c600082815260200190815260200160002060405180610280016040529081600082015481526020016001820160009054906101000a900473ffffffffffffffffffffffffffffffffffffffff1673ffffffffffffffffffffffffffffffffffffffff1673ffffffffffffffffffffffffffffffffffffffff16815260200160028201805461133090615bd5565b80601f016020809104026020016040519081016040528092919081815260200182805461135c90615bd5565b80156113a95780601f1061137e576101008083540402835291602001916113a9565b820191906000526020600020905b81548152906001019060200180831161138c57829003601f168201915b5050505050815260200160038201805480602002602001604051908101604052809291908181526020016000905b828210156114835783829060005260206000200180546113f690615bd5565b80601f016020809104026020016040519081016040528092919081815260200182805461142290615bd5565b801561146f5780601f106114445761010080835404028352916020019161146f565b820191906000526020600020905b81548152906001019060200180831161145257829003601f168201915b5050505050815260200190600101906113d7565b50505050815260200160048201805461149b90615bd5565b80601f01602080910402602001604051908101604052809291908181526020018280546114c790615bd5565b80156115145780601f106114e957610100808354040283529160200191611514565b820191906000526020600020905b8154815290600101906020018083116114f757829003601f168201915b5050505050815260200160058201805461152d90615bd5565b80601f016020809104026020016040519081016040528092919081815260200182805461155990615bd5565b80156115a65780601f1061157b576101008083540402835291602001916115a6565b820191906000526020600020905b81548152906001019060200180831161158957829003601f168201915b505050505081526020016006820180546115bf90615bd5565b80601f01602080910402602001604051908101604052809291908181526020018280546115eb90615bd5565b80156116385780601f1061160d57610100808354040283529160200191611638565b820191906000526020600020905b81548152906001019060200180831161161b57829003601f168201915b5050505050815260200160078201805461165190615bd5565b80601f016020809104026020016040519081016040528092919081815260200182805461167d90615bd5565b80156116ca5780601f1061169f576101008083540402835291602001916116ca565b820191906000526020600020905b8154815290600101906020018083116116ad57829003601f168201915b505050505081526020016008820180546116e390615bd5565b80601f016020809104026020016040519081016040528092919081815260200182805461170f90615bd5565b801561175c5780601f106117315761010080835404028352916020019161175c565b820191906000526020600020905b81548152906001019060200180831161173f57829003601f168201915b5050505050815260200160098201805461177590615bd5565b80601f01602080910402602001604051908101604052809291908181526020018280546117a190615bd5565b80156117ee5780601f106117c3576101008083540402835291602001916117ee565b820191906000526020600020905b8154815290600101906020018083116117d157829003601f168201915b50505050508152602001600a8201548152602001600b8201548152602001600c8201548152602001600d8201548152602001600e8201548152602001600f82015481526020016010820160009054906101000a900460ff161515151581526020016010820160019054906101000a900460ff161515151581526020016010820160029054906101000a900460ff1615151515815260200160118201548152505084838061189a90615ec3565b9450815181106118ad576118ac615f0b565b5b60200260200101819052505b80806118c490615ec3565b9150506111fa565b50505090565b6060600080600190505b6118e660086138c1565b811161193657600c600082815260200190815260200160002060100160019054906101000a900460ff1661192357818061191f90615ec3565b9250505b808061192e90615ec3565b9150506118dc565b508067ffffffffffffffff811115611951576119506154c6565b5b60405190808252806020026020018201604052801561198a57816020015b611977614855565b81526020019060019003908161196f5790505b509150600080600190505b61199f60086138c1565b8111611ff857600c600082815260200190815260200160002060100160019054906101000a900460ff16611fe557600c600082815260200190815260200160002060405180610280016040529081600082015481526020016001820160009054906101000a900473ffffffffffffffffffffffffffffffffffffffff1673ffffffffffffffffffffffffffffffffffffffff1673ffffffffffffffffffffffffffffffffffffffff168152602001600282018054611a5c90615bd5565b80601f0160208091040260200160405190810160405280929190818152602001828054611a8890615bd5565b8015611ad55780601f10611aaa57610100808354040283529160200191611ad5565b820191906000526020600020905b815481529060010190602001808311611ab857829003601f168201915b5050505050815260200160038201805480602002602001604051908101604052809291908181526020016000905b82821015611baf578382906000526020600020018054611b2290615bd5565b80601f0160208091040260200160405190810160405280929190818152602001828054611b4e90615bd5565b8015611b9b5780601f10611b7057610100808354040283529160200191611b9b565b820191906000526020600020905b815481529060010190602001808311611b7e57829003601f168201915b505050505081526020019060010190611b03565b505050508152602001600482018054611bc790615bd5565b80601f0160208091040260200160405190810160405280929190818152602001828054611bf390615bd5565b8015611c405780601f10611c1557610100808354040283529160200191611c40565b820191906000526020600020905b815481529060010190602001808311611c2357829003601f168201915b50505050508152602001600582018054611c5990615bd5565b80601f0160208091040260200160405190810160405280929190818152602001828054611c8590615bd5565b8015611cd25780601f10611ca757610100808354040283529160200191611cd2565b820191906000526020600020905b815481529060010190602001808311611cb557829003601f168201915b50505050508152602001600682018054611ceb90615bd5565b80601f0160208091040260200160405190810160405280929190818152602001828054611d1790615bd5565b8015611d645780601f10611d3957610100808354040283529160200191611d64565b820191906000526020600020905b815481529060010190602001808311611d4757829003601f168201915b50505050508152602001600782018054611d7d90615bd5565b80601f0160208091040260200160405190810160405280929190818152602001828054611da990615bd5565b8015611df65780601f10611dcb57610100808354040283529160200191611df6565b820191906000526020600020905b815481529060010190602001808311611dd957829003601f168201915b50505050508152602001600882018054611e0f90615bd5565b80601f0160208091040260200160405190810160405280929190818152602001828054611e3b90615bd5565b8015611e885780601f10611e5d57610100808354040283529160200191611e88565b820191906000526020600020905b815481529060010190602001808311611e6b57829003601f168201915b50505050508152602001600982018054611ea190615bd5565b80601f0160208091040260200160405190810160405280929190818152602001828054611ecd90615bd5565b8015611f1a5780601f10611eef57610100808354040283529160200191611f1a565b820191906000526020600020905b815481529060010190602001808311611efd57829003601f168201915b50505050508152602001600a8201548152602001600b8201548152602001600c8201548152602001600d8201548152602001600e8201548152602001600f82015481526020016010820160009054906101000a900460ff161515151581526020016010820160019054906101000a900460ff161515151581526020016010820160029054906101000a900460ff16151515158152602001601182015481525050848380611fc690615ec3565b945081518110611fd957611fd8615f0b565b5b60200260200101819052505b8080611ff090615ec3565b915050611995565b50505090565b61201983838360405180602001604052806000815250612695565b505050565b60008061202a836138cf565b9050600073ffffffffffffffffffffffffffffffffffffffff168173ffffffffffffffffffffffffffffffffffffffff160361209b576040517f08c379a000000000000000000000000000000000000000000000000000000000815260040161209290615f86565b60405180910390fd5b80915050919050565b6120ac61390c565b6120b581613963565b6120be81613ae7565b6120c6613db4565b50565b60008073ffffffffffffffffffffffffffffffffffffffff168273ffffffffffffffffffffffffffffffffffffffff1603612139576040517f08c379a000000000000000000000000000000000000000000000000000000000815260040161213090616018565b60405180910390fd5b600460008373ffffffffffffffffffffffffffffffffffffffff1673ffffffffffffffffffffffffffffffffffffffff168152602001908152602001600020549050919050565b612188613dcd565b6121926000613e4b565b565b60136020528060005260406000206000915090505481565b60008060009054906101000a900473ffffffffffffffffffffffffffffffffffffffff16905090565b6060600280546121e490615bd5565b80601f016020809104026020016040519081016040528092919081815260200182805461221090615bd5565b801561225d5780601f106122325761010080835404028352916020019161225d565b820191906000526020600020905b81548152906001019060200180831161224057829003601f168201915b5050505050905090565b612279612272613472565b8383613f0f565b5050565b816012600085815260200190815260200160002060003373ffffffffffffffffffffffffffffffffffffffff1673ffffffffffffffffffffffffffffffffffffffff168152602001908152602001600020541015612310576040517f08c379a000000000000000000000000000000000000000000000000000000000815260040161230790616084565b60405180910390fd5b806014600085815260200190815260200160002060003373ffffffffffffffffffffffffffffffffffffffff1673ffffffffffffffffffffffffffffffffffffffff16815260200190815260200160002081905550505050565b61237261390c565b60006014600085815260200190815260200160002060008473ffffffffffffffffffffffffffffffffffffffff1673ffffffffffffffffffffffffffffffffffffffff1681526020019081526020016000205490506000811161240a576040517f08c379a0000000000000000000000000000000000000000000000000000000008152600401612401906160f0565b60405180910390fd5b600081836124189190616110565b90508034101561245d576040517f08c379a00000000000000000000000000000000000000000000000000000000081526004016124549061619e565b60405180910390fd5b826012600087815260200190815260200160002060008673ffffffffffffffffffffffffffffffffffffffff1673ffffffffffffffffffffffffffffffffffffffff1681526020019081526020016000205410156124f0576040517f08c379a00000000000000000000000000000000000000000000000000000000081526004016124e790616230565b60405180910390fd5b826012600087815260200190815260200160002060008673ffffffffffffffffffffffffffffffffffffffff1673ffffffffffffffffffffffffffffffffffffffff16815260200190815260200160002060008282546125509190616250565b92505081905550826012600087815260200190815260200160002060003373ffffffffffffffffffffffffffffffffffffffff1673ffffffffffffffffffffffffffffffffffffffff16815260200190815260200160002060008282546125b79190616284565b9250508190555060006014600087815260200190815260200160002060008673ffffffffffffffffffffffffffffffffffffffff1673ffffffffffffffffffffffffffffffffffffffff1681526020019081526020016000208190555061261e848261407b565b3373ffffffffffffffffffffffffffffffffffffffff168473ffffffffffffffffffffffffffffffffffffffff16867f438c1f5df8dec862582b970d3b5b5959b459d85ac9ca19a800af076dd5bd8e37868560405161267e9291906162b8565b60405180910390a45050612690613db4565b505050565b6126a66126a0613472565b83613533565b6126e5576040517f08c379a00000000000000000000000000000000000000000000000000000000081526004016126dc90615d9c565b60405180910390fd5b6126f1848484846140f6565b50505050565b82600081604001515111612740576040517f08c379a00000000000000000000000000000000000000000000000000000000081526004016127379061632d565b60405180910390fd5b600081606001515111612788576040517f08c379a000000000000000000000000000000000000000000000000000000000815260040161277f90616399565b60405180910390fd5b600a81606001515111156127d1576040517f08c379a00000000000000000000000000000000000000000000000000000000081526004016127c890616405565b60405180910390fd5b600081608001515111612819576040517f08c379a000000000000000000000000000000000000000000000000000000000815260040161281090616471565b60405180910390fd5b60008160a001515111612861576040517f08c379a0000000000000000000000000000000000000000000000000000000008152600401612858906164dd565b60405180910390fd5b60008160c0015151116128a9576040517f08c379a00000000000000000000000000000000000000000000000000000000081526004016128a090616549565b60405180910390fd5b60008160e0015151116128f1576040517f08c379a00000000000000000000000000000000000000000000000000000000081526004016128e8906165b5565b60405180910390fd5b6000816101000151511161293a576040517f08c379a000000000000000000000000000000000000000000000000000000000815260040161293190616621565b60405180910390fd5b60008161012001515111612983576040517f08c379a000000000000000000000000000000000000000000000000000000000815260040161297a9061668d565b60405180910390fd5b6000816101400151116129cb576040517f08c379a00000000000000000000000000000000000000000000000000000000081526004016129c2906166f9565b60405180910390fd5b600081610160015111612a13576040517f08c379a0000000000000000000000000000000000000000000000000000000008152600401612a0a90616765565b60405180910390fd5b600081610180015111612a5b576040517f08c379a0000000000000000000000000000000000000000000000000000000008152600401612a52906167d1565b60405180910390fd5b6000816101a0015111612aa3576040517f08c379a0000000000000000000000000000000000000000000000000000000008152600401612a9a90616863565b60405180910390fd5b6000816101c0015111612aeb576040517f08c379a0000000000000000000000000000000000000000000000000000000008152600401612ae2906168f5565b60405180910390fd5b6000816101e0015111612b33576040517f08c379a0000000000000000000000000000000000000000000000000000000008152600401612b2a90616961565b60405180910390fd5b60005b846060015151811015612bb257600085606001518281518110612b5c57612b5b615f0b565b5b60200260200101515111612ba5576040517f08c379a0000000000000000000000000000000000000000000000000000000008152600401612b9c906169cd565b60405180910390fd5b8080600101915050612b36565b50612bbd6008614152565b6000612bc960086138c1565b90508085600001818152505033856020019073ffffffffffffffffffffffffffffffffffffffff16908173ffffffffffffffffffffffffffffffffffffffff1681525050838561024001901515908115158152505083612c2a576000612c2c565b825b85610260018181525050612c403382614168565b84600c60008381526020019081526020016000206000820151816000015560208201518160010160006101000a81548173ffffffffffffffffffffffffffffffffffffffff021916908373ffffffffffffffffffffffffffffffffffffffff1602179055506040820151816002019081612cba9190616b99565b506060820151816003019080519060200190612cd792919061490a565b506080820151816004019081612ced9190616b99565b5060a0820151816005019081612d039190616b99565b5060c0820151816006019081612d199190616b99565b5060e0820151816007019081612d2f9190616b99565b50610100820151816008019081612d469190616b99565b50610120820151816009019081612d5d9190616b99565b5061014082015181600a015561016082015181600b015561018082015181600c01556101a082015181600d01556101c082015181600e01556101e082015181600f01556102008201518160100160006101000a81548160ff0219169083151502179055506102208201518160100160016101000a81548160ff0219169083151502179055506102408201518160100160026101000a81548160ff02191690831515021790555061026082015181601101559050506001600f600083815260200190815260200160002060006101000a81548160ff0219169083151502179055508315612e9957826012600083815260200190815260200160002060003373ffffffffffffffffffffffffffffffffffffffff1673ffffffffffffffffffffffffffffffffffffffff168152602001908152602001600020819055505b3373ffffffffffffffffffffffffffffffffffffffff16817f9815995bdb741d1e283b7e7fd822a34b01efd21fd2c59dc0d5ab07a587a61726876101e00151604051612ee59190614d16565b60405180910390a35050505050565b612efc61390c565b6000600c60008481526020019081526020016000209050600f600084815260200190815260200160002060009054906101000a900460ff16612f73576040517f08c379a0000000000000000000000000000000000000000000000000000000008152600401612f6a90615e08565b60405180910390fd5b8060100160029054906101000a900460ff16612fc4576040517f08c379a0000000000000000000000000000000000000000000000000000000008152600401612fbb90616cb7565b60405180910390fd5b8060100160019054906101000a900460ff1615613016576040517f08c379a000000000000000000000000000000000000000000000000000000000815260040161300d90616d23565b60405180910390fd5b6000816011015482600f015461302c9190616d72565b9050808361303a9190616110565b34101561307c576040517f08c379a00000000000000000000000000000000000000000000000000000000081526004016130739061619e565b60405180910390fd5b81601101548360136000878152602001908152602001600020546130a09190616284565b11156130e1576040517f08c379a00000000000000000000000000000000000000000000000000000000081526004016130d890616def565b60405180910390fd5b826013600086815260200190815260200160002060008282546131049190616284565b92505081905550826012600086815260200190815260200160002060003373ffffffffffffffffffffffffffffffffffffffff1673ffffffffffffffffffffffffffffffffffffffff168152602001908152602001600020600082825461316b9190616284565b9250508190555060006064600b54346131849190616110565b61318e9190616d72565b90506000813461319e9190616250565b90506131ce8460010160009054906101000a900473ffffffffffffffffffffffffffffffffffffffff168261407b565b6131df6131d96121ac565b8361407b565b3373ffffffffffffffffffffffffffffffffffffffff16867f391e04cf2ba8f29888f266b30b26a0c723c4d51f4e59a766d49bc1652a8b5f88876040516132269190614d16565b60405180910390a35050505061323a613db4565b5050565b606061324982613427565b6000613253614186565b90506000815111613273576040518060200160405280600081525061329e565b8061327d8461419d565b60405160200161328e929190616e4b565b6040516020818303038152906040525b915050919050565b6000600660008473ffffffffffffffffffffffffffffffffffffffff1673ffffffffffffffffffffffffffffffffffffffff16815260200190815260200160002060008373ffffffffffffffffffffffffffffffffffffffff1673ffffffffffffffffffffffffffffffffffffffff16815260200190815260200160002060009054906101000a900460ff16905092915050565b613342613dcd565b600073ffffffffffffffffffffffffffffffffffffffff168173ffffffffffffffffffffffffffffffffffffffff16036133b1576040517f08c379a00000000000000000000000000000000000000000000000000000000081526004016133a890616ee1565b60405180910390fd5b6133ba81613e4b565b50565b60007f01ffc9a7000000000000000000000000000000000000000000000000000000007bffffffffffffffffffffffffffffffffffffffffffffffffffffffff1916827bffffffffffffffffffffffffffffffffffffffffffffffffffffffff1916149050919050565b6134308161426b565b61346f576040517f08c379a000000000000000000000000000000000000000000000000000000000815260040161346690615f86565b60405180910390fd5b50565b600033905090565b816005600083815260200190815260200160002060006101000a81548173ffffffffffffffffffffffffffffffffffffffff021916908373ffffffffffffffffffffffffffffffffffffffff160217905550808273ffffffffffffffffffffffffffffffffffffffff166134ed8361201e565b73ffffffffffffffffffffffffffffffffffffffff167f8c5be1e5ebec7d5bd14f71427d1e84f3dd0314c0f7b2291e5b200ac8c7c3b92560405160405180910390a45050565b60008061353f8361201e565b90508073ffffffffffffffffffffffffffffffffffffffff168473ffffffffffffffffffffffffffffffffffffffff161480613581575061358081856132a6565b5b806135bf57508373ffffffffffffffffffffffffffffffffffffffff166135a784610801565b73ffffffffffffffffffffffffffffffffffffffff16145b91505092915050565b8273ffffffffffffffffffffffffffffffffffffffff166135e88261201e565b73ffffffffffffffffffffffffffffffffffffffff161461363e576040517f08c379a000000000000000000000000000000000000000000000000000000000815260040161363590616f73565b60405180910390fd5b600073ffffffffffffffffffffffffffffffffffffffff168273ffffffffffffffffffffffffffffffffffffffff16036136ad576040517f08c379a00000000000000000000000000000000000000000000000000000000081526004016136a490617005565b60405180910390fd5b6136ba83838360016142ac565b8273ffffffffffffffffffffffffffffffffffffffff166136da8261201e565b73ffffffffffffffffffffffffffffffffffffffff1614613730576040517f08c379a000000000000000000000000000000000000000000000000000000000815260040161372790616f73565b60405180910390fd5b6005600082815260200190815260200160002060006101000a81549073ffffffffffffffffffffffffffffffffffffffff02191690556001600460008573ffffffffffffffffffffffffffffffffffffffff1673ffffffffffffffffffffffffffffffffffffffff168152602001908152602001600020600082825403925050819055506001600460008473ffffffffffffffffffffffffffffffffffffffff1673ffffffffffffffffffffffffffffffffffffffff16815260200190815260200160002060008282540192505081905550816003600083815260200190815260200160002060006101000a81548173ffffffffffffffffffffffffffffffffffffffff021916908373ffffffffffffffffffffffffffffffffffffffff160217905550808273ffffffffffffffffffffffffffffffffffffffff168473ffffffffffffffffffffffffffffffffffffffff167fddf252ad1be2c89b69c2b068fc378daa952ba7f163c4a11628f55a4df523b3ef60405160405180910390a46138bc83838360016142b2565b505050565b600081600001549050919050565b60006003600083815260200190815260200160002060009054906101000a900473ffffffffffffffffffffffffffffffffffffffff169050919050565b60006139166142b8565b90506002816000015403613956576040517f3ee5aeb500000000000000000000000000000000000000000000000000000000815260040160405180910390fd5b6002816000018190555050565b600f600082815260200190815260200160002060009054906101000a900460ff166139c3576040517f08c379a00000000000000000000000000000000000000000000000000000000081526004016139ba90615e08565b60405180910390fd5b600c6000828152602001908152602001600020600f0154341015613a1c576040517f08c379a0000000000000000000000000000000000000000000000000000000008152600401613a139061619e565b60405180910390fd5b600c600082815260200190815260200160002060100160019054906101000a900460ff1615613a80576040517f08c379a0000000000000000000000000000000000000000000000000000000008152600401613a7790615e74565b60405180910390fd5b600c600082815260200190815260200160002060100160009054906101000a900460ff1615613ae4576040517f08c379a0000000000000000000000000000000000000000000000000000000008152600401613adb90617071565b60405180910390fd5b50565b613af16009614152565b613af9614963565b613b0360096138c1565b8160000181815250508181602001818152505033816040019073ffffffffffffffffffffffffffffffffffffffff16908173ffffffffffffffffffffffffffffffffffffffff1681525050600e6000838152602001908152602001600020819080600181540180825580915050600190039060005260206000209060030201600090919091909150600082015181600001556020820151816001015560408201518160020160006101000a81548173ffffffffffffffffffffffffffffffffffffffff021916908373ffffffffffffffffffffffffffffffffffffffff160217905550505060006064600b5434613bfa9190616110565b613c049190616d72565b905060008134613c149190616250565b9050613c56600c600086815260200190815260200160002060010160009054906101000a900473ffffffffffffffffffffffffffffffffffffffff168261407b565b613c67613c616121ac565b8361407b565b6000600c600086815260200190815260200160002060010160009054906101000a900473ffffffffffffffffffffffffffffffffffffffff1690506001600c600087815260200190815260200160002060100160006101000a81548160ff02191690831515021790555033600c600087815260200190815260200160002060010160006101000a81548173ffffffffffffffffffffffffffffffffffffffff021916908373ffffffffffffffffffffffffffffffffffffffff160217905550613d318133876135c8565b3373ffffffffffffffffffffffffffffffffffffffff168173ffffffffffffffffffffffffffffffffffffffff16867fddd64180d9701c7ede08673ac8106484ff983a472929330d4fbde4e35d65cb06600c60008a8152602001908152602001600020600f0154604051613da59190614d16565b60405180910390a45050505050565b6000613dbe6142b8565b90506001816000018190555050565b613dd5613472565b73ffffffffffffffffffffffffffffffffffffffff16613df36121ac565b73ffffffffffffffffffffffffffffffffffffffff1614613e49576040517f08c379a0000000000000000000000000000000000000000000000000000000008152600401613e40906170dd565b60405180910390fd5b565b60008060009054906101000a900473ffffffffffffffffffffffffffffffffffffffff169050816000806101000a81548173ffffffffffffffffffffffffffffffffffffffff021916908373ffffffffffffffffffffffffffffffffffffffff1602179055508173ffffffffffffffffffffffffffffffffffffffff168173ffffffffffffffffffffffffffffffffffffffff167f8be0079c531659141344cd1fd0a4f28419497f9722a3daafe3b4186f6b6457e060405160405180910390a35050565b8173ffffffffffffffffffffffffffffffffffffffff168373ffffffffffffffffffffffffffffffffffffffff1603613f7d576040517f08c379a0000000000000000000000000000000000000000000000000000000008152600401613f7490617149565b60405180910390fd5b80600660008573ffffffffffffffffffffffffffffffffffffffff1673ffffffffffffffffffffffffffffffffffffffff16815260200190815260200160002060008473ffffffffffffffffffffffffffffffffffffffff1673ffffffffffffffffffffffffffffffffffffffff16815260200190815260200160002060006101000a81548160ff0219169083151502179055508173ffffffffffffffffffffffffffffffffffffffff168373ffffffffffffffffffffffffffffffffffffffff167f17307eab39ab6107e8899845ad3d59bd9653f200f220920489ca2b5937696c318360405161406e9190614acf565b60405180910390a3505050565b60008273ffffffffffffffffffffffffffffffffffffffff16826040516140a19061719a565b60006040518083038185875af1925050503d80600081146140de576040519150601f19603f3d011682016040523d82523d6000602084013e6140e3565b606091505b50509050806140f157600080fd5b505050565b6141018484846135c8565b61410d848484846142e0565b61414c576040517f08c379a000000000000000000000000000000000000000000000000000000000815260040161414390617221565b60405180910390fd5b50505050565b6001816000016000828254019250508190555050565b614182828260405180602001604052806000815250614467565b5050565b606060405180602001604052806000815250905090565b6060600060016141ac846144c2565b01905060008167ffffffffffffffff8111156141cb576141ca6154c6565b5b6040519080825280601f01601f1916602001820160405280156141fd5781602001600182028036833780820191505090505b509050600082602001820190505b600115614260578080600190039150507f3031323334353637383961626364656600000000000000000000000000000000600a86061a8153600a858161425457614253616d43565b5b0494506000850361420b575b819350505050919050565b60008073ffffffffffffffffffffffffffffffffffffffff1661428d836138cf565b73ffffffffffffffffffffffffffffffffffffffff1614159050919050565b50505050565b50505050565b60007f9b779b17422d0df92223018b32b4d1fa46e071723d6817e2486d003becc55f00905090565b60006143018473ffffffffffffffffffffffffffffffffffffffff16614615565b1561445a578373ffffffffffffffffffffffffffffffffffffffff1663150b7a0261432a613472565b8786866040518563ffffffff1660e01b815260040161434c9493929190617296565b6020604051808303816000875af192505050801561438857506040513d601f19601f8201168201806040525081019061438591906172f7565b60015b61440a573d80600081146143b8576040519150601f19603f3d011682016040523d82523d6000602084013e6143bd565b606091505b506000815103614402576040517f08c379a00000000000000000000000000000000000000000000000000000000081526004016143f990617221565b60405180910390fd5b805181602001fd5b63150b7a0260e01b7bffffffffffffffffffffffffffffffffffffffffffffffffffffffff1916817bffffffffffffffffffffffffffffffffffffffffffffffffffffffff19161491505061445f565b600190505b949350505050565b6144718383614638565b61447e60008484846142e0565b6144bd576040517f08c379a00000000000000000000000000000000000000000000000000000000081526004016144b490617221565b60405180910390fd5b505050565b600080600090507a184f03e93ff9f4daa797ed6e38ed64bf6a1f0100000000000000008310614520577a184f03e93ff9f4daa797ed6e38ed64bf6a1f010000000000000000838161451657614515616d43565b5b0492506040810190505b6d04ee2d6d415b85acef8100000000831061455d576d04ee2d6d415b85acef8100000000838161455357614552616d43565b5b0492506020810190505b662386f26fc10000831061458c57662386f26fc10000838161458257614581616d43565b5b0492506010810190505b6305f5e10083106145b5576305f5e10083816145ab576145aa616d43565b5b0492506008810190505b61271083106145da5761271083816145d0576145cf616d43565b5b0492506004810190505b606483106145fd57606483816145f3576145f2616d43565b5b0492506002810190505b600a831061460c576001810190505b80915050919050565b6000808273ffffffffffffffffffffffffffffffffffffffff163b119050919050565b600073ffffffffffffffffffffffffffffffffffffffff168273ffffffffffffffffffffffffffffffffffffffff16036146a7576040517f08c379a000000000000000000000000000000000000000000000000000000000815260040161469e90617370565b60405180910390fd5b6146b08161426b565b156146f0576040517f08c379a00000000000000000000000000000000000000000000000000000000081526004016146e7906173dc565b60405180910390fd5b6146fe6000838360016142ac565b6147078161426b565b15614747576040517f08c379a000000000000000000000000000000000000000000000000000000000815260040161473e906173dc565b60405180910390fd5b6001600460008473ffffffffffffffffffffffffffffffffffffffff1673ffffffffffffffffffffffffffffffffffffffff16815260200190815260200160002060008282540192505081905550816003600083815260200190815260200160002060006101000a81548173ffffffffffffffffffffffffffffffffffffffff021916908373ffffffffffffffffffffffffffffffffffffffff160217905550808273ffffffffffffffffffffffffffffffffffffffff16600073ffffffffffffffffffffffffffffffffffffffff167fddf252ad1be2c89b69c2b068fc378daa952ba7f163c4a11628f55a4df523b3ef60405160405180910390a46148516000838360016142b2565b5050565b60405180610280016040528060008152602001600073ffffffffffffffffffffffffffffffffffffffff1681526020016060815260200160608152602001606081526020016060815260200160608152602001606081526020016060815260200160608152602001600081526020016000815260200160008152602001600081526020016000815260200160008152602001600015158152602001600015158152602001600015158152602001600081525090565b828054828255906000526020600020908101928215614952579160200282015b828111156149515782518290816149419190616b99565b509160200191906001019061492a565b5b50905061495f919061499a565b5090565b60405180606001604052806000815260200160008152602001600073ffffffffffffffffffffffffffffffffffffffff1681525090565b5b808211156149ba57600081816149b191906149be565b5060010161499b565b5090565b5080546149ca90615bd5565b6000825580601f106149dc57506149fb565b601f0160209004906000526020600020908101906149fa91906149fe565b5b50565b5b80821115614a175760008160009055506001016149ff565b5090565b6000604051905090565b600080fd5b600080fd5b60007fffffffff0000000000000000000000000000000000000000000000000000000082169050919050565b614a6481614a2f565b8114614a6f57600080fd5b50565b600081359050614a8181614a5b565b92915050565b600060208284031215614a9d57614a9c614a25565b5b6000614aab84828501614a72565b91505092915050565b60008115159050919050565b614ac981614ab4565b82525050565b6000602082019050614ae46000830184614ac0565b92915050565b600081519050919050565b600082825260208201905092915050565b60005b83811015614b24578082015181840152602081019050614b09565b60008484015250505050565b6000601f19601f8301169050919050565b6000614b4c82614aea565b614b568185614af5565b9350614b66818560208601614b06565b614b6f81614b30565b840191505092915050565b60006020820190508181036000830152614b948184614b41565b905092915050565b6000819050919050565b614baf81614b9c565b8114614bba57600080fd5b50565b600081359050614bcc81614ba6565b92915050565b600060208284031215614be857614be7614a25565b5b6000614bf684828501614bbd565b91505092915050565b600073ffffffffffffffffffffffffffffffffffffffff82169050919050565b6000614c2a82614bff565b9050919050565b614c3a81614c1f565b82525050565b6000602082019050614c556000830184614c31565b92915050565b614c6481614c1f565b8114614c6f57600080fd5b50565b600081359050614c8181614c5b565b92915050565b60008060408385031215614c9e57614c9d614a25565b5b6000614cac85828601614c72565b9250506020614cbd85828601614bbd565b9150509250929050565b60008060408385031215614cde57614cdd614a25565b5b6000614cec85828601614bbd565b9250506020614cfd85828601614c72565b9150509250929050565b614d1081614b9c565b82525050565b6000602082019050614d2b6000830184614d07565b92915050565b600080600060608486031215614d4a57614d49614a25565b5b6000614d5886828701614c72565b9350506020614d6986828701614c72565b9250506040614d7a86828701614bbd565b9150509250925092565b614d8d81614b9c565b82525050565b614d9c81614c1f565b82525050565b600082825260208201905092915050565b6000614dbe82614aea565b614dc88185614da2565b9350614dd8818560208601614b06565b614de181614b30565b840191505092915050565b600081519050919050565b600082825260208201905092915050565b6000819050602082019050919050565b6000614e248383614db3565b905092915050565b6000602082019050919050565b6000614e4482614dec565b614e4e8185614df7565b935083602082028501614e6085614e08565b8060005b85811015614e9c5784840389528151614e7d8582614e18565b9450614e8883614e2c565b925060208a01995050600181019050614e64565b50829750879550505050505092915050565b614eb781614ab4565b82525050565b600061028083016000830151614ed66000860182614d84565b506020830151614ee96020860182614d93565b5060408301518482036040860152614f018282614db3565b91505060608301518482036060860152614f1b8282614e39565b91505060808301518482036080860152614f358282614db3565b91505060a083015184820360a0860152614f4f8282614db3565b91505060c083015184820360c0860152614f698282614db3565b91505060e083015184820360e0860152614f838282614db3565b915050610100830151848203610100860152614f9f8282614db3565b915050610120830151848203610120860152614fbb8282614db3565b915050610140830151614fd2610140860182614d84565b50610160830151614fe7610160860182614d84565b50610180830151614ffc610180860182614d84565b506101a08301516150116101a0860182614d84565b506101c08301516150266101c0860182614d84565b506101e083015161503b6101e0860182614d84565b50610200830151615050610200860182614eae565b50610220830151615065610220860182614eae565b5061024083015161507a610240860182614eae565b5061026083015161508f610260860182614d84565b508091505092915050565b600060208201905081810360008301526150b48184614ebd565b905092915050565b600081519050919050565b600082825260208201905092915050565b6000819050602082019050919050565b6000610280830160008301516151016000860182614d84565b5060208301516151146020860182614d93565b506040830151848203604086015261512c8282614db3565b915050606083015184820360608601526151468282614e39565b915050608083015184820360808601526151608282614db3565b91505060a083015184820360a086015261517a8282614db3565b91505060c083015184820360c08601526151948282614db3565b91505060e083015184820360e08601526151ae8282614db3565b9150506101008301518482036101008601526151ca8282614db3565b9150506101208301518482036101208601526151e68282614db3565b9150506101408301516151fd610140860182614d84565b50610160830151615212610160860182614d84565b50610180830151615227610180860182614d84565b506101a083015161523c6101a0860182614d84565b506101c08301516152516101c0860182614d84565b506101e08301516152666101e0860182614d84565b5061020083015161527b610200860182614eae565b50610220830151615290610220860182614eae565b506102408301516152a5610240860182614eae565b506102608301516152ba610260860182614d84565b508091505092915050565b60006152d183836150e8565b905092915050565b6000602082019050919050565b60006152f1826150bc565b6152fb81856150c7565b93508360208202850161530d856150d8565b8060005b85811015615349578484038952815161532a85826152c5565b9450615335836152d9565b925060208a01995050600181019050615311565b50829750879550505050505092915050565b6000602082019050818103600083015261537581846152e6565b905092915050565b60006020828403121561539357615392614a25565b5b60006153a184828501614c72565b91505092915050565b6153b381614ab4565b81146153be57600080fd5b50565b6000813590506153d0816153aa565b92915050565b600080604083850312156153ed576153ec614a25565b5b60006153fb85828601614c72565b925050602061540c858286016153c1565b9150509250929050565b60008060006060848603121561542f5761542e614a25565b5b600061543d86828701614bbd565b935050602061544e86828701614bbd565b925050604061545f86828701614bbd565b9150509250925092565b60008060006060848603121561548257615481614a25565b5b600061549086828701614bbd565b93505060206154a186828701614c72565b92505060406154b286828701614bbd565b9150509250925092565b600080fd5b600080fd5b7f4e487b7100000000000000000000000000000000000000000000000000000000600052604160045260246000fd5b6154fe82614b30565b810181811067ffffffffffffffff8211171561551d5761551c6154c6565b5b80604052505050565b6000615530614a1b565b905061553c82826154f5565b919050565b600067ffffffffffffffff82111561555c5761555b6154c6565b5b61556582614b30565b9050602081019050919050565b82818337600083830152505050565b600061559461558f84615541565b615526565b9050828152602081018484840111156155b0576155af6154c1565b5b6155bb848285615572565b509392505050565b600082601f8301126155d8576155d76154bc565b5b81356155e8848260208601615581565b91505092915050565b6000806000806080858703121561560b5761560a614a25565b5b600061561987828801614c72565b945050602061562a87828801614c72565b935050604061563b87828801614bbd565b925050606085013567ffffffffffffffff81111561565c5761565b614a2a565b5b615668878288016155c3565b91505092959194509250565b600080fd5b600080fd5b600067ffffffffffffffff821115615699576156986154c6565b5b6156a282614b30565b9050602081019050919050565b60006156c26156bd8461567e565b615526565b9050828152602081018484840111156156de576156dd6154c1565b5b6156e9848285615572565b509392505050565b600082601f830112615706576157056154bc565b5b81356157168482602086016156af565b91505092915050565b600067ffffffffffffffff82111561573a576157396154c6565b5b602082029050602081019050919050565b600080fd5b600061576361575e8461571f565b615526565b905080838252602082019050602084028301858111156157865761578561574b565b5b835b818110156157cd57803567ffffffffffffffff8111156157ab576157aa6154bc565b5b8086016157b889826156f1565b85526020850194505050602081019050615788565b5050509392505050565b600082601f8301126157ec576157eb6154bc565b5b81356157fc848260208601615750565b91505092915050565b6000610280828403121561581c5761581b615674565b5b615827610280615526565b9050600061583784828501614bbd565b600083015250602061584b84828501614c72565b602083015250604082013567ffffffffffffffff81111561586f5761586e615679565b5b61587b848285016156f1565b604083015250606082013567ffffffffffffffff81111561589f5761589e615679565b5b6158ab848285016157d7565b606083015250608082013567ffffffffffffffff8111156158cf576158ce615679565b5b6158db848285016156f1565b60808301525060a082013567ffffffffffffffff8111156158ff576158fe615679565b5b61590b848285016156f1565b60a08301525060c082013567ffffffffffffffff81111561592f5761592e615679565b5b61593b848285016156f1565b60c08301525060e082013567ffffffffffffffff81111561595f5761595e615679565b5b61596b848285016156f1565b60e08301525061010082013567ffffffffffffffff8111156159905761598f615679565b5b61599c848285016156f1565b6101008301525061012082013567ffffffffffffffff8111156159c2576159c1615679565b5b6159ce848285016156f1565b610120830152506101406159e484828501614bbd565b610140830152506101606159fa84828501614bbd565b61016083015250610180615a1084828501614bbd565b610180830152506101a0615a2684828501614bbd565b6101a0830152506101c0615a3c84828501614bbd565b6101c0830152506101e0615a5284828501614bbd565b6101e083015250610200615a68848285016153c1565b61020083015250610220615a7e848285016153c1565b61022083015250610240615a94848285016153c1565b61024083015250610260615aaa84828501614bbd565b6102608301525092915050565b600080600060608486031215615ad057615acf614a25565b5b600084013567ffffffffffffffff811115615aee57615aed614a2a565b5b615afa86828701615805565b9350506020615b0b868287016153c1565b9250506040615b1c86828701614bbd565b9150509250925092565b60008060408385031215615b3d57615b3c614a25565b5b6000615b4b85828601614bbd565b9250506020615b5c85828601614bbd565b9150509250929050565b60008060408385031215615b7d57615b7c614a25565b5b6000615b8b85828601614c72565b9250506020615b9c85828601614c72565b9150509250929050565b7f4e487b7100000000000000000000000000000000000000000000000000000000600052602260045260246000fd5b60006002820490506001821680615bed57607f821691505b602082108103615c0057615bff615ba6565b5b50919050565b7f4552433732313a20617070726f76616c20746f2063757272656e74206f776e6560008201527f7200000000000000000000000000000000000000000000000000000000000000602082015250565b6000615c62602183614af5565b9150615c6d82615c06565b604082019050919050565b60006020820190508181036000830152615c9181615c55565b9050919050565b7f4552433732313a20617070726f76652063616c6c6572206973206e6f7420746f60008201527f6b656e206f776e6572206f7220617070726f76656420666f7220616c6c000000602082015250565b6000615cf4603d83614af5565b9150615cff82615c98565b604082019050919050565b60006020820190508181036000830152615d2381615ce7565b9050919050565b7f4552433732313a2063616c6c6572206973206e6f7420746f6b656e206f776e6560008201527f72206f7220617070726f76656400000000000000000000000000000000000000602082015250565b6000615d86602d83614af5565b9150615d9182615d2a565b604082019050919050565b60006020820190508181036000830152615db581615d79565b9050919050565b7f50726f706572747920646f6573206e6f74206578697374000000000000000000600082015250565b6000615df2601783614af5565b9150615dfd82615dbc565b602082019050919050565b60006020820190508181036000830152615e2181615de5565b9050919050565b7f50726f706572747920686173206265656e2064656c6574656400000000000000600082015250565b6000615e5e601983614af5565b9150615e6982615e28565b602082019050919050565b60006020820190508181036000830152615e8d81615e51565b9050919050565b7f4e487b7100000000000000000000000000000000000000000000000000000000600052601160045260246000fd5b6000615ece82614b9c565b91507fffffffffffffffffffffffffffffffffffffffffffffffffffffffffffffffff8203615f0057615eff615e94565b5b600182019050919050565b7f4e487b7100000000000000000000000000000000000000000000000000000000600052603260045260246000fd5b7f4552433732313a20696e76616c696420746f6b656e2049440000000000000000600082015250565b6000615f70601883614af5565b9150615f7b82615f3a565b602082019050919050565b60006020820190508181036000830152615f9f81615f63565b9050919050565b7f4552433732313a2061646472657373207a65726f206973206e6f74206120766160008201527f6c6964206f776e65720000000000000000000000000000000000000000000000602082015250565b6000616002602983614af5565b915061600d82615fa6565b604082019050919050565b6000602082019050818103600083015261603181615ff5565b9050919050565b7f4e6f7420656e6f7567682073686172657320746f206c69737400000000000000600082015250565b600061606e601983614af5565b915061607982616038565b602082019050919050565b6000602082019050818103600083015261609d81616061565b9050919050565b7f53656c6c657220686173206e6f74206c69737465642073686172657300000000600082015250565b60006160da601c83614af5565b91506160e5826160a4565b602082019050919050565b60006020820190508181036000830152616109816160cd565b9050919050565b600061611b82614b9c565b915061612683614b9c565b925082820261613481614b9c565b9150828204841483151761614b5761614a615e94565b5b5092915050565b7f496e73756666696369656e74207061796d656e74000000000000000000000000600082015250565b6000616188601483614af5565b915061619382616152565b602082019050919050565b600060208201905081810360008301526161b78161617b565b9050919050565b7f53656c6c657220646f6573206e6f74206861766520656e6f756768207368617260008201527f6573000000000000000000000000000000000000000000000000000000000000602082015250565b600061621a602283614af5565b9150616225826161be565b604082019050919050565b600060208201905081810360008301526162498161620d565b9050919050565b600061625b82614b9c565b915061626683614b9c565b925082820390508181111561627e5761627d615e94565b5b92915050565b600061628f82614b9c565b915061629a83614b9c565b92508282019050808211156162b2576162b1615e94565b5b92915050565b60006040820190506162cd6000830185614d07565b6162da6020830184614d07565b9392505050565b7f4e616d652063616e6e6f7420626520656d707479000000000000000000000000600082015250565b6000616317601483614af5565b9150616322826162e1565b602082019050919050565b600060208201905081810360008301526163468161630a565b9050919050565b7f4174206c65617374206f6e6520696d6167652069732072657175697265640000600082015250565b6000616383601e83614af5565b915061638e8261634d565b602082019050919050565b600060208201905081810360008301526163b281616376565b9050919050565b7f4d6178696d756d20313020696d6167657320616c6c6f77656400000000000000600082015250565b60006163ef601983614af5565b91506163fa826163b9565b602082019050919050565b6000602082019050818103600083015261641e816163e2565b9050919050565b7f43617465676f72792063616e6e6f7420626520656d7074790000000000000000600082015250565b600061645b601883614af5565b915061646682616425565b602082019050919050565b6000602082019050818103600083015261648a8161644e565b9050919050565b7f4465736372697074696f6e2063616e6e6f7420626520656d7074790000000000600082015250565b60006164c7601b83614af5565b91506164d282616491565b602082019050919050565b600060208201905081810360008301526164f6816164ba565b9050919050565b7f4c6f636174696f6e2063616e6e6f7420626520656d7074790000000000000000600082015250565b6000616533601883614af5565b915061653e826164fd565b602082019050919050565b6000602082019050818103600083015261656281616526565b9050919050565b7f436974792063616e6e6f7420626520656d707479000000000000000000000000600082015250565b600061659f601483614af5565b91506165aa82616569565b602082019050919050565b600060208201905081810360008301526165ce81616592565b9050919050565b7f53746174652063616e6e6f7420626520656d7074790000000000000000000000600082015250565b600061660b601583614af5565b9150616616826165d5565b602082019050919050565b6000602082019050818103600083015261663a816165fe565b9050919050565b7f436f756e7472792063616e6e6f7420626520656d707479000000000000000000600082015250565b6000616677601783614af5565b915061668282616641565b602082019050919050565b600060208201905081810360008301526166a68161666a565b9050919050565b7f5a697020436f64652063616e6e6f7420626520656d7074790000000000000000600082015250565b60006166e3601883614af5565b91506166ee826166ad565b602082019050919050565b60006020820190508181036000830152616712816166d6565b9050919050565b7f426564726f6f6d2063616e6e6f74206265207a65726f206f7220656d70747900600082015250565b600061674f601f83614af5565b915061675a82616719565b602082019050919050565b6000602082019050818103600083015261677e81616742565b9050919050565b7f42617468726f6f6d2063616e6e6f74206265207a65726f206f7220656d707479600082015250565b60006167bb602083614af5565b91506167c682616785565b602082019050919050565b600060208201905081810360008301526167ea816167ae565b9050919050565b7f59656172206275696c742063616e6e6f74206265207a65726f206f7220656d7060008201527f7479000000000000000000000000000000000000000000000000000000000000602082015250565b600061684d602283614af5565b9150616858826167f1565b604082019050919050565b6000602082019050818103600083015261687c81616840565b9050919050565b7f486f7573652073697a652063616e6e6f74206265207a65726f206f7220656d7060008201527f7479000000000000000000000000000000000000000000000000000000000000602082015250565b60006168df602283614af5565b91506168ea82616883565b604082019050919050565b6000602082019050818103600083015261690e816168d2565b9050919050565b7f5072696365206d7573742062652067726561746572207468616e207a65726f00600082015250565b600061694b601f83614af5565b915061695682616915565b602082019050919050565b6000602082019050818103600083015261697a8161693e565b9050919050565b7f496d6167652055524c2063616e6e6f7420626520656d70747900000000000000600082015250565b60006169b7601983614af5565b91506169c282616981565b602082019050919050565b600060208201905081810360008301526169e6816169aa565b9050919050565b60008190508160005260206000209050919050565b60006020601f8301049050919050565b600082821b905092915050565b600060088302616a4f7fffffffffffffffffffffffffffffffffffffffffffffffffffffffffffffffff82616a12565b616a598683616a12565b95508019841693508086168417925050509392505050565b6000819050919050565b6000616a96616a91616a8c84614b9c565b616a71565b614b9c565b9050919050565b6000819050919050565b616ab083616a7b565b616ac4616abc82616a9d565b848454616a1f565b825550505050565b600090565b616ad9616acc565b616ae4818484616aa7565b505050565b5b81811015616b0857616afd600082616ad1565b600181019050616aea565b5050565b601f821115616b4d57616b1e816169ed565b616b2784616a02565b81016020851015616b36578190505b616b4a616b4285616a02565b830182616ae9565b50505b505050565b600082821c905092915050565b6000616b7060001984600802616b52565b1980831691505092915050565b6000616b898383616b5f565b9150826002028217905092915050565b616ba282614aea565b67ffffffffffffffff811115616bbb57616bba6154c6565b5b616bc58254615bd5565b616bd0828285616b0c565b600060209050601f831160018114616c035760008415616bf1578287015190505b616bfb8582616b7d565b865550616c63565b601f198416616c11866169ed565b60005b82811015616c3957848901518255600182019150602085019450602081019050616c14565b86831015616c565784890151616c52601f891682616b5f565b8355505b6001600288020188555050505b505050505050565b7f50726f7065727479206973206e6f74206672616374696f6e616c697a65640000600082015250565b6000616ca1601e83614af5565b9150616cac82616c6b565b602082019050919050565b60006020820190508181036000830152616cd081616c94565b9050919050565b7f50726f70657274792069732064656c6574656400000000000000000000000000600082015250565b6000616d0d601383614af5565b9150616d1882616cd7565b602082019050919050565b60006020820190508181036000830152616d3c81616d00565b9050919050565b7f4e487b7100000000000000000000000000000000000000000000000000000000600052601260045260246000fd5b6000616d7d82614b9c565b9150616d8883614b9c565b925082616d9857616d97616d43565b5b828204905092915050565b7f4e6f7420656e6f7567682073686172657320617661696c61626c650000000000600082015250565b6000616dd9601b83614af5565b9150616de482616da3565b602082019050919050565b60006020820190508181036000830152616e0881616dcc565b9050919050565b600081905092915050565b6000616e2582614aea565b616e2f8185616e0f565b9350616e3f818560208601614b06565b80840191505092915050565b6000616e578285616e1a565b9150616e638284616e1a565b91508190509392505050565b7f4f776e61626c653a206e6577206f776e657220697320746865207a65726f206160008201527f6464726573730000000000000000000000000000000000000000000000000000602082015250565b6000616ecb602683614af5565b9150616ed682616e6f565b604082019050919050565b60006020820190508181036000830152616efa81616ebe565b9050919050565b7f4552433732313a207472616e736665722066726f6d20696e636f72726563742060008201527f6f776e6572000000000000000000000000000000000000000000000000000000602082015250565b6000616f5d602583614af5565b9150616f6882616f01565b604082019050919050565b60006020820190508181036000830152616f8c81616f50565b9050919050565b7f4552433732313a207472616e7366657220746f20746865207a65726f2061646460008201527f7265737300000000000000000000000000000000000000000000000000000000602082015250565b6000616fef602483614af5565b9150616ffa82616f93565b604082019050919050565b6000602082019050818103600083015261701e81616fe2565b9050919050565b7f50726f706572747920686173206265656e20736f6c6400000000000000000000600082015250565b600061705b601683614af5565b915061706682617025565b602082019050919050565b6000602082019050818103600083015261708a8161704e565b9050919050565b7f4f776e61626c653a2063616c6c6572206973206e6f7420746865206f776e6572600082015250565b60006170c7602083614af5565b91506170d282617091565b602082019050919050565b600060208201905081810360008301526170f6816170ba565b9050919050565b7f4552433732313a20617070726f766520746f2063616c6c657200000000000000600082015250565b6000617133601983614af5565b915061713e826170fd565b602082019050919050565b6000602082019050818103600083015261716281617126565b9050919050565b600081905092915050565b50565b6000617184600083617169565b915061718f82617174565b600082019050919050565b60006171a582617177565b9150819050919050565b7f4552433732313a207472616e7366657220746f206e6f6e20455243373231526560008201527f63656976657220696d706c656d656e7465720000000000000000000000000000602082015250565b600061720b603283614af5565b9150617216826171af565b604082019050919050565b6000602082019050818103600083015261723a816171fe565b9050919050565b600081519050919050565b600082825260208201905092915050565b600061726882617241565b617272818561724c565b9350617282818560208601614b06565b61728b81614b30565b840191505092915050565b60006080820190506172ab6000830187614c31565b6172b86020830186614c31565b6172c56040830185614d07565b81810360608301526172d7818461725d565b905095945050505050565b6000815190506172f181614a5b565b92915050565b60006020828403121561730d5761730c614a25565b5b600061731b848285016172e2565b91505092915050565b7f4552433732313a206d696e7420746f20746865207a65726f2061646472657373600082015250565b600061735a602083614af5565b915061736582617324565b602082019050919050565b600060208201905081810360008301526173898161734d565b9050919050565b7f4552433732313a20746f6b656e20616c7265616479206d696e74656400000000600082015250565b60006173c6601c83614af5565b91506173d182617390565b602082019050919050565b600060208201905081810360008301526173f5816173b9565b905091905056fea264697066735822122098991890ee2dbfd2ec0fc10f2f4d193d35a1b7e6458804655356d590a96ad64964736f6c634300081c0033",
  "linkReferences": {},
  "deployedLinkReferences": {}
}